:100000000C9434000C9451000C9451000C94510049
:100010000C9451000C9451000C9451000C946A09FA
:100020000C9451000C9451000C9451000C9451000C
:100030000C9451000C9451000C9451000C945100FC
:100040000C9451000C9451000C9451000C945100EC
:100050000C9451000C9451000C9451000C945100DC
:100060000C9451000C94510011241FBECFEFD8E026
:10007000DEBFCDBF11E0A0E0B1E0E6E6FDE102C0E9
:1000800005900D92A432B107D9F716E0A4E2B1E0D1
:1000900001C01D92A63EB107E1F70E9453000C94E7
:1000A000B10E0C94000081E00E94D10D0E94E60B7D
:1000B00085E091E060E00E94A50A8AEF90E061E0AF
:1000C0000E94A50A8FE790E062E00E94A50A84E7FB
:1000D00090E063E00E94A50A83E790E00E94CE0DC5
:1000E0000E941D0BFFCF08950E940B0782E090E055
:1000F0000E942C0C0E948D088CE291E0F9CF0E94A6
:100100006C0482E090E00E942C0CA0E1DA2ECDE895
:10011000D6E0F6E0EF2EF12CEC0EFD1E8E01045D14
:100120001F4FD09295060E94060E6093B5067093FD
:10013000B6068093B7069093B806292F3327442735
:100140005527209396069C01442755272093970610
:10015000272F382F492F552720939806609399060B
:100160000E94BF0680938D06998390939A06809390
:100170009B060E94C4069093900680938F06292FB9
:10018000332727FD3A9520939C0680939D060E9475
:10019000CA069093920680939106292F332727FD54
:1001A0003A9520939E0680939F060E94C7068093EF
:1001B0009306F70191838093A00685E996E06BE0B2
:1001C0000E94E6018093B906F80191839093A106FD
:1001D0008093A2060E94600485E996E06EE00E948A
:1001E00046050E9454040E94FD058CE291E00E94A5
:1001F0002C0C97CF529A5A9882E090E00E942C0CD7
:100200000E948C068CE390E0F9CF0E94CD0682E03C
:1002100090E00E942C0C15E80E94BF06815F9A4076
:1002200018F080E061E002C081E060E040E00E9400
:10023000D406812F8A95F1F780E060E040E00E94CB
:10024000D4068EE190E00E942C0CE6CF8BEB96E07A
:100250009093CF068093CE0684E08093BB061092E5
:10026000BC061092BD061092BE0621E02093BF0688
:100270008AE090E09093C1068093C0061092C30676
:100280001092C2061092C4061092C6061092C506BD
:100290001092C8061092C7061092C9062093CA068B
:1002A0001092CC061092CB061092CD0608952A9A91
:1002B00008952A980895299A08952998089584B14F
:1002C0008C6284B92498229A219A2A9A29980895AE
:1002D000249A85B1837C85B92A9A2998089580E566
:1002E0008CBD81E08DBD08951CBC1DBC08950E948D
:1002F0005F0180E58CBD81E08DBD08951CBC1DBCF7
:100300000E9468010895E091CE06F091CF06118A0F
:10031000108A128A0895E091CE06F091CF06828964
:10032000089590E0E091CE06F091CF06828988236F
:1003300009F491E0892F089581E08A95F1F7E09121
:10034000CE06F091CF06808991890196918B808BA2
:10035000895E934020F0118A108A80E1828B828925
:100360000895982FE091CE06F091CF0682898823D8
:10037000A9F49EBD118A108A128A04C00E949C01B1
:10038000882319F40DB407FEF9CFE091CE06F09161
:10039000CF068289882311F48EB5089580E00895F0
:1003A000362F20E02827392740E061E270E1C901BB
:1003B000880F991F37FF04C09C012627372701C0EB
:1003C0009C014F5F483099F7C90108950F931F931F
:1003D000CF93DF93062FEC0120E030E010E006C061
:1003E000C90169910E94D0019C011F5F1017C0F3E1
:1003F000C901DF91CF911F910F910895FF920F9343
:100400001F93CF93DF93982F142F052FF22EE09197
:10041000CE06F091CF068289882329F52A98662393
:1004200089F4892F80620E94B101812F902F9C0155
:10043000E90110E004C089910E94B1011F5F1F15FE
:10044000D0F310C0892F0E94B101812F902F9C0101
:10045000E90110E005C08FEF0E94B10189931F5F91
:100460001F15C8F32A9ADF91CF911F910F91FF902A
:100470000895E091CE06F091CF068289882339F461
:10048000319681EE60E0AF0120E00E94FE01089508
:10049000AC01E091CE06F091CF068289882329F441
:1004A00080EA60E020E20E94FE010895E091CE061D
:1004B000F091CF068289882311F080E0089511829F
:1004C000319687E161E0AF0121E00E94FE01E091F9
:1004D000CE06F091CF06818190E064E096958795F5
:1004E0006A95E1F7817008951F93E091CE06F0912F
:1004F000CF068289882329F009C0812F8A95F1F7D8
:1005000001C015E80E9456028823B9F31F9108958F
:10051000E091CE06F091CF068289882339F4319696
:1005200082EE60E0AF0120E00E94FE010895AC0180
:10053000E091CE06F091CF068289882329F481E6E6
:1005400061E020E20E94FE010895E091CE06F09164
:10055000CF068289882311F080E0089511823196B8
:1005600087E161E0AF0121E00E94FE01E091CE064B
:10057000F091CF068181809581700895E091CE063B
:10058000F091CF068289882311F080E0089531969A
:1005900080E061E0AF0121E00E94FE01E091CE0623
:1005A000F091CF06818181FF07C080FF02C081E00A
:1005B00001C082E080830895108280E00895E09178
:1005C000CE06F091CF068289882361F4118231969C
:1005D00060E0AF0121E00E94FE01E091CE06F091C3
:1005E000CF0610820895E091CE06F091CF06828961
:1005F000882391F482E781832998319680E060E036
:10060000AF0121E00E94FE010E943902E091CE0676
:10061000F091CF0682E080830895E091CE06F091BC
:10062000CF068289882381F483E78183299A3196D2
:1006300080E060E0AF0121E00E94FE01E091CE0683
:10064000F091CF0681E080830895FF920F931F936E
:10065000F82E162F042FE091CE06F091CF06828956
:10066000882369F531968F2D61E0AF0121E00E946A
:10067000FE01E091CE06F091CF06002351F081E01B
:1006800090E002C0880F991F1A95E2F72181282B6C
:100690000AC081E090E002C0880F991F1A95E2F726
:1006A00080952181282321834091CE065091CF0649
:1006B0004F5F5F4F8F2D60E021E00E94FE011F9190
:1006C0000F91FF900895E091CE06F091CF068289B8
:1006D000882311F080E00895319685E061E0AF0154
:1006E00021E00E94FE01E091CE06F091CF068181CB
:1006F0000895982FE091CE06F091CF068289882345
:1007000061F4892F9E3708F08DE78183319685E06B
:1007100060E0AF0121E00E94FE010895E091CE0665
:10072000F091CF068289882311F080E008953196F8
:1007300086E061E0AF0121E00E94FE01E091CE067B
:10074000F091CF069181969596959695892F8695ED
:10075000827081839170892B8283823011F411829F
:1007600006C0813019F0882311F482E081838181F1
:100770000895982FE091CE06F091CF0682898823C4
:1007800041F5992321F486E065E041E005C0913010
:1007900049F486E065E040E00E94250386E063E0DE
:1007A00040E00AC0923059F486E065E040E00E94E3
:1007B000250386E063E041E00E942503089586E07A
:1007C00065E040E00E94250386E063E041E00E948E
:1007D00025030895E091CE06F091CF068289882303
:1007E00011F080E00895319686E061E0AF0121E0EC
:1007F0000E94FE01E091CE06F091CF0681818695A0
:10080000837081830895982FE091CE06F091CF06F2
:100810008289882371F5992321F486E062E040E023
:100820000BC0913021F486E062E040E010C09230CD
:1008300049F486E062E041E00E94250386E061E041
:1008400040E00AC0933059F486E062E041E00E9443
:10085000250386E061E041E00E942503089586E0DB
:1008600062E041E00E94250386E061E041E00E94F1
:1008700025030895E091CE06F091CF068383089575
:10088000E091CE06F091CF0684830895E091CE06E4
:10089000F091CF06968385830895E091CE06F0917E
:1008A000CF06938782870895E091CE06F091CF0618
:1008B0008081882321F00E94DF020E947E0108953A
:1008C000E091CE06F091CF068081882321F40E942A
:1008D00077010E940D0308950F931F930E94260134
:1008E0000E947701E091CE06F091CF0611823196F9
:1008F00080E060E0AF0121E00E94FE01E091CE06C1
:10090000F091CF061182319681E060E0AF0121E0E5
:100910000E94FE01E091CE06F091CF0683E0818334
:10092000319682E060E0AF0121E00E94FE01E0919B
:10093000CE06F091CF0681E08183319683E060E0BE
:10094000AF0121E00E94FE01E091CE06F091CF06BA
:100950001182319684E060E0AF0121E00E94FE0147
:10096000E091CE06F091CF0682E08183319685E05A
:1009700060E0AF0121E00E94FE01E091CE06F0911F
:10098000CF0686E28183319686E060E0AF0121E008
:100990000E94FE01E091CE06F091CF0680E78183B0
:1009A000319687E060E0AF0121E00E94FE01E09116
:1009B000CE06F091CF0610E21183319681E160E01E
:1009C000AF0121E00E94FE01E091CE06F091CF063A
:1009D0001183319682E160E0AF0121E00E94FE01C7
:1009E000E091CE06F091CF06118231968CE160E065
:1009F000AF0121E00E94FE01E091CE06F091CF060A
:100A0000118231968DE160E0AF0121E00E94FE018C
:100A100000E011E080E160E0A80125E00E94FE0115
:100A20008AE060E0A80125E00E94FE018BE060E022
:100A300046E051E025E00E94FE018CE060E04CE0E1
:100A400051E025E00E94FE018DE060E042E151E0CE
:100A500025E00E94FE018EE060E048E151E025E0E3
:100A60000E94FE018FE060E04EE151E025E00E942F
:100A7000FE01E091CE06F091CF0680E290E09683F1
:100A800085830E9454041F910F910895FF920F9344
:100A90001F938C01F62EE091CE06F091CF06118ABD
:100AA000108A128A0E94F302E091CE06F091CF06DE
:100AB0008381F801838FE091CE06F091CF06848187
:100AC000F801848FF58EC8016EE10E94E601F801FD
:100AD000968F878FC8010E944802299A0E9474024B
:100AE00029981F910F91FF900895DF92EF92FF9246
:100AF0000F931F93CF93DF937C01E091CE06F0918B
:100B0000CF06118A108A128A108617820E940D035E
:100B100075E8D72E23C00E94A502882399F0C7014B
:100B20000E949702F701D68DC0E0078D10E00C2BD4
:100B30001D2BC7016EE10E94E6010817190711F489
:100B400081E018C08D2D8A95F1F7E091CE06F091E5
:100B5000CF0687819085019690878783E091CE06A6
:100B6000F091CF0627813085858196812817390736
:100B700090F280E0DF91CF911F910F91FF90EF9065
:100B8000DF900895CF93DF93EC01E091CE06F091D2
:100B9000CF068785882319F081E08A8F01C01A8EDD
:100BA000CE010E944605CE010E947505811181E0AB
:100BB000DF91CF910895CF93DF93EC010E947505EB
:100BC0008823B9F08A8D8130A1F4E091CE06F091AE
:100BD000CF0693818C8D981761F484EF91E0019793
:100BE000F1F78B8D8483CE0162E00E94460581E09F
:100BF00001C080E0DF91CF910895E091CE06F091A1
:100C0000CF068289882339F0118A108A128A0E94BD
:100C10007E010E946C04089580917A0087FD1CC0BB
:100C20008FEC80937C0086E080937A0080917A003C
:100C3000806C80937A0090E02DE00AC09F5F822F45
:100C40008A95F1F7993C21F481E080933101089570
:100C500080917A0084FFF2CF0895DF92EF92FF92A5
:100C60000F931F93182FD62E0E940C0680913101EE
:100C7000882309F040C080917C00807F812B809385
:100C80007C0084EF91E00197F1F7EE24FF248701C7
:100C900020E030E04DE01EC080917A0080648093B7
:100CA0007A0090E008C09F5F842F8A95F1F7993C05
:100CB00011F431E004C080917A0084FFF4CF809178
:100CC000780090917900A0E0B0E0E80EF91E0A1FCC
:100CD0001B1F2F5F2D1500F3309331012D2D30E0B8
:100CE00040E050E0C801B7010E948F0EC901DA014F
:100CF0009C01AD010AC080933201109231010E9423
:100D00000C0620E030E040E050E0C9011F910F9157
:100D1000FF90EF90DF90089580912401816080938F
:100D200024015A9A86E064E00E942D0690932601E1
:100D3000809325015A98A0E0B0E0BC01CD012CE3DE
:100D40003AE540E050E00E94700E2AE096958795C3
:100D5000779567952A95D1F76093270170932801BD
:100D60008093290190932A01809124018E7F8093A2
:100D70002401089580912501909126010895809184
:100D8000270190912801089580E090E008950E9445
:100D9000600908950E945B090895559A569A569ADB
:100DA0005D9A5E9A5F9A0895813011F45D9801C052
:100DB0005D9A613011F45E9801C05E9A413011F481
:100DC0005F9808955F9A08951092D8061092DC06F5
:100DD0001092DE061092DD061092E0061092DF06F9
:100DE0001092E2061092E1061092E3061092E406D9
:100DF0001092E5061092D0061092D1061092D206FB
:100E00001092D3061092D4061092D5061092D606F0
:100E10001092D70608950E94E4065B9A539A45986B
:100E20003D9844983C980895813021F43D988093F2
:100E3000DA060895882319F43D9A1092DA06089587
:100E4000813021F43C988093DB060895882319F4BF
:100E50003C9A1092DB0608953C9B04C03C9886E0C7
:100E60008A95F1F786B190E024E0969587952A95CA
:100E7000E1F7817008953D9B02C080E0089587B13D
:100E800082958F708095817008951F938091E406FC
:100E90008823C1F481E00E94140716E0812F8A950F
:100EA000F1F781E00E942007812F8A95F1F780E019
:100EB0000E942007812F8A95F1F780E00E94140795
:100EC0001A95F1F71F9108951F938091E4068823E6
:100ED000D9F43D9905C00E94140782E08A95F1F784
:100EE0003C9906C080E00E94200782E08A95F1F7D5
:100EF00081E00E94140716E0812F8A95F1F781E0C6
:100F00000E9420071A95F1F71F9108951F93809171
:100F1000E4068823D9F00E943B078823B9F40E9495
:100F2000140712E0812F8A95F1F780E00E942007D4
:100F30001A95F1F781E00E94140716E0812F8A9537
:100F4000F1F781E00E9420071A95F1F71F910895AB
:100F5000FF920F931F93082F8091E4068823F1F4EA
:100F600010E036E0F32E07FF02C081E001C080E010
:100F70000E9420078F2D8A95F1F781E00E941407C7
:100F80008F2D8A95F1F780E00E9414078F2D8A95A6
:100F9000F1F71F5F183011F0000FE5CF1F910F918F
:100FA000FF900895FF920F931F938091E40688238A
:100FB00011F010E01FC081E00E94200786E08A95B2
:100FC000F1F710E000E046E0F42E110F0E942C072C
:100FD000813009F4116081E00E9414078F2D8A95F9
:100FE000F1F780E00E9414078F2D8A95F1F70F5FCB
:100FF000083059F7812F1F910F91FF9008951F938B
:101000008091E4068823F9F481E00E94200712E031
:10101000812F8A95F1F781E00E9414071A95F1F764
:101020000E942C07882321F481E08093D90602C016
:101030001092D90612E0812F8A95F1F780E00E9484
:1010400014071A95F1F71F9108951F938091E406F4
:101050008823A1F40E94200712E0812F8A95F1F7DE
:1010600081E00E941407812F8A95F1F7812F8A95DC
:10107000F1F780E00E9414071A95F1F71F91089587
:101080000F931F93082F10E00E944507802F0E94A6
:10109000A8070E94FF078091D906882311F081E0FC
:1010A00009C00E9464071F5F1F3171F781E08093C0
:1010B000E40680E01F910F910895FF920F931F9314
:1010C000182F80E80E94400882E00E94A8070E9432
:1010D000FF07F090D906812F0E94A8070E94FF0702
:1010E0000091D90680E00E94A8070E94FF07109196
:1010F000D9060E9464078091E406882351F4000F0A
:10110000110F110F102B1F29173019F085E0809354
:10111000E4061F910F91FF900895EF92FF920F93B5
:101120001F935B9880E29EE40197F1F71092E4062A
:1011300080E00E945D080E94450780E80E94A807A1
:101140000E94FF070091D90680E00E94A8070E9434
:10115000FF071091D9060E9464078091E406882356
:1011600039F4110F102B133019F086E08093E40648
:1011700080E797E10197F1F781E80E9440080E941B
:10118000D207E82E0E9425080E94D207F82E0E945E
:10119000FF070E9464070E94450780E80E94A80795
:1011A0000E94FF070091D90681E00E94A8070E94D3
:1011B000FF071091D9060E9464078091E4068823F6
:1011C00039F4110F102B133019F087E08093E406E7
:1011D00080E797E10197F1F781E80E9440080E94BB
:1011E000D207082F0E9425080E94D207182F0E94BC
:1011F000FF070E9464070E9486075B9A8091E406BD
:10120000882309F043C06E2D70E080E090E0982FB5
:10121000872F762F66272F2D30E040E050E0622B9D
:10122000732B842B952B22E736E040E050E00E94A0
:10123000700E2FEF3FEF40E050E00E948F0E2059DC
:1012400031403093E0062093DF06602F70E080E0AD
:1012500090E0982F872F762F6627212F30E040E0EF
:1012600050E0622B732B842B952B24E630E040E07A
:1012700050E00E94700E2FEF3FEF40E050E00E94E0
:101280008F0E3093E2062093E10604C08093E506BA
:101290001092E4061F910F91FF90EF9008958091B6
:1012A000DC0608958091D80608958091E40608959B
:1012B0008091E50608958091DF069091E0060895FB
:1012C0008091E1069091E20608958091D406909174
:1012D000D5060895209153002E7F209353000F923E
:1012E0000FB60F921F9211242F923F924F925F924E
:1012F0006F927F928F929F92AF92BF92CF92DF9226
:10130000EF92FF920F931F932F933F934F935F930F
:101310006F937F938F939F93AF93BF93CF93DF93FD
:10132000EF93FF93E3E4F1E020913A01220FE20F03
:1013300020E0F21F2DB73EB72083318321E03091AA
:101340003301320F3093330120E030913401321FEA
:101350003093340130913501321F30933501309193
:101360003601321F3093360130913701321F3093EE
:10137000370180E02FEF20933C0120E020933D01D6
:10138000582F20933A01852FE9E7F1E020913A01A7
:10139000220FE20F20E0F21F20813181422F432BE8
:1013A00059F0813099F041E0241B40E0340B208358
:1013B0003183422F432B51F4E5E6F1E020913A01CD
:1013C000E20F20E0F21F81E0808308C0E5E6F1E053
:1013D00020913A01E20F20E0F21F8081813019F064
:1013E000843009F012C0EFE6F1E020E080913A018C
:1013F000E80FF21F808120913C01821730F4809326
:101400003C0120913A0120933D0120913A0123951E
:1014100030913B01231708F4B4CF20913D01209374
:101420003A0120913A01222329F020913F0123958E
:1014300020933F0120913E012395243640F020E087
:1014400030913F013093400130E030933F012093D1
:101450003E01E3E4F1E020913A01220FE20F20E0A7
:10146000F21F208131812DBF3EBFFF91EF91DF91AF
:10147000CF91BF91AF919F918F917F916F915F912C
:101480004F913F912F911F910F91FF90EF90DF901F
:10149000CF90BF90AF909F908F907F906F905F9014
:1014A0004F903F902F901F900F900FBE0F90189568
:1014B000F894A0915701B09158012DB73EB72D93E4
:1014C0003D93ED93FD93A0935701B093580120E015
:1014D000209333012093340120933501209336016A
:1014E00020933701209338012093390120933A014A
:1014F00020933B0120933C0120933D0120933E012A
:1015000020933F012093400120E02093700020E0D1
:101510002093B10020E02093B60020E02093B40097
:101520002093B2008093380160933901A091570154
:10153000B0915801FE91EE913E912E912DBF3EBF8C
:10154000A0935701B09358010895A0915701B0910D
:1015500058012DB73EB72D933D93ED93FD93A09386
:101560005701B0935801EFE6F1E020913A01E20F04
:1015700020E0F21F6083E5E6F1E020913A01E20FFE
:1015800020E0F21F21E0208320913A01239530E8EA
:10159000239FE02DF12D319711242DE831E0E20F4A
:1015A000F31FEDBFFEBF8F939F930F920FB60F9265
:1015B0001F9211242F923F924F925F926F927F92CF
:1015C0008F929F92AF92BF92CF92DF92EF92FF9253
:1015D0000F931F932F933F934F935F936F937F933B
:1015E0008F939F93AF93BF93CF93DF93EF93FF932B
:1015F0002DB73EB740913A01440FE3E4F1E0E40F28
:1016000040E0F41F2193308320913A0123952093E9
:101610003A0120913B01239520933B01A091570172
:10162000B0915801FE91EE913E912E912DBF3EBF9B
:10163000A0935701B0935801089581E02FEF2093B4
:101640003C0120E020933D01582F20933A01852F43
:10165000E9E7F1E020913A01220FE20F20E0F21FCA
:1016600020813181422F432B59F0813099F041E0A4
:10167000241B40E0340B20833183422F432B51F451
:10168000E5E6F1E020913A01E20F20E0F21F81E06F
:10169000808308C0E5E6F1E020913A01E20F20E006
:1016A000F21F8081813019F0843009F012C0EFE61A
:1016B000F1E020E080913A01E80FF21F8081209153
:1016C0003C01821730F480933C0120913A01209331
:1016D0003D0120913A01239530913B01231708F4F5
:1016E000B4CF20913D0120933A01E3E4F1E0209151
:1016F0003A01220FE20F20E0F21F208131812DBF3D
:101700003EBFFF91EF91DF91CF91BF91AF919F913C
:101710008F917F916F915F914F913F912F911F9189
:101720000F91FF90EF90DF90CF90BF90AF909F9080
:101730008F907F906F905F904F903F902F901F9071
:101740000F900FBE0F90789420E02093700020E25D
:101750002093B60020E836E02093B30020E02093E9
:10176000B40022E02093B0003093B10020E0209339
:10177000B2002091B6002270E1F72091B6002170EE
:10178000E1F72091B6002870E1F72091B6002470AF
:10179000E1F72091B6002071E1F720913700217028
:1017A00019F021E02093370020913700227019F0C2
:1017B00022E02093370020913700247019F024E0B4
:1017C0002093370022E0209370000895112429E52A
:1017D00031E02093570130935801A0915701B09107
:1017E00058012DB73EB72D933D93ED93FD93A093F4
:1017F0005701B093580184E06DE70E94580A8AE2CD
:1018000098E1969587956FEF0E94A50AA0915701E0
:10181000B0915801FE91EE913E912E912DBF3EBFA9
:10182000A0935701B0935801089526E020935300E8
:101830002093410120917A002F7720937A00209104
:101840005000206820935000209153002160209385
:10185000530088950C941A0C0F920FB6F8940F92BF
:101860001F9211242F923F924F925F926F927F921C
:101870008F929F92AF92BF92CF92DF92EF92FF92A0
:101880000F931F932F933F934F935F936F937F9388
:101890008F939F93AF93BF93CF93DF93EF93FF9378
:1018A000E3E4F1E020913A01220FE20F20E0F21F81
:1018B0002DB73EB720833183E9E7F1E020913A016B
:1018C000220FE20F20E0F21F80839183E5E6F1E032
:1018D00020913A01E20F20E0F21F20E0208381E016
:1018E0002FEF20933C0120E020933D01582F2093BF
:1018F0003A01852FE9E7F1E020913A01220FE20F4A
:1019000020E0F21F20813181422F432B59F081309A
:1019100099F041E0241B40E0340B20833183422FB7
:10192000432B51F4E5E6F1E020913A01E20F20E08B
:10193000F21F81E0808308C0E5E6F1E020913A01E2
:10194000E20F20E0F21F8081813019F0843009F02D
:1019500012C0EFE6F1E020E080913A01E80FF21FBB
:10196000808120913C01821730F480933C012091CA
:101970003A0120933D0120913A01239530913B019A
:10198000231708F4B4CF20913D0120933A01E3E4FA
:10199000F1E020913A01220FE20F20E0F21F2081B6
:1019A00031812DBF3EBFFF91EF91DF91CF91BF916C
:1019B000AF919F918F917F916F915F914F913F91E7
:1019C0002F911F910F91FF90EF90DF90CF90BF90DC
:1019D000AF909F908F907F906F905F904F903F90CF
:1019E0002F901F900F900FBE0F9078940895F89449
:1019F000E9E7F1E020913A01220FE20F20E0F21F27
:101A000080839183E5E6F1E020913A01E20F20E046
:101A1000F21F24E02083789408950F920FB6F89473
:101A20000F921F9211242F923F924F925F926F92CA
:101A30007F928F929F92AF92BF92CF92DF92EF925E
:101A4000FF920F931F932F933F934F935F936F9347
:101A50007F938F939F93AF93BF93CF93DF93EF9336
:101A6000FF93E3E4F1E020913A01220FE20F20E03E
:101A7000F21F2DB73EB720833183E5E6F1E02091D8
:101A80003A01E20F20E0F21F20E0208381E02FEFF7
:101A900020933C0120E020933D01582F20933A01F0
:101AA000852FE9E7F1E020913A01220FE20F20E0D3
:101AB000F21F20813181422F432B59F0813099F060
:101AC00041E0241B40E0340B20833183422F432B21
:101AD00051F4E5E6F1E020913A01E20F20E0F21F37
:101AE00081E0808308C0E5E6F1E020913A01E20F51
:101AF00020E0F21F8081813019F0843009F012C09B
:101B0000EFE6F1E020E080913A01E80FF21F8081DA
:101B100020913C01821730F480933C0120913A01DE
:101B200020933D0120913A01239530913B012317E9
:101B300008F4B4CF20913D0120933A01E3E4F1E0B1
:101B400020913A01220FE20F20E0F21F2081318123
:101B50002DBF3EBFFF91EF91DF91CF91BF91AF912C
:101B60009F918F917F916F915F914F913F912F91B5
:101B70001F910F91FF90EF90DF90CF90BF90AF90AB
:101B80009F908F907F906F905F904F903F902F909D
:101B90001F900F900FBE0F9078940895FC01099547
:101BA000089520915F00F89430E8309361008093AD
:101BB000610020935F000895282F220FE9E7F1E0EC
:101BC000E20F20E0F21F808191810895282FE5E641
:101BD000F1E0E20F20E0F21F8081089580913B0147
:101BE0000895282FEFE6F1E0E20F20E0F21F808158
:101BF000089580913C01089580913D018A95089552
:101C000080913D0108958091400108952FB7F89487
:101C100060913301709134018091350190913601CA
:101C20002FBF089522E02093C000292F2093C500E4
:101C3000282F2093C40026E02093C20028E02093A0
:101C4000C10008952F938093C6002091C00025FF06
:101C5000FCCF2F9108958F93892F0E94220E8F9190
:101C60000E94220E08952F938093C6002091C000F9
:101C700026FFFCCF2091C00020642093C0002F914C
:101C800008950E94330E8F93892F0E94330E8F91F7
:101C9000089580934A00862F0E94330E872F0E945A
:101CA000330E80914A000E94330E80934A00892FA0
:101CB0000E94330E80914A0008950E2F1F2F282F67
:101CC000E82FF92F80810E94330EE02FF12F822F11
:101CD00008950E945D0E815090406150D1F70895A3
:101CE000629FD001739FF001829FE00DF11D649F00
:101CF000E00DF11D929FF00D839FF00D749FF00D8C
:101D0000659FF00D9927729FB00DE11DF91F639F2C
:101D1000B00DE11DF91FBD01CF0111240895A1E20D
:101D20001A2EAA1BBB1BFD010DC0AA1FBB1FEE1F55
:101D3000FF1FA217B307E407F50720F0A21BB30BA0
:101D4000E40BF50B661F771F881F991F1A9469F71C
:101D500060957095809590959B01AC01BD01CF0178
:061D60000895F894FFCF86
:101D660041434B30300050495045310050495045B1
:101D760032005049504533005049504534005049CF
:041D8600504535008F
:00000001FF
