:100000000C9445000C9462000C9462000C94620005
:100010000C9462000C9462000C9462000C9406062E
:100020000C9462000C94F7060C9462000C9462002D
:100030000C9462000C9462000C9462000C946200B8
:100040000C9462000C9462000C9462000C946200A8
:100050000C9462000C9462000C9462000C94620098
:100060000C9462000C94620000000000000000008C
:100070000000000027C0CAC525C0B9C600000000A6
:1000800000000000000000001DC011241FBECFEFC3
:10009000D8E0DEBFCDBF11E0A0E0B1E0E4E5F7E1DC
:1000A00002C005900D92A432B107D9F716E0A4E280
:1000B000B1E001C01D92AC39B107E1F70E946400C4
:1000C0000C94A80B0C9400000E94720989EA90E03D
:1000D00060E00E94300882EA90E061E00E9430080F
:1000E0008DEB90E062E00E9430088BE990E063E0E5
:1000F0000E94300881E890E00E94590B0E94A808F5
:10010000FFCF089586E490E00E94B709FBCF86E414
:1001100090E00E94B709FBCF86E490E00E94B70907
:10012000FBCF86E490E00E94B709FBCF86E490E025
:100130000E94B709FBCF539A5B9A8EE190E00E9430
:10014000B709FBCF529A5A988CE390E00E94B70906
:10015000FBCFCF93DF938AB1806E8AB98BB1806E6B
:100160008BB9C0EADFE05E98CE010197F1F75E9AA5
:100170008EE190E00E94B709F6CF0E9410040E9421
:1001800015010E9409018EE190E00E94B709FBCFA2
:1001900087E896E090939B0680939A0610928706D4
:1001A000109288061092890610928A0621E0209308
:1001B0008B068AE090E090938D0680938C061092D7
:1001C0008F0610928E061092900610929206109250
:1001D0009106109294061092930610929506209321
:1001E0009606109298061092970610929906089516
:1001F0002A9A08952A980895299A08952998089581
:1002000084B18C6284B92498229A219A2A9A2998D6
:100210000895249A85B1837C85B92A9A29980895EE
:1002200080E58CBD81E08DBD08951CBC1DBC08958A
:100230000E94000180E58CBD81E08DBD08951CBC4D
:100240001DBC0E9409010895E0919A06F0919B0659
:10025000118A108A128A0895E0919A06F0919B06FD
:100260008289089590E0E0919A06F0919B06828938
:10027000882309F491E0892F089582E08A95F1F7A7
:10028000E0919A06F0919B06808991890196918B65
:10029000808B895E934020F0118A108A80E1828BE6
:1002A00082890895982FE0919A06F0919B068289A1
:1002B0008823A9F49EBD118A108A128A04C00E9464
:1002C0003D01882319F40DB407FEF9CFE0919A0699
:1002D000F0919B068289882311F48EB5089580E001
:1002E0000895362F20E02827392740E061E270E1A9
:1002F000C901880F991F37FF04C09C0126273727A3
:1003000001C09C014F5F483099F7C90108950F93D0
:100310001F93CF93DF93062FEC0120E030E010E035
:1003200006C0C90169910E9471019C011F5F1017ED
:10033000C0F3C901DF91CF911F910F910895FF92F2
:100340000F931F93CF93DF93982F142F052FF22E27
:10035000E0919A06F0919B068289882329F52A98D4
:10036000662389F4892F80620E945201812F902F89
:100370009C01E90110E004C089910E9452011F5FB5
:100380001F15D0F310C0892F0E945201812F902F8A
:100390009C01E90110E005C08FEF0E945201899392
:1003A0001F5F1F15C8F32A9ADF91CF911F910F91FC
:1003B000FF900895E0919A06F0919B068289882328
:1003C00039F4319681EE60E0AF0120E00E949F0198
:1003D0000895AC01E0919A06F0919B0682898823EA
:1003E00029F480EA60E020E20E949F010895E091F4
:1003F0009A06F0919B068289882311F080E0089587
:100400001182319687E161E0AF0121E00E949F01F6
:10041000E0919A06F0919B06818190E064E09695C8
:1004200087956A95E1F781700895CF93DF93E09106
:100430009A06F0919B068289882329F00AC0CE0192
:100440000197F1F702C0C8ECD0E00E94F7018823C1
:10045000B1F3DF91CF910895E0919A06F0919B0658
:100460008289882339F4319682EE60E0AF0120E082
:100470000E949F010895AC01E0919A06F0919B06BD
:100480008289882329F481E661E020E20E949F01AD
:100490000895E0919A06F0919B068289882311F0D5
:1004A00080E008951182319687E161E0AF0121E09B
:1004B0000E949F01E0919A06F0919B0681818095B0
:1004C00081700895E0919A06F0919B0682898823B5
:1004D00011F080E00895319680E061E0AF0121E005
:1004E0000E949F01E0919A06F0919B06818181FF15
:1004F00007C080FF02C081E001C082E080830895D0
:10050000108280E00895E0919A06F0919B0682891E
:10051000882361F41182319660E0AF0121E00E94EE
:100520009F01E0919A06F0919B0610820895E09158
:100530009A06F0919B068289882391F482E7818351
:100540002998319680E060E0AF0121E00E949F0190
:100550000E94DA01E0919A06F0919B0682E0808386
:100560000895E0919A06F0919B068289882381F490
:1005700083E78183299A319680E060E0AF0121E032
:100580000E949F01E0919A06F0919B0681E0808392
:100590000895FF920F931F93F82E162F042FE091CA
:1005A0009A06F0919B068289882369F531968F2DF2
:1005B00061E0AF0121E00E949F01E0919A06F09175
:1005C0009B06002351F081E090E002C0880F991F44
:1005D0001A95E2F72181282B0AC081E090E002C041
:1005E000880F991F1A95E2F780952181282321838E
:1005F00040919A0650919B064F5F5F4F8F2D60E0B0
:1006000021E00E949F011F910F91FF900895E091BA
:100610009A06F0919B068289882311F080E0089564
:10062000319685E061E0AF0121E00E949F01E091F9
:100630009A06F0919B0681810895982FE0919A0681
:10064000F0919B068289882361F4892F9E3708F0F8
:100650008DE78183319685E060E0AF0121E00E9463
:100660009F010895E0919A06F0919B068289882364
:1006700011F080E00895319686E061E0AF0121E05D
:100680000E949F01E0919A06F0919B0691819695B8
:1006900096959695892F8695827081839170892B86
:1006A0008283823011F4118206C0813019F08823D0
:1006B00011F482E0818381810895982FE0919A0658
:1006C000F0919B068289882341F5992321F486E0E5
:1006D00065E041E005C0913049F486E065E040E026
:1006E0000E94C90286E063E040E00AC0923059F4FB
:1006F00086E065E040E00E94C90286E063E041E0F8
:100700000E94C902089586E065E040E00E94C902A7
:1007100086E063E041E00E94C9020895E0919A06F4
:10072000F0919B068289882311F080E0089531962C
:1007300086E061E0AF0121E00E949F01E0919A060E
:10074000F0919B0681818695837081830895982F0F
:10075000E0919A06F0919B068289882371F599238E
:1007600021F486E062E040E00BC0913021F486E0A5
:1007700062E040E010C0923049F486E062E041E07F
:100780000E94C90286E061E040E00AC0933059F45B
:1007900086E062E041E00E94C90286E061E041E05B
:1007A0000E94C902089586E062E041E00E94C90209
:1007B00086E061E041E00E94C9020895E0919A0656
:1007C000F0919B0683830895E0919A06F0919B0631
:1007D00084830895E0919A06F0919B069683858321
:1007E0000895E0919A06F0919B0693878287089579
:1007F000E0919A06F0919B068081882321F00E9467
:1008000083020E941F010895E0919A06F0919B06D1
:100810008081882321F40E9418010E94B10208956A
:100820000F931F930E94C8000E941801E0919A063E
:10083000F0919B061182319680E060E0AF0121E0EB
:100840000E949F01E0919A06F0919B0611823196D9
:1008500081E060E0AF0121E00E949F01E0919A06F3
:10086000F0919B0683E08183319682E060E0AF01E6
:1008700021E00E949F01E0919A06F0919B0681E0A1
:100880008183319683E060E0AF0121E00E949F0107
:10089000E0919A06F0919B061182319684E060E027
:1008A000AF0121E00E949F01E0919A06F0919B0622
:1008B00082E08183319685E060E0AF0121E00E9413
:1008C0009F01E0919A06F0919B0686E28183319622
:1008D00086E060E0AF0121E00E949F01E0919A066E
:1008E000F0919B0680E78183319687E060E0AF015D
:1008F00021E00E949F01E0919A06F0919B0610E290
:100900001183319681E160E0AF0121E00E949F01F7
:10091000E0919A06F0919B061183319682E160E0A6
:10092000AF0121E00E949F01E0919A06F0919B06A1
:10093000118231968CE160E0AF0121E00E949F01BD
:10094000E0919A06F0919B06118231968DE160E06C
:10095000AF0121E00E949F0100E011E080E160E032
:10096000A80125E00E949F018AE060E0A80125E03F
:100970000E949F018BE060E046E051E025E00E948C
:100980009F018CE060E04CE051E025E00E949F0177
:100990008DE060E042E151E025E00E949F018EE0A1
:1009A00060E048E151E025E00E949F018FE060E0B7
:1009B0004EE151E025E00E949F01E0919A06F091FE
:1009C0009B0680E290E0968385830E9483021F91BC
:1009D0000F910895FF920F931F938C01F62EE091D3
:1009E0009A06F0919B06118A108A128A0E94970239
:1009F000E0919A06F0919B068381F801838FE09144
:100A00009A06F0919B068481F801848FF58EC801C7
:100A10006EE10E948701F801968F878FC8010E94BE
:100A2000E901299A0E94150229981F910F91FF90C0
:100A30000895CF92DF92EF92FF920F931F93CF937F
:100A4000DF937C01E0919A06F0919B06118A108A4F
:100A5000128A108617820E94B10278ECC72ED12C20
:100A600023C00E944902882399F0C7010E943B02DB
:100A7000F701D68DC0E0078D10E00C2B1D2BC701B0
:100A80006EE10E9487010817190711F481E018C070
:100A9000C6010197F1F7E0919A06F0919B068781D4
:100AA0009085019690878783E0919A06F0919B0646
:100AB00027813085858196812817390790F280E05B
:100AC000DF91CF911F910F91FF90EF90DF90CF902A
:100AD0000895CF93DF93EC01E0919A06F0919B0685
:100AE0008785882319F081E08A8F01C01A8ECE0194
:100AF0000E94EA04CE010E941905811181E0DF9174
:100B0000CF910895CF93DF93EC010E9419058823BC
:100B1000B9F08A8D8130A1F4E0919A06F0919B069C
:100B200093818C8D981761F488EE93E00197F1F72B
:100B30008B8D8483CE0162E00E94EA0481E001C0D3
:100B400080E0DF91CF91089580917A0087FD0FC0FA
:100B50008FEC80937C0086E080937A0080917A000D
:100B6000806C80937A0080917A0084FFFCCF089596
:100B7000DF92EF92FF920F931F93182FD62E0E94B1
:100B8000A40580917C00807F812B80937C00EE24E3
:100B9000FF24870120E014C080917A008064809354
:100BA0007A0080917A0084FFFCCF80917800909148
:100BB0007900A0E0B0E0E80EF91E0A1F1B1F2F5FAE
:100BC0002D1550F32D2D30E040E050E0C801B70165
:100BD0000E94860BC9011F910F91FF90EF90DF904B
:100BE0000895809124018160809324015A9A86E0BF
:100BF00064E00E94B80590932601809325015A9ADB
:100C0000809124018E7F80932401089520915300C8
:100C10002E7F209353000F920FB60F921F92112434
:100C20002F923F924F925F926F927F928F929F92FC
:100C3000AF92BF92CF92DF92EF92FF920F931F93EA
:100C40002F933F934F935F936F937F938F939F93D4
:100C5000AF93BF93CF93DF93EF93FF93EDE3F1E077
:100C600020913401220FE20F20E0F21F2DB73EB792
:100C700020833183209133012093460020912D0160
:100C8000239520932D0130E020912E01231F2093E6
:100C90002E0120912F01231F20932F01209130013D
:100CA000231F2093300120913101231F2093310114
:100CB00080E02FEF2093360120E020933701582F5A
:100CC00020933401852FE3E7F1E020913401220FD6
:100CD000E20F20E0F21F20813181422F432B59F097
:100CE000813099F041E0241B40E0340B20833183B4
:100CF000422F432B51F4EFE5F1E020913401E20F54
:100D000020E0F21F81E0808308C0EFE5F1E0209150
:100D10003401E20F20E0F21F8081813019F084302D
:100D200009F012C0E9E6F1E020E080913401E80F1B
:100D3000F21F808120913601821730F480933601B2
:100D40002091340120933701209134012395309173
:100D50003501231708F4B4CF2091370120933401D3
:100D600020913401222329F02091390123952093E9
:100D70003901209138012395243640F020E030914C
:100D8000390130933A0130E0309339012093380132
:100D9000EDE3F1E020913401220FE20F20E0F21F99
:100DA000208131812DBF3EBFFF91EF91DF91CF9127
:100DB000BF91AF919F918F917F916F915F914F9173
:100DC0003F912F911F910F91FF90EF90DF90CF9067
:100DD000BF90AF909F908F907F906F905F904F905B
:100DE0003F902F901F900F900FBE0F90189520915D
:100DF00053002E7F209353000F920FB60F921F9235
:100E000011242F923F924F925F926F927F928F9216
:100E10009F92AF92BF92CF92DF92EF92FF920F9389
:100E20001F932F933F934F935F936F937F938F9372
:100E30009F93AF93BF93CF93DF93EF93FF93EDE334
:100E4000F1E020913401220FE20F20E0F21F2DB7D4
:100E50003EB72083318320913301209346002091B7
:100E60002D01239520932D0130E020912E01231F89
:100E700020932E0120912F01231F20932F012091D9
:100E80003001231F2093300120913101231F209333
:100E9000310180E02FEF2093360120E020933701CD
:100EA000582F20933401852FE3E7F1E0209134019E
:100EB000220FE20F20E0F21F20813181422F432BCD
:100EC00059F0813099F041E0241B40E0340B20833D
:100ED0003183422F432B51F4EFE5F1E020913401AF
:100EE000E20F20E0F21F81E0808308C0EFE5F1E02F
:100EF00020913401E20F20E0F21F8081813019F04F
:100F0000843009F012C0E9E6F1E020E0809134017C
:100F1000E80FF21F808120913601821730F4809310
:100F2000360120913401209337012091340123951B
:100F300030913501231708F4B4CF20913701209365
:100F4000340120913401222329F020913901239585
:100F500020933901209138012395243640F020E078
:100F60003091390130933A0130E0309339012093C8
:100F70003801EDE3F1E020913401220FE20F20E08F
:100F8000F21F208131812DBF3EBFFF91EF91DF9194
:100F9000CF91BF91AF919F918F917F916F915F9111
:100FA0004F913F912F911F910F91FF90EF90DF9004
:100FB000CF90BF90AF909F908F907F906F905F90F9
:100FC0004F903F902F901F900F900FBE0F9018954D
:100FD000F894A0915101B09152012DB73EB72D93D5
:100FE0003D93ED93FD93A0935101B093520120E006
:100FF00020932D0120932E0120932F012093300167
:101000002093310120933201209333012093340146
:101010002093350120933601209337012093380126
:101020002093390120933A0120E02093700020E0C2
:101030002093B10020E02093B600809332016093AA
:101040003301A0915101B0915201FE91EE913E9178
:101050002E912DBF3EBFA0935101B0935201089530
:10106000A0915101B09152012DB73EB72D933D9300
:10107000ED93FD93A0935101B0935201E9E6F1E0A5
:1010800020913401E20F20E0F21F6083EFE5F1E0F0
:1010900020913401E20F20E0F21F21E02083209113
:1010A0003401239530E8239FE02DF12D3197112451
:1010B00027E831E0E20FF31FEDBFFEBF8F939F9350
:1010C0000F920FB60F921F9211242F923F924F92C0
:1010D0005F926F927F928F929F92AF92BF92CF92C8
:1010E000DF92EF92FF920F931F932F933F934F93B3
:1010F0005F936F937F938F939F93AF93BF93CF93A0
:10110000DF93EF93FF932DB73EB740913401440F27
:10111000EDE3F1E0E40F40E0F41F219330832091F0
:101120003401239520933401209135012395209398
:101130003501A0915101B0915201FE91EE913E9185
:101140002E912DBF3EBFA0935101B093520108953F
:1011500081E02FEF2093360120E020933701582FB4
:1011600020933401852FE3E7F1E020913401220F31
:10117000E20F20E0F21F20813181422F432B59F0F2
:10118000813099F041E0241B40E0340B208331830F
:10119000422F432B51F4EFE5F1E020913401E20FAF
:1011A00020E0F21F81E0808308C0EFE5F1E02091AC
:1011B0003401E20F20E0F21F8081813019F0843089
:1011C00009F012C0E9E6F1E020E080913401E80F77
:1011D000F21F808120913601821730F4809336010E
:1011E00020913401209337012091340123953091CF
:1011F0003501231708F4B4CF20913701209334012F
:10120000EDE3F1E020913401220FE20F20E0F21F24
:10121000208131812DBF3EBFFF91EF91DF91CF91B2
:10122000BF91AF919F918F917F916F915F914F91FE
:101230003F912F911F910F91FF90EF90DF90CF90F2
:10124000BF90AF909F908F907F906F905F904F90E6
:101250003F902F901F900F900FBE0F90789420E03A
:101260002093700020E22093B60026E62093B3007E
:1012700020E02093B40022E02093B00023E02093EC
:10128000B10020E02093B2002091B6002270E1F777
:101290002091B6002170E1F72091B6002870E1F7A7
:1012A0002091B6002470E1F72091B6002071E1F79B
:1012B00020913700217019F021E020933700209110
:1012C0003700227019F022E0209337002091370078
:1012D000247019F024E02093370022E0209370005E
:1012E00078940895112423E531E02093510130933F
:1012F0005201A0915101B09152012DB73EB72D93EB
:101300003D93ED93FD93A0935101B093520183E07F
:1013100062E80E94E80782E493E1969587956FEF73
:101320000E943008A0915101B0915201FE91EE91BE
:101330003E912E912DBF3EBFA0935101B09352011B
:10134000089526E02093530020933B0120917A00DA
:101350002F7E20937A002091500020682093500027
:10136000209153002160209353008895EFCF0F9276
:101370000FB6F8940F921F9211242F923F924F9222
:101380005F926F927F928F929F92AF92BF92CF9215
:10139000DF92EF92FF920F931F932F933F934F9300
:1013A0005F936F937F938F939F93AF93BF93CF93ED
:1013B000DF93EF93FF93EDE3F1E020913401220FEF
:1013C000E20F20E0F21F2DB73EB720833183E3E721
:1013D000F1E020913401220FE20F20E0F21F808320
:1013E0009183EFE5F1E020913401E20F20E0F21F5C
:1013F00020E0208381E02FEF2093360120E020932E
:101400003701582F20933401852FE3E7F1E0209135
:101410003401220FE20F20E0F21F20813181422FA0
:10142000432B59F0813099F041E0241B40E0340B0C
:1014300020833183422F432B51F4EFE5F1E02091DB
:101440003401E20F20E0F21F81E0808308C0EFE565
:10145000F1E020913401E20F20E0F21F8081813021
:1014600019F0843009F012C0E9E6F1E020E0809143
:101470003401E80FF21F808120913601821730F489
:10148000809336012091340120933701209134015B
:10149000239530913501231708F4B4CF20913701FB
:1014A00020933401EDE3F1E020913401220FE20FAB
:1014B00020E0F21F208131812DBF3EBFFF91EF91CF
:1014C000DF91CF91BF91AF919F918F917F916F915C
:1014D0005F914F913F912F911F910F91FF90EF904E
:1014E000DF90CF90BF90AF909F908F907F906F9044
:1014F0005F904F903F902F901F900F900FBE0F90D6
:1015000078940895F894E3E7F1E020913401220FF4
:10151000E20F20E0F21F80839183EFE5F1E020915C
:101520003401E20F20E0F21F24E020837894089534
:101530000F920FB6F8940F921F9211242F923F92A0
:101540004F925F926F927F928F929F92AF92BF92D3
:10155000CF92DF92EF92FF920F931F932F933F93BF
:101560004F935F936F937F938F939F93AF93BF93AB
:10157000CF93DF93EF93FF93EDE3F1E020913401FC
:10158000220FE20F20E0F21F2DB73EB720833183F8
:10159000EFE5F1E020913401E20F20E0F21F20E0BE
:1015A000208381E02FEF2093360120E02093370144
:1015B000582F20933401852FE3E7F1E02091340187
:1015C000220FE20F20E0F21F20813181422F432BB6
:1015D00059F0813099F041E0241B40E0340B208326
:1015E0003183422F432B51F4EFE5F1E02091340198
:1015F000E20F20E0F21F81E0808308C0EFE5F1E018
:1016000020913401E20F20E0F21F8081813019F037
:10161000843009F012C0E9E6F1E020E08091340165
:10162000E80FF21F808120913601821730F48093F9
:101630003601209134012093370120913401239504
:1016400030913501231708F4B4CF2091370120934E
:101650003401EDE3F1E020913401220FE20F20E0AC
:10166000F21F208131812DBF3EBFFF91EF91DF91AD
:10167000CF91BF91AF919F918F917F916F915F912A
:101680004F913F912F911F910F91FF90EF90DF901D
:10169000CF90BF90AF909F908F907F906F905F9012
:1016A0004F903F902F901F900F900FBE0F90789407
:1016B0000895FC0109950895282F220FE3E7F1E032
:1016C000E20F20E0F21F808191810895282FEFE53D
:1016D000F1E0E20F20E0F21F808108958091350152
:1016E0000895282FE9E6F1E0E20F20E0F21F808163
:1016F0000895809136010895809137018A95089563
:1017000080913701089580913A010895A1E21A2E3F
:10171000AA1BBB1BFD010DC0AA1FBB1FEE1FFF1F95
:10172000A217B307E407F50720F0A21BB30BE40BE5
:10173000F50B661F771F881F991F1A9469F760952C
:101740007095809590959B01AC01BD01CF010895E6
:04175000F894FFCF3B
:1017540041434B30300050495045310050495045C9
:1017640032005049504533005049504534005049E7
:0417740050453500A7
:00000001FF
