:100000000C9434000C9451000C9451000C94510049
:100010000C9451000C9451000C9451000C94A509BF
:100020000C9451000C94930A0C9451000C945100C0
:100030000C9451000C9451000C9451000C945100FC
:100040000C9451000C9451000C9451000C945100EC
:100050000C9451000C9451000C9451000C945100DC
:100060000C9451000C94510011241FBECFEFD8E026
:10007000DEBFCDBF11E0A0E0B1E0E0EBFFE102C0E8
:1000800005900D92A432B107D9F716E0A4E2B1E0D1
:1000900001C01D92A43EB107E1F70E9453000C94E9
:1000A000D60F0C94000081E00E94F60E0E940B0D0A
:1000B00085E690E064E00E94C90B84E690E00E942F
:1000C000F30E0E94410CFFCF089580E090E00E9463
:1000D000370F0E942B0F692E7724882499240E94C1
:1000E0002B0F5B016C015601CC24DD240E942B0FE9
:1000F0007B018C01EF2CF02E012F11270E942B0F7A
:1001000080E00E94470F862D0E94470F8A2D0E9493
:10011000470F8E2D0E94470F83E090E00E94510D03
:10012000D8CF0E94460782E090E00E94510D0E94C5
:10013000C8088CE291E0F9CF0E94A70482E090E029
:100140000E94510DA0E1FA2ECDE8D6E08E010A5FA3
:100150001F4FF09295060E942B0F6093B506709387
:10016000B6068093B7069093B806292F3327442705
:100170005527209396069C014427552720939706E0
:10018000272F382F492F55272093980660939906DB
:100190000E94FA0680938D06998390939A06809325
:1001A0009B060E94FF069093900680938F06292F4E
:1001B000332727FD3A9520939C0680939D060E9445
:1001C00005079093920680939106292F332727FDE8
:1001D0003A9520939E0680939F060E940207809383
:1001E0009306F80191838093A006809195060E9462
:1001F000470F809196060E94470F809197060E94B4
:10020000470F809198060E94470F809199060E949F
:10021000470F80919A060E94470F80919B060E948B
:10022000470F80919C060E94470F80919D060E9477
:10023000470F80919E060E94470F80919F060E9463
:10024000470F8091A0060E94470F0E949B0485E9FA
:1002500096E06CE00E9481050E948F040E9438069F
:100260008CE291E00E94510D74CF529A5A9882E02C
:1002700090E00E94510D0E94C7068CE390E0F9CFF8
:100280000E94080782E090E00E94510D15E80E944C
:10029000FA06815F9A4018F080E061E002C081E0D8
:1002A00060E040E00E940F07812F8A95F1F780E01F
:1002B00060E040E00E940F078EE190E00E94510D47
:1002C000E6CF89EB96E09093CD068093CC0684E050
:1002D0008093B9061092BA061092BB061092BC0623
:1002E00021E02093BD068AE090E09093BF068093C2
:1002F000BE061092C1061092C0061092C20610925D
:10030000C4061092C3061092C6061092C50610923B
:10031000C7062093C8061092CA061092C90610920A
:10032000CB0608952A9A08952A980895299A08953F
:100330002998089584B18C6284B92498229A219ACC
:100340002A9A29980895249A85B1837C85B92A9A96
:100350002998089580E58CBD81E08DBD08951CBC71
:100360001DBC08950E949A0180E58CBD81E08DBD81
:1003700008951CBC1DBC0E94A3010895E091CC0609
:10038000F091CD06118A108A128A0895E091CC0668
:10039000F091CD068289089590E0E091CC06F0912D
:1003A000CD068289882309F491E0892F089581E0A0
:1003B0008A95F1F7E091CC06F091CD06808991897C
:1003C0000196918B808B895E934020F0118A108A70
:1003D00080E1828B82890895982FE091CC06F0917C
:1003E000CD0682898823A9F49EBD118A108A128ABB
:1003F00004C00E94D701882319F40DB407FEF9CF79
:10040000E091CC06F091CD068289882311F48EB557
:10041000089580E00895362F20E02827392740E00E
:1004200061E270E1C901880F991F37FF04C09C0188
:100430002627372701C09C014F5F483099F7C90133
:1004400008950F931F93CF93DF93062FEC0120E0C5
:1004500030E010E006C0C90169910E940B029C01C6
:100460001F5F1017C0F3C901DF91CF911F910F914A
:100470000895FF920F931F93CF93DF93982F142F1C
:10048000052FF22EE091CC06F091CD0682898823CB
:1004900029F52A98662389F4892F80620E94EC014D
:1004A000812F902F9C01E90110E004C089910E94E6
:1004B000EC011F5F1F15D0F310C0892F0E94EC01C3
:1004C000812F902F9C01E90110E005C08FEF0E9461
:1004D000EC0189931F5F1F15C8F32A9ADF91CF9112
:1004E0001F910F91FF900895E091CC06F091CD06F9
:1004F0008289882339F4319681EE60E0AF0120E0F3
:100500000E9439020895AC01E091CC06F091CD062D
:100510008289882329F480EA60E020E20E9439027F
:100520000895E091CC06F091CD068289882311F0E0
:1005300080E008951182319687E161E0AF0121E00A
:100540000E943902E091CC06F091CD06818190E0C5
:1005500064E0969587956A95E1F7817008951F93F9
:10056000E091CC06F091CD068289882329F009C05C
:10057000812F8A95F1F701C015E80E949102882326
:10058000B9F31F910895E091CC06F091CD068289D0
:10059000882339F4319682EE60E0AF0120E00E94BA
:1005A00039020895AC01E091CC06F091CD06828924
:1005B000882329F481E661E020E20E94390208954F
:1005C000E091CC06F091CD068289882311F080E07D
:1005D00008951182319687E161E0AF0121E00E9428
:1005E0003902E091CC06F091CD0681818095817031
:1005F0000895E091CC06F091CD068289882311F010
:1006000080E00895319680E061E0AF0121E00E9432
:100610003902E091CC06F091CD06818181FF07C0BF
:1006200080FF02C081E001C082E0808308951082D3
:1006300080E00895E091CC06F091CD068289882370
:1006400061F41182319660E0AF0121E00E9439022D
:10065000E091CC06F091CD0610820895E091CC0691
:10066000F091CD068289882391F482E781832998CD
:10067000319680E060E0AF0121E00E9439020E94E3
:100680007402E091CC06F091CD0682E0808308955B
:10069000E091CC06F091CD068289882381F483E72E
:1006A0008183299A319680E060E0AF0121E00E94C9
:1006B0003902E091CC06F091CD0681E08083089567
:1006C000FF920F931F93F82E162F042FE091CC0664
:1006D000F091CD068289882369F531968F2D61E0EE
:1006E000AF0121E00E943902E091CC06F091CD06E5
:1006F000002351F081E090E002C0880F991F1A9505
:10070000E2F72181282B0AC081E090E002C0880F27
:10071000991F1A95E2F78095218128232183409122
:10072000CC065091CD064F5F5F4F8F2D60E021E0EA
:100730000E9439021F910F91FF900895E091CC061D
:10074000F091CD068289882311F080E008953196DA
:1007500085E061E0AF0121E00E943902E091CC0622
:10076000F091CD0681810895982FE091CC06F0910B
:10077000CD068289882361F4892F9E3708F08DE7A2
:100780008183319685E060E0AF0121E00E9439026B
:100790000895E091CC06F091CD068289882311F06E
:1007A00080E00895319686E061E0AF0121E00E948B
:1007B0003902E091CC06F091CD06918196959695FF
:1007C0009695892F8695827081839170892B82837B
:1007D000823011F4118206C0813019F0882311F49F
:1007E00082E0818381810895982FE091CC06F09179
:1007F000CD068289882341F5992321F486E065E0BE
:1008000041E005C0913049F486E065E040E00E9497
:10081000600386E063E040E00AC0923059F486E06D
:1008200065E040E00E94600386E063E041E00E94F2
:100830006003089586E065E040E00E94600386E082
:1008400063E041E00E9460030895E091CC06F091DE
:10085000CD068289882311F080E00895319686E0E4
:1008600061E0AF0121E00E943902E091CC06F091F5
:10087000CD0681818695837081830895982FE091BC
:10088000CC06F091CD068289882371F5992321F455
:1008900086E062E040E00BC0913021F486E062E047
:1008A00040E010C0923049F486E062E041E00E94EE
:1008B000600386E061E040E00AC0933059F486E0CE
:1008C00062E041E00E94600386E061E041E00E9456
:1008D0006003089586E062E041E00E94600386E0E4
:1008E00061E041E00E9460030895E091CC06F09140
:1008F000CD0683830895E091CC06F091CD068483E4
:100900000895E091CC06F091CD06968385830895F5
:10091000E091CC06F091CD06938782870895E0910F
:10092000CC06F091CD068081882321F00E941A0325
:100930000E94B9010895E091CC06F091CD06808126
:10094000882321F40E94B2010E94480308950F9366
:100950001F930E9461010E94B201E091CC06F091C8
:10096000CD061182319680E060E0AF0121E00E9467
:100970003902E091CC06F091CD061182319681E0EA
:1009800060E0AF0121E00E943902E091CC06F091D5
:10099000CD0683E08183319682E060E0AF0121E003
:1009A0000E943902E091CC06F091CD0681E081836E
:1009B000319683E060E0AF0121E00E943902E091CE
:1009C000CC06F091CD061182319684E060E0AF0153
:1009D00021E00E943902E091CC06F091CD0682E040
:1009E0008183319685E060E0AF0121E00E94390209
:1009F000E091CC06F091CD0686E28183319686E0C7
:100A000060E0AF0121E00E943902E091CC06F09154
:100A1000CD0680E78183319687E060E0AF0121E079
:100A20000E943902E091CC06F091CD0610E21183CC
:100A3000319681E160E0AF0121E00E943902E0914E
:100A4000CC06F091CD061183319682E160E0AF01D2
:100A500021E00E943902E091CC06F091CD0611828E
:100A600031968CE160E0AF0121E00E943902E09113
:100A7000CC06F091CD06118231968DE160E0AF0198
:100A800021E00E94390200E011E080E160E0A8016D
:100A900025E00E9439028AE060E0A80125E00E947A
:100AA00039028BE060E046E051E025E00E94390227
:100AB0008CE060E04CE051E025E00E9439028DE0DE
:100AC00060E042E151E025E00E9439028EE060E002
:100AD00048E151E025E00E9439028FE060E04EE1FC
:100AE00051E025E00E943902E091CC06F091CD065C
:100AF00080E290E0968385830E948F041F910F917E
:100B00000895FF920F931F938C01F62EE091CC066F
:100B1000F091CD06118A108A128A0E942E03E0916C
:100B2000CC06F091CD068381F801838FE091CC064D
:100B3000F091CD068481F801848FF58EC8016EE1B5
:100B40000E942102F801968F878FC8010E948302BC
:100B5000299A0E94AF0229981F910F91FF90089542
:100B6000DF92EF92FF920F931F93CF93DF937C015D
:100B7000E091CC06F091CD06118A108A128A108677
:100B800017820E94480375E8D72E23C00E94E00216
:100B9000882399F0C7010E94D202F701D68DC0E0E8
:100BA000078D10E00C2B1D2BC7016EE10E94210266
:100BB0000817190711F481E018C08D2D8A95F1F7F7
:100BC000E091CC06F091CD068781908501969087C3
:100BD0008783E091CC06F091CD0627813085858111
:100BE00096812817390790F280E0DF91CF911F910D
:100BF0000F91FF90EF90DF900895CF93DF93EC017A
:100C0000E091CC06F091CD068785882319F081E02C
:100C10008A8F01C01A8ECE010E948105CE010E94EA
:100C2000B005811181E0DF91CF910895CF93DF93DB
:100C3000EC010E94B0058823B9F08A8D8130A1F4BF
:100C4000E091CC06F091CD0693818C8D981761F4DC
:100C500084EF91E00197F1F78B8D8483CE0162E000
:100C60000E94810581E001C080E0DF91CF9108956D
:100C7000E091CC06F091CD068289882339F0118A63
:100C8000108A128A0E94B9010E94A70408958091D7
:100C90007A0087FD1CC08FEC80937C0086E08093F7
:100CA0007A0080917A00806C80937A0090E02DE049
:100CB0000AC09F5F822F8A95F1F7993C21F481E069
:100CC00080933101089580917A0084FFF2CF0895D6
:100CD000DF92EF92FF920F931F93182FD62E0E9450
:100CE000470680913101882309F040C080917C0043
:100CF000807F812B80937C0084EF91E00197F1F756
:100D0000EE24FF24870120E030E04DE01EC08091FA
:100D10007A00806480937A0090E008C09F5F842FFF
:100D20008A95F1F7993C11F431E004C080917A0082
:100D300084FFF4CF8091780090917900A0E0B0E03A
:100D4000E80EF91E0A1F1B1F2F5F2D1500F33093AD
:100D500031012D2D30E040E050E0C801B7010E9484
:100D6000B40FC901DA019C01AD010AC080933201C0
:100D7000109231010E94470620E030E040E050E050
:100D8000C9011F910F91FF90EF90DF90089580911E
:100D900024018160809324015A9A86E064E00E94D5
:100DA000680690932601809325015A98A0E0B0E050
:100DB000BC01CD012CE33AE540E050E00E94950FE4
:100DC0002AE096958795779567952A95D1F7609350
:100DD0002701709328018093290190932A01809123
:100DE00024018E7F809324010895809125019091A4
:100DF000260108958091270190912801089580E0AF
:100E000090E008950E949B0908950E949609089514
:100E1000559A569A569A5D9A5E9A5F9A08958130CD
:100E200011F45D9801C05D9A613011F45E9801C0C3
:100E30005E9A413011F45F9808955F9A0895109278
:100E4000D6061092DA061092DC061092DB0610929B
:100E5000DE061092DD061092E0061092DF06109278
:100E6000E1061092E2061092E3061092CE0610926E
:100E7000CF061092D0061092D1061092D206109290
:100E8000D3061092D4061092D50608950E941F072B
:100E90005B9A539A45983D9844983C9808958130C0
:100EA00021F43D988093D8060895882319F43D9A3B
:100EB0001092D8060895813021F43C988093D90689
:100EC0000895882319F43C9A1092D90608953C9B02
:100ED00004C03C9886E08A95F1F786B190E024E062
:100EE000969587952A95E1F7817008953D9B02C0FC
:100EF00080E0089587B182958F7080958170089504
:100F00001F938091E2068823C1F481E00E944F077D
:100F100016E0812F8A95F1F781E00E945B07812F0F
:100F20008A95F1F780E00E945B07812F8A95F1F79F
:100F300080E00E944F071A95F1F71F9108951F93C3
:100F40008091E2068823D9F43D9905C00E944F079D
:100F500082E08A95F1F73C9906C080E00E945B0729
:100F600082E08A95F1F781E00E944F0716E0812F19
:100F70008A95F1F781E00E945B071A95F1F71F91BE
:100F800008951F938091E2068823D9F00E94760786
:100F90008823B9F40E944F0712E0812F8A95F1F758
:100FA00080E00E945B071A95F1F781E00E944F07ED
:100FB00016E0812F8A95F1F781E00E945B071A9570
:100FC000F1F71F910895FF920F931F93082F8091BF
:100FD000E2068823F1F410E036E0F32E07FF02C0AA
:100FE00081E001C080E00E945B078F2D8A95F1F7B8
:100FF00081E00E944F078F2D8A95F1F780E00E94D3
:101000004F078F2D8A95F1F71F5F183011F0000FF1
:10101000E5CF1F910F91FF900895FF920F931F93BB
:101020008091E206882311F010E01FC081E00E9449
:101030005B0786E08A95F1F710E000E046E0F42EC9
:10104000110F0E946707813009F4116081E00E944E
:101050004F078F2D8A95F1F780E00E944F078F2D63
:101060008A95F1F70F5F083059F7812F1F910F9183
:10107000FF9008951F938091E2068823F9F481E0A0
:101080000E945B0712E0812F8A95F1F781E00E94B0
:101090004F071A95F1F70E946707882321F481E032
:1010A0008093D70602C01092D70612E0812F8A954E
:1010B000F1F780E00E944F071A95F1F71F9108950C
:1010C0001F938091E2068823A1F40E945B0712E03F
:1010D000812F8A95F1F781E00E944F07812F8A9531
:1010E000F1F7812F8A95F1F780E00E944F071A955A
:1010F000F1F71F9108950F931F93082F10E00E949E
:101100008007802F0E94E3070E943A088091D7064B
:10111000882311F081E009C00E949F071F5F1F31E3
:1011200071F781E08093E20680E01F910F910895AE
:10113000FF920F931F93182F80E80E947B0882E094
:101140000E94E3070E943A08F090D706812F0E9480
:10115000E3070E943A080091D70680E00E94E30767
:101160000E943A081091D7060E949F078091E206DC
:10117000882351F4000F110F110F102B1F29173066
:1011800019F085E08093E2061F910F91FF9008957A
:10119000EF92FF920F931F935B9880E29EE401977A
:1011A000F1F71092E20680E00E9498080E94800702
:1011B00080E80E94E3070E943A080091D70680E089
:1011C0000E94E3070E943A081091D7060E949F07E9
:1011D0008091E206882339F4110F102B133019F097
:1011E00086E08093E20680E797E10197F1F781E8D6
:1011F0000E947B080E940D08E82E0E9460080E9451
:101200000D08F82E0E943A080E949F070E9480074E
:1012100080E80E94E3070E943A080091D70681E027
:101220000E94E3070E943A081091D7060E949F0788
:101230008091E206882339F4110F102B133019F036
:1012400087E08093E20680E797E10197F1F781E874
:101250000E947B080E940D08082F0E9460080E94CF
:101260000D08182F0E943A080E949F070E94C1078C
:101270005B9A8091E206882309F043C06E2D70E0EE
:1012800080E090E0982F872F762F66272F2D30E073
:1012900040E050E0622B732B842B952B22E736E045
:1012A00040E050E00E94950F2FEF3FEF40E050E00C
:1012B0000E94B40F205931403093DE062093DD06A2
:1012C000602F70E080E090E0982F872F762F6627C0
:1012D000212F30E040E050E0622B732B842B952BC4
:1012E00024E630E040E050E00E94950F2FEF3FEF02
:1012F00040E050E00E94B40F3093E0062093DF06F8
:1013000004C08093E3061092E2061F910F91FF90B4
:10131000EF9008958091DA0608958091D606089599
:101320008091E20608958091E30608958091DD069C
:101330009091DE0608958091DF069091E006089571
:101340008091D2069091D3060895209153002E7F6C
:10135000209353000F920FB60F921F9211242F92D9
:101360003F924F925F926F927F928F929F92AF9235
:10137000BF92CF92DF92EF92FF920F931F932F9322
:101380003F934F935F936F937F938F939F93AF930D
:10139000BF93CF93DF93EF93FF93E3E4F1E02091CA
:1013A0003A01220FE20F20E0F21F2DB73EB7208353
:1013B000318321E030913301320F3093330120E04B
:1013C00030913401321F3093340130913501321F96
:1013D0003093350130913601321F30933601309110
:1013E0003701321F3093370180E02FEF20933C010B
:1013F00020E020933D01582F20933A01852FE9E703
:10140000F1E020913A01220FE20F20E0F21F20814B
:101410003181422F432B59F0813099F041E0241B58
:1014200040E0340B20833183422F432B51F4E5E617
:10143000F1E020913A01E20F20E0F21F81E0808389
:1014400008C0E5E6F1E020913A01E20F20E0F21F4A
:101450008081813019F0843009F012C0EFE6F1E0AC
:1014600020E080913A01E80FF21F808120913C0139
:10147000821730F480933C0120913A0120933D0182
:1014800020913A01239530913B01231708F4B4CF02
:1014900020913D0120933A0120913A01222329F025
:1014A00020913F01239520933F0120913E012395F8
:1014B000243640F020E030913F013093400130E08D
:1014C00030933F0120933E01E3E4F1E020913A01A3
:1014D000220FE20F20E0F21F208131812DBF3EBF9D
:1014E000FF91EF91DF91CF91BF91AF919F918F913C
:1014F0007F916F915F914F913F912F911F910F912C
:10150000FF90EF90DF90CF90BF90AF909F908F9023
:101510007F906F905F904F903F902F901F900F9013
:101520000FBE0F901895209153002E7F20935300EB
:101530000F920FB60F921F9211242F923F924F924B
:101540005F926F927F928F929F92AF92BF92CF9253
:10155000DF92EF92FF920F931F932F933F934F933E
:101560005F936F937F938F939F93AF93BF93CF932B
:10157000DF93EF93FF93E3E4F1E020913A01220F30
:10158000E20F20E0F21F2DB73EB72083318321E028
:1015900030913301320F3093330120E03091340128
:1015A000321F3093340130913501321F30933501B1
:1015B00030913601321F3093360130913701321F9E
:1015C0003093370180E02FEF20933C0120E02093FF
:1015D0003D01582F20933A01852FE9E7F1E0209152
:1015E0003A01220FE20F20E0F21F20813181422FC9
:1015F000432B59F0813099F041E0241B40E0340B3B
:1016000020833183422F432B51F4E5E6F1E0209112
:101610003A01E20F20E0F21F81E0808308C0E5E696
:10162000F1E020913A01E20F20E0F21F8081813049
:1016300019F0843009F012C0EFE6F1E020E080916B
:101640003A01E80FF21F808120913C01821730F4AB
:1016500080933C0120913A0120933D0120913A0171
:10166000239530913B01231708F4B4CF20913D011D
:1016700020933A0120913A01222329F020913F0141
:10168000239520933F0120913E012395243640F07D
:1016900020E030913F013093400130E030933F0132
:1016A00020933E01E3E4F1E020913A01220FE20FA2
:1016B00020E0F21F208131812DBF3EBFFF91EF91CD
:1016C000DF91CF91BF91AF919F918F917F916F915A
:1016D0005F914F913F912F911F910F91FF90EF904C
:1016E000DF90CF90BF90AF909F908F907F906F9042
:1016F0005F904F903F902F901F900F900FBE0F90D4
:101700001895F894A0915701B09158012DB73EB7A4
:101710002D933D93ED93FD93A0935701B093580102
:1017200020E020933301209334012093350120934E
:1017300036012093370120933801209339012093FB
:101740003A0120933B0120933C0120933D012093DB
:101750003E0120933F012093400120E02093700040
:1017600020E02093B10020E02093B6008093380160
:1017700060933901A0915701B0915801FE91EE910B
:101780003E912E912DBF3EBFA0935701B0935801BB
:101790000895A0915701B09158012DB73EB72D93F0
:1017A0003D93ED93FD93A0935701B0935801EFE65D
:1017B000F1E020913A01E20F20E0F21F6083E5E6BC
:1017C000F1E020913A01E20F20E0F21F21E02083B6
:1017D00020913A01239530E8239FE02DF12D319798
:1017E00011242DE831E0E20FF31FEDBFFEBF8F9310
:1017F0009F930F920FB60F921F9211242F923F9238
:101800004F925F926F927F928F929F92AF92BF9210
:10181000CF92DF92EF92FF920F931F932F933F93FC
:101820004F935F936F937F938F939F93AF93BF93E8
:10183000CF93DF93EF93FF932DB73EB740913A01DB
:10184000440FE3E4F1E0E40F40E0F41F2193308320
:1018500020913A01239520933A0120913B01239551
:1018600020933B01A0915701B0915801FE91EE9158
:101870003E912E912DBF3EBFA0935701B0935801CA
:10188000089581E02FEF20933C0120E020933D015B
:10189000582F20933A01852FE9E7F1E020913A0192
:1018A000220FE20F20E0F21F20813181422F432BD3
:1018B00059F0813099F041E0241B40E0340B208343
:1018C0003183422F432B51F4E5E6F1E020913A01B8
:1018D000E20F20E0F21F81E0808308C0E5E6F1E03E
:1018E00020913A01E20F20E0F21F8081813019F04F
:1018F000843009F012C0EFE6F1E020E080913A0177
:10190000E80FF21F808120913C01821730F4809310
:101910003C0120913A0120933D0120913A01239509
:1019200030913B01231708F4B4CF20913D0120935F
:101930003A01E3E4F1E020913A01220FE20F20E0C6
:10194000F21F208131812DBF3EBFFF91EF91DF91CA
:10195000CF91BF91AF919F918F917F916F915F9147
:101960004F913F912F911F910F91FF90EF90DF903A
:10197000CF90BF90AF909F908F907F906F905F902F
:101980004F903F902F901F900F900FBE0F90789424
:1019900020E02093700020E22093B60020E82093FE
:1019A000B30020E02093B40022E02093B00026E0B2
:1019B0002093B10020E02093B2002091B600227065
:1019C000E1F72091B6002170E1F72091B600287070
:1019D000E1F72091B6002470E1F72091B600207164
:1019E000E1F720913700217019F021E020933700B2
:1019F00020913700227019F022E0209337002091C7
:101A00003700247019F024E02093370022E020935F
:101A1000700078940895112429E531E0209357014E
:101A200030935801A0915701B09158012DB73EB79E
:101A30002D933D93ED93FD93A0935701B0935801DF
:101A400083E062E80E94810B84E79AE1969587958E
:101A50006FEF0E94C90BA0915701B0915801FE9100
:101A6000EE913E912E912DBF3EBFA0935701B093B2
:101A70005801089526E020935300209341012091BE
:101A80007A002F7720937A002091500020682093CD
:101A900050002091530021602093530088950C94AE
:101AA0003F0D0F920FB6F8940F921F9211242F92B0
:101AB0003F924F925F926F927F928F929F92AF92DE
:101AC000BF92CF92DF92EF92FF920F931F932F93CB
:101AD0003F934F935F936F937F938F939F93AF93B6
:101AE000BF93CF93DF93EF93FF93E3E4F1E0209173
:101AF0003A01220FE20F20E0F21F2DB73EB72083FC
:101B00003183E9E7F1E020913A01220FE20F20E072
:101B1000F21F80839183E5E6F1E020913A01E20F24
:101B200020E0F21F20E0208381E02FEF20933C0192
:101B300020E020933D01582F20933A01852FE9E7BB
:101B4000F1E020913A01220FE20F20E0F21F208104
:101B50003181422F432B59F0813099F041E0241B11
:101B600040E0340B20833183422F432B51F4E5E6D0
:101B7000F1E020913A01E20F20E0F21F81E0808342
:101B800008C0E5E6F1E020913A01E20F20E0F21F03
:101B90008081813019F0843009F012C0EFE6F1E065
:101BA00020E080913A01E80FF21F808120913C01F2
:101BB000821730F480933C0120913A0120933D013B
:101BC00020913A01239530913B01231708F4B4CFBB
:101BD00020913D0120933A01E3E4F1E020913A01A4
:101BE000220FE20F20E0F21F208131812DBF3EBF86
:101BF000FF91EF91DF91CF91BF91AF919F918F9125
:101C00007F916F915F914F913F912F911F910F9114
:101C1000FF90EF90DF90CF90BF90AF909F908F900C
:101C20007F906F905F904F903F902F901F900F90FC
:101C30000FBE0F9078940895F894E9E7F1E02091B1
:101C40003A01220FE20F20E0F21F80839183E5E644
:101C5000F1E020913A01E20F20E0F21F24E020831E
:101C6000789408950F920FB6F8940F921F92112452
:101C70002F923F924F925F926F927F928F929F929C
:101C8000AF92BF92CF92DF92EF92FF920F931F938A
:101C90002F933F934F935F936F937F938F939F9374
:101CA000AF93BF93CF93DF93EF93FF93E3E4F1E020
:101CB00020913A01220FE20F20E0F21F2DB73EB72C
:101CC00020833183E5E6F1E020913A01E20F20E044
:101CD000F21F20E0208381E02FEF20933C0120E0E1
:101CE00020933D01582F20933A01852FE9E7F1E039
:101CF00020913A01220FE20F20E0F21F2081318172
:101D0000422F432B59F0813099F041E0241B40E0F1
:101D1000340B20833183422F432B51F4E5E6F1E06D
:101D200020913A01E20F20E0F21F81E0808308C099
:101D3000E5E6F1E020913A01E20F20E0F21F808118
:101D4000813019F0843009F012C0EFE6F1E020E0B4
:101D500080913A01E80FF21F808120913C018217A7
:101D600030F480933C0120913A0120933D01209171
:101D70003A01239530913B01231708F4B4CF209109
:101D80003D0120933A01E3E4F1E020913A01220F72
:101D9000E20F20E0F21F208131812DBF3EBFFF9175
:101DA000EF91DF91CF91BF91AF919F918F917F91F3
:101DB0006F915F914F913F912F911F910F91FF90E4
:101DC000EF90DF90CF90BF90AF909F908F907F90DB
:101DD0006F905F904F903F902F901F900F900FBE8D
:101DE0000F9078940895FC010995089520915F0063
:101DF000F89430E8309361008093610020935F0095
:101E00000895282F220FE9E7F1E0E20F20E0F21F0A
:101E1000808191810895282FE5E6F1E0E20F20E02E
:101E2000F21F8081089580913B010895282FEFE6ED
:101E3000F1E0E20F20E0F21F8081089580913C01E3
:101E4000089580913D018A95089580913D010895FE
:101E50008091400108952FB7F894609133017091FB
:101E6000340180913501909136012FBF089522E011
:101E70002093C000292F2093C500282F2093C40051
:101E800026E02093C20028E02093C10008952F93FC
:101E90008093C6002091C00025FFFCCF2F910895AC
:101EA0008F93892F0E94470F8F910E94470F0895AB
:101EB0002F938093C6002091C00026FFFCCF209175
:101EC000C00020642093C0002F9108950E94580FF5
:101ED0008F93892F0E94580F8F91089580934A0005
:101EE000862F0E94580F872F0E94580F80914A001A
:101EF0000E94580F80934A00892F0E94580F8091AA
:101F00004A0008950E2F1F2F282FE82FF92F8081C8
:101F10000E94580FE02FF12F822F08950E94820F08
:101F2000815090406150D1F70895629FD001739F16
:101F3000F001829FE00DF11D649FE00DF11D929F65
:101F4000F00D839FF00D749FF00D659FF00D9927A4
:101F5000729FB00DE11DF91F639FB00DE11DF91FC8
:101F6000BD01CF0111240895A1E21A2EAA1BBB1BAB
:101F7000FD010DC0AA1FBB1FEE1FFF1FA217B30755
:101F8000E407F50720F0A21BB30BE40BF50B661F6B
:101F9000771F881F991F1A9469F76095709580952F
:101FA00090959B01AC01BD01CF010895F894FFCF3E
:101FB00041434B3030005049504531005049504565
:101FC0003200504950453300504950453400504983
:041FD0005045350043
:00000001FF
