:100000000C9434000C9451000C9451000C94510049
:100010000C9451000C9451000C9451000C94F7086E
:100020000C9451000C94E8090C9451000C9451006C
:100030000C9451000C9451000C9451000C945100FC
:100040000C9451000C9451000C9451000C945100EC
:100050000C9451000C9451000C9451000C945100DC
:100060000C9451000C94510011241FBECFEFD8E026
:10007000DEBFCDBF11E0A0E0B1E0E8E4FEE102C0E8
:1000800005900D92A432B107D9F716E0A4E2B1E0D1
:1000900001C01D92AA3AB107E1F70E9453000C94E7
:1000A000220F0C94000081E00E944E0E80E090E050
:1000B0000E94830E0E94630C8CED90E060E00E9431
:1000C000210B81ED90E061E00E94210B83E890E03C
:1000D00062E00E94210B88E790E063E00E94210B20
:1000E00087E790E00E944B0E0E94990BFFCF089586
:1000F0000E946F0682E090E00E94A90C0E94DC073B
:1001000088E790E0F9CF0F931F93DF93CF93CDB79C
:10011000DEB7A0970FB6F894DEBF0FBECDBF0E942A
:100120003C0482E090E00E94A90C8E010F5F1F4FFB
:100130000E94330699838A830E943806292F332729
:1001400027FD3A952B838C830E943E06292F332767
:1001500027FD3A952D838E830E943B068F838981EC
:100160000E94930E8A810E94930E8B810E94930EAF
:100170008C810E94930E8D810E94930E8E810E942D
:10018000930E8F810E94930E0E943004C80167E095
:100190000E9416050E9424048CE390E00E94A90CA2
:1001A000C7CF529A5A9882E090E00E94A90C0E9410
:1001B0001E068EE190E0F9CF1F930E94410682E077
:1001C00090E00E94A90C15E881E060E040E00E9408
:1001D0004806812F8A95F1F780E060E040E00E94B8
:1001E00048068AE090E00E94A90CEECF87E896E0EE
:1001F00090939B0680939A0684E0809387061092E2
:1002000088061092890610928A0621E020938B06B8
:100210008AE090E090938D0680938C0610928F0672
:1002200010928E06109290061092920610929106ED
:1002300010929406109293061092950620939606BB
:1002400010929806109297061092990608952A9A8D
:1002500008952A980895299A08952998089584B1AF
:100260008C6284B92498229A219A2A9A299808950E
:10027000249A85B1837C85B92A9A2998089580E5C6
:100280008CBD81E08DBD08951CBC1DBC08950E94ED
:100290002F0180E58CBD81E08DBD08951CBC1DBC87
:1002A0000E9438010895E0919A06F0919B06118A08
:1002B000108A128A0895E0919A06F0919B0682892D
:1002C000089590E0E0919A06F0919B068289882338
:1002D00009F491E0892F089581E08A95F1F7E09182
:1002E0009A06F0919B06808991890196918B808B6B
:1002F000895E934020F0118A108A80E1828B828986
:100300000895982FE0919A06F0919B0682898823A0
:10031000A9F49EBD118A108A128A04C00E946C0141
:10032000882319F40DB407FEF9CFE0919A06F091F5
:100330009B068289882311F48EB5089580E0089584
:10034000362F20E02827392740E061E270E1C9011B
:10035000880F991F37FF04C09C012627372701C04B
:100360009C014F5F483099F7C90108950F931F937F
:10037000CF93DF93062FEC0120E030E010E006C0C1
:10038000C90169910E94A0019C011F5F1017C0F371
:10039000C901DF91CF911F910F910895FF920F93A3
:1003A0001F93CF93DF93982F142F052FF22EE091F8
:1003B0009A06F0919B068289882329F52A9866235C
:1003C00089F4892F80620E948101812F902F9C01E6
:1003D000E90110E004C089910E9481011F5F1F158F
:1003E000D0F310C0892F0E948101812F902F9C0192
:1003F000E90110E005C08FEF0E94810189931F5F22
:100400001F15C8F32A9ADF91CF911F910F91FF908A
:100410000895E0919A06F0919B068289882339F429
:10042000319681EE60E0AF0120E00E94CE01089598
:10043000AC01E0919A06F0919B068289882329F409
:1004400080EA60E020E20E94CE010895E0919A06E1
:10045000F0919B068289882311F080E00895118233
:10046000319687E161E0AF0121E00E94CE01E09189
:100470009A06F0919B06818190E064E096958795BD
:100480006A95E1F7817008951F93E0919A06F091C3
:100490009B068289882329F009C0812F8A95F1F76C
:1004A00001C015E80E9426028823B9F31F91089520
:1004B000E0919A06F0919B068289882339F431965F
:1004C00082EE60E0AF0120E00E94CE010895AC0111
:1004D000E0919A06F0919B068289882329F481E6AF
:1004E00061E020E20E94CE010895E0919A06F09129
:1004F0009B068289882311F080E00895118231964D
:1005000087E161E0AF0121E00E94CE01E0919A060F
:10051000F0919B068181809581700895E0919A0603
:10052000F0919B068289882311F080E0089531962E
:1005300080E061E0AF0121E00E94CE01E0919A06E7
:10054000F0919B06818181FF07C080FF02C081E09E
:1005500001C082E080830895108280E00895E091D8
:100560009A06F0919B068289882361F41182319664
:1005700060E0AF0121E00E94CE01E0919A06F09187
:100580009B0610820895E0919A06F0919B0682895D
:10059000882391F482E781832998319680E060E096
:1005A000AF0121E00E94CE010E940902E0919A066B
:1005B000F0919B0682E080830895E0919A06F09185
:1005C0009B068289882381F483E78183299A319667
:1005D00080E060E0AF0121E00E94CE01E0919A0648
:1005E000F0919B0681E080830895FF920F931F9303
:1005F000F82E162F042FE0919A06F0919B0682891F
:10060000882369F531968F2D61E0AF0121E00E94CA
:10061000CE01E0919A06F0919B06002351F081E013
:1006200090E002C0880F991F1A95E2F72181282BCC
:100630000AC081E090E002C0880F991F1A95E2F786
:10064000809521812823218340919A0650919B0611
:100650004F5F5F4F8F2D60E021E00E94CE011F9120
:100660000F91FF900895E0919A06F0919B06828980
:10067000882311F080E00895319685E061E0AF01B4
:1006800021E00E94CE01E0919A06F0919B068181C3
:100690000895982FE0919A06F0919B06828988230D
:1006A00061F4892F9E3708F08DE78183319685E0CC
:1006B00060E0AF0121E00E94CE010895E0919A062A
:1006C000F0919B068289882311F080E0089531968D
:1006D00086E061E0AF0121E00E94CE01E0919A0640
:1006E000F0919B069181969596959695892F869582
:1006F000827081839170892B8283823011F4118200
:1007000006C0813019F0882311F482E08183818151
:100710000895982FE0919A06F0919B06828988238C
:1007200041F5992321F486E065E041E005C0913070
:1007300049F486E065E040E00E94F50286E063E06F
:1007400040E00AC0923059F486E065E040E00E9443
:10075000F50286E063E041E00E94F502089586E03C
:1007600065E040E00E94F50286E063E041E00E941F
:10077000F5020895E0919A06F0919B0682898823FC
:1007800011F080E00895319686E061E0AF0121E04C
:100790000E94CE01E0919A06F0919B068181869598
:1007A000837081830895982FE0919A06F0919B06BB
:1007B0008289882371F5992321F486E062E040E084
:1007C0000BC0913021F486E062E040E010C092302E
:1007D00049F486E062E041E00E94F50286E061E0D3
:1007E00040E00AC0933059F486E062E041E00E94A4
:1007F000F50286E061E041E00E94F502089586E09E
:1008000062E041E00E94F50286E061E041E00E9482
:10081000F5020895E0919A06F0919B06838308956E
:10082000E0919A06F0919B0684830895E0919A06E0
:10083000F0919B06968385830895E0919A06F09146
:100840009B06938782870895E0919A06F0919B0614
:100850008081882321F00E94AF020E944E010895FA
:10086000E0919A06F0919B068081882321F40E94F2
:1008700047010E94DD0208950F931F930E94F60026
:100880000E944701E0919A06F0919B0611823196F1
:1008900080E060E0AF0121E00E94CE01E0919A0685
:1008A000F0919B061182319681E060E0AF0121E07A
:1008B0000E94CE01E0919A06F0919B0683E081832D
:1008C000319682E060E0AF0121E00E94CE01E0912C
:1008D0009A06F0919B0681E08183319683E060E087
:1008E000AF0121E00E94CE01E0919A06F0919B06B3
:1008F0001182319684E060E0AF0121E00E94CE01D8
:10090000E0919A06F0919B0682E08183319685E022
:1009100060E0AF0121E00E94CE01E0919A06F091E3
:100920009B0686E28183319686E060E0AF0121E09C
:100930000E94CE01E0919A06F0919B0680E78183A8
:10094000319687E060E0AF0121E00E94CE01E091A6
:100950009A06F0919B0610E21183319681E160E0E6
:10096000AF0121E00E94CE01E0919A06F0919B0632
:100970001183319682E160E0AF0121E00E94CE0157
:10098000E0919A06F0919B06118231968CE160E02D
:10099000AF0121E00E94CE01E0919A06F0919B0602
:1009A000118231968DE160E0AF0121E00E94CE011D
:1009B00000E011E080E160E0A80125E00E94CE01A6
:1009C0008AE060E0A80125E00E94CE018BE060E0B3
:1009D00046E051E025E00E94CE018CE060E04CE072
:1009E00051E025E00E94CE018DE060E042E151E05F
:1009F00025E00E94CE018EE060E048E151E025E074
:100A00000E94CE018FE060E04EE151E025E00E94BF
:100A1000CE01E0919A06F0919B0680E290E09683E9
:100A200085830E9424041F910F910895FF920F93D4
:100A30001F938C01F62EE0919A06F0919B06118A85
:100A4000108A128A0E94C302E0919A06F0919B06D6
:100A50008381F801838FE0919A06F0919B0684814F
:100A6000F801848FF58EC8016EE10E94B601F8018D
:100A7000968F878FC8010E941802299A0E9444020B
:100A800029981F910F91FF900895DF92EF92FF92A6
:100A90000F931F93CF93DF937C01E0919A06F0911F
:100AA0009B06118A108A128A108617820E94DD0224
:100AB00075E8D72E23C00E947502882399F0C701DC
:100AC0000E946702F701D68DC0E0078D10E00C2B65
:100AD0001D2BC7016EE10E94B6010817190711F41A
:100AE00081E018C08D2D8A95F1F7E0919A06F0917A
:100AF0009B0687819085019690878783E0919A066F
:100B0000F0919B06278130858581968128173907CA
:100B100090F280E0DF91CF911F910F91FF90EF90C5
:100B2000DF900895CF93DF93EC01E0919A06F09166
:100B30009B068785882319F081E08A8F01C01A8E71
:100B4000CE010E941605CE010E944505811181E06B
:100B5000DF91CF910895CF93DF93EC010E9445057B
:100B60008823B9F08A8D8130A1F4E0919A06F09142
:100B70009B0693818C8D981761F484EF91E0019727
:100B8000F1F78B8D8483CE0162E00E94160581E02F
:100B900001C080E0DF91CF91089580917A0087FDB8
:100BA0000FC08FEC80937C0086E080937A00809168
:100BB0007A00806C80937A0080917A0084FFFCCF69
:100BC0000895DF92EF92FF920F931F93182FD62E66
:100BD0000E94CD0580917C00807F812B80937C00DA
:100BE00084EF91E00197F1F7EE24FF24870120E0E4
:100BF00014C080917A00806480937A0080917A009A
:100C000084FFFCCF8091780090917900A0E0B0E063
:100C1000E80EF91E0A1F1B1F2F5F2D1550F32D2DF7
:100C200030E040E050E0C801B7010E94000FC90168
:100C30001F910F91FF90EF90DF9008958091240114
:100C40008160809324015A9A86E064E00E94E10565
:100C500090932601809325015A98809124018E7FDC
:100C60008093240108958091250190912601089593
:100C700080E090E008950E94F20808950E94ED0837
:100C80000895559A569A569A5D9A5E9A5F9A089573
:100C9000813011F45D9801C05D9A613011F45E9865
:100CA00001C05E9A413011F45F9808955F9A0895EB
:100CB00010929C061092A0061092A2061092A10615
:100CC0001092A4061092A3061092A6061092A506F2
:100CD0001092A7061092A8061092A90608950E94E5
:100CE00058065B9A539A45983D9844983C980895C5
:100CF000813021F43D9880939E060895882319F44D
:100D00003D9A10929E060895813021F43C9880937C
:100D10009F060895882319F43C9A10929F0608951F
:100D20003C9B04C03C9886E08A95F1F786B190E040
:100D300024E0969587952A95E1F7817008953D996D
:100D400002C080E0089587B190E034E096958795E1
:100D50003A95E1F7817008951F938091A806882342
:100D6000C1F481E00E94780616E0812F8A95F1F7A0
:100D700081E00E948406812F8A95F1F780E00E942D
:100D80008406812F8A95F1F780E00E9478061A95F3
:100D9000F1F71F9108951F938091A8068823D9F435
:100DA0003D9905C00E94780686E08A95F1F73C9946
:100DB00006C080E00E94840686E08A95F1F781E013
:100DC0000E94780616E0812F8A95F1F781E00E9453
:100DD00084061A95F1F71F9108951F938091A80634
:100DE000882309F10E949F068823B9F40E9478069F
:100DF00016E0812F8A95F1F780E00E948406812F0A
:100E00008A95F1F781E00E947806812F8A95F1F7A3
:100E100081E00E9484061A95F1F78091A8068093DC
:100E2000A9061092A8061F910895FF920F931F9391
:100E3000082F8091A8068823F1F410E046E0F42EF4
:100E400007FF02C081E001C080E00E9484068F2D70
:100E50008A95F1F781E00E9478068F2D8A95F1F747
:100E600080E00E9478068F2D8A95F1F71F5F183079
:100E700011F0000FE5CF1F910F91FF900895FF92A1
:100E80000F931F938091A806882311F010E01FC0D4
:100E900081E00E94840686E08A95F1F710E000E088
:100EA00056E0F52E110F0E949006813009F4116072
:100EB00081E00E9478068F2D8A95F1F780E00E94EC
:100EC00078068F2D8A95F1F70F5F083059F7812F3B
:100ED0001F910F91FF9008951F938091A80688237A
:100EE000F9F481E00E94840612E0812F8A95F1F7DF
:100EF00081E00E9478061A95F1F70E9490068823F7
:100F000021F481E080939D0602C010929D0612E0BC
:100F1000812F8A95F1F780E00E9478061A95F1F703
:100F20001F9108951F938091A8068823A1F40E9421
:100F3000840612E0812F8A95F1F781E00E947806FD
:100F4000812F8A95F1F7812F8A95F1F780E00E9431
:100F500078061A95F1F71F910895FF920F931F934A
:100F6000082F10E0FF24F3940E94AC0680E80E9452
:100F700015070E946C0780919D06882341F40E940A
:100F8000CB061F5F1F3180F3F092A806EDCF82E001
:100F90000E9415070E946C07802F0E9415070E946F
:100FA0006C0780E00E9415070E946C070E94CB0628
:100FB0001F910F91FF900895EF92FF920F931F934F
:100FC0005B9880E29EE40197F1F71092A80681E019
:100FD0000E94AD070E94AC0680E80E9415070E949F
:100FE0006C0780E00E9415070E946C070E94CB06E8
:100FF00080E797E10197F1F710E00E94AC0681E8E5
:101000000E9415070E946C0780919D06882329F491
:101010000E94CB061F5F123381F70E943F07082F03
:101020000E9492070E943F07182F0E9492070E9479
:101030003F07E82E0E9492070E943F07F82E0E9469
:101040006C070E94CB060E94ED065B9A8091A80671
:10105000882309F043C0602F70E080E090E0982F73
:10106000872F762F6627212F30E040E050E0622B5B
:10107000732B842B952B22E736E040E050E00E9452
:10108000E10E2FEF3FEF40E050E00E94000F2059AB
:1010900031403093A4062093A3066E2D70E080E0CB
:1010A00090E0982F872F762F66272F2D30E040E095
:1010B00050E0622B732B842B952B24E630E040E02C
:1010C00050E00E94E10E2FEF3FEF40E050E00E9421
:1010D000000F3093A6062093A50604C01092A60622
:1010E0001092A5061F910F91FF90EF9008950F9316
:1010F0001F935B9880E29EE40197F1F71092A80697
:1011000080E00E94AD070E94AC0680E80E941507AF
:101110000E946C0781E00E9415070E946C070E94E4
:10112000CB0680E797E10197F1F710E00E94AC064B
:1011300081E80E9415070E946C0780919D06882314
:1011400029F40E94CB061F5F123381F70E943F07EC
:10115000082F0E9492070E943F07182F0E946C07D9
:101160000E94CB060E94ED065B9A8091A806882318
:1011700009F5602F70E080E090E0982F872F762FA0
:101180006627212F30E040E050E0622B732B842B48
:10119000952B24E630E040E050E00E94E10E2FEF76
:1011A0003FEF40E050E00E94000F3093A6062093EE
:1011B000A50604C01092A6061092A5061F910F91D5
:1011C00008958091A006089580919C0608958091CD
:1011D000A80608958091A90608958091A30690918C
:1011E000A40608958091A5069091A60608952091E1
:1011F00053002E7F209353000F920FB60F921F9231
:1012000011242F923F924F925F926F927F928F9212
:101210009F92AF92BF92CF92DF92EF92FF920F9385
:101220001F932F933F934F935F936F937F938F936E
:101230009F93AF93BF93CF93DF93EF93FF93EDE330
:10124000F1E020913401220FE20F20E0F21F2DB7D0
:101250003EB72083318320913301209346002091B3
:101260002D01239520932D0130E020912E01231F85
:1012700020932E0120912F01231F20932F012091D5
:101280003001231F2093300120913101231F20932F
:10129000310180E02FEF2093360120E020933701C9
:1012A000582F20933401852FE3E7F1E0209134019A
:1012B000220FE20F20E0F21F20813181422F432BC9
:1012C00059F0813099F041E0241B40E0340B208339
:1012D0003183422F432B51F4EFE5F1E020913401AB
:1012E000E20F20E0F21F81E0808308C0EFE5F1E02B
:1012F00020913401E20F20E0F21F8081813019F04B
:10130000843009F012C0E9E6F1E020E08091340178
:10131000E80FF21F808120913601821730F480930C
:101320003601209134012093370120913401239517
:1013300030913501231708F4B4CF20913701209361
:10134000340120913401222329F020913901239581
:1013500020933901209138012395243640F020E074
:101360003091390130933A0130E0309339012093C4
:101370003801EDE3F1E020913401220FE20F20E08B
:10138000F21F208131812DBF3EBFFF91EF91DF9190
:10139000CF91BF91AF919F918F917F916F915F910D
:1013A0004F913F912F911F910F91FF90EF90DF9000
:1013B000CF90BF90AF909F908F907F906F905F90F5
:1013C0004F903F902F901F900F900FBE0F90189549
:1013D000209153002E7F209353000F920FB60F924F
:1013E0001F9211242F923F924F925F926F927F92A1
:1013F0008F929F92AF92BF92CF92DF92EF92FF9225
:101400000F931F932F933F934F935F936F937F930C
:101410008F939F93AF93BF93CF93DF93EF93FF93FC
:10142000EDE3F1E020913401220FE20F20E0F21F02
:101430002DB73EB72083318320913301209346009E
:1014400020912D01239520932D0130E020912E0134
:10145000231F20932E0120912F01231F20932F0162
:1014600020913001231F2093300120913101231F4F
:101470002093310180E02FEF2093360120E020936C
:101480003701582F20933401852FE3E7F1E02091B5
:101490003401220FE20F20E0F21F20813181422F20
:1014A000432B59F0813099F041E0241B40E0340B8C
:1014B00020833183422F432B51F4EFE5F1E020915B
:1014C0003401E20F20E0F21F81E0808308C0EFE5E5
:1014D000F1E020913401E20F20E0F21F80818130A1
:1014E00019F0843009F012C0E9E6F1E020E08091C3
:1014F0003401E80FF21F808120913601821730F409
:1015000080933601209134012093370120913401DA
:10151000239530913501231708F4B4CF209137017A
:101520002093340120913401222329F020913901A4
:10153000239520933901209138012395243640F0DA
:1015400020E03091390130933A0130E03093390195
:1015500020933801EDE3F1E020913401220FE20FF6
:1015600020E0F21F208131812DBF3EBFFF91EF911E
:10157000DF91CF91BF91AF919F918F917F916F91AB
:101580005F914F913F912F911F910F91FF90EF909D
:10159000DF90CF90BF90AF909F908F907F906F9093
:1015A0005F904F903F902F901F900F900FBE0F9025
:1015B0001895F894A0915101B09152012DB73EB702
:1015C0002D933D93ED93FD93A0935101B093520160
:1015D00020E020932D0120932E0120932F012093B2
:1015E0003001209331012093320120933301209365
:1015F0003401209335012093360120933701209345
:1016000038012093390120933A0120E020937000A3
:1016100020E02093B10020E02093B60080933201B7
:1016200060933301A0915101B0915201FE91EE916E
:101630003E912E912DBF3EBFA0935101B093520118
:101640000895A0915101B09152012DB73EB72D934D
:101650003D93ED93FD93A0935101B0935201E9E6C0
:10166000F1E020913401E20F20E0F21F6083EFE50A
:10167000F1E020913401E20F20E0F21F21E020830D
:1016800020913401239530E8239FE02DF12D3197EF
:10169000112427E831E0E20FF31FEDBFFEBF8F9367
:1016A0009F930F920FB60F921F9211242F923F9289
:1016B0004F925F926F927F928F929F92AF92BF9262
:1016C000CF92DF92EF92FF920F931F932F933F934E
:1016D0004F935F936F937F938F939F93AF93BF933A
:1016E000CF93DF93EF93FF932DB73EB74091340133
:1016F000440FEDE3F1E0E40F40E0F41F2193308369
:1017000020913401239520933401209135012395B4
:1017100020933501A0915101B0915201FE91EE91BB
:101720003E912E912DBF3EBFA0935101B093520127
:10173000089581E02FEF2093360120E020933701B8
:10174000582F20933401852FE3E7F1E020913401F5
:10175000220FE20F20E0F21F20813181422F432B24
:1017600059F0813099F041E0241B40E0340B208394
:101770003183422F432B51F4EFE5F1E02091340106
:10178000E20F20E0F21F81E0808308C0EFE5F1E086
:1017900020913401E20F20E0F21F8081813019F0A6
:1017A000843009F012C0E9E6F1E020E080913401D4
:1017B000E80FF21F808120913601821730F4809368
:1017C0003601209134012093370120913401239573
:1017D00030913501231708F4B4CF209137012093BD
:1017E0003401EDE3F1E020913401220FE20F20E01B
:1017F000F21F208131812DBF3EBFFF91EF91DF911C
:10180000CF91BF91AF919F918F917F916F915F9198
:101810004F913F912F911F910F91FF90EF90DF908B
:10182000CF90BF90AF909F908F907F906F905F9080
:101830004F903F902F901F900F900FBE0F90789475
:1018400020E02093700020E22093B60020E820934F
:10185000B30020E02093B40022E02093B00026E003
:101860002093B10020E02093B2002091B6002270B6
:10187000E1F72091B6002170E1F72091B6002870C1
:10188000E1F72091B6002470E1F72091B6002071B5
:10189000E1F720913700217019F021E02093370003
:1018A00020913700227019F022E020933700209118
:1018B0003700247019F024E02093370022E02093B1
:1018C000700078940895112423E531E020935101AC
:1018D00030935201A0915101B09152012DB73EB702
:1018E0002D933D93ED93FD93A0935101B09352013D
:1018F00083E062E80E94D90A84E299E1969587958F
:101900006FEF0E94210BA0915101B0915201FE9105
:10191000EE913E912E912DBF3EBFA0935101B09309
:101920005201089526E02093530020933B0120911B
:101930007A002F7720937A0020915000206820931E
:1019400050002091530021602093530088950C94FF
:10195000970C0F920FB6F8940F921F9211242F92AA
:101960003F924F925F926F927F928F929F92AF922F
:10197000BF92CF92DF92EF92FF920F931F932F931C
:101980003F934F935F936F937F938F939F93AF9307
:10199000BF93CF93DF93EF93FF93EDE3F1E02091BB
:1019A0003401220FE20F20E0F21F2DB73EB7208353
:1019B0003183E3E7F1E020913401220FE20F20E0D0
:1019C000F21F80839183EFE5F1E020913401E20F73
:1019D00020E0F21F20E0208381E02FEF20933601EA
:1019E00020E020933701582F20933401852FE3E71F
:1019F000F1E020913401220FE20F20E0F21F20815C
:101A00003181422F432B59F0813099F041E0241B62
:101A100040E0340B20833183422F432B51F4EFE518
:101A2000F1E020913401E20F20E0F21F81E0808399
:101A300008C0EFE5F1E020913401E20F20E0F21F51
:101A40008081813019F0843009F012C0E9E6F1E0BC
:101A500020E080913401E80FF21F8081209136014F
:101A6000821730F48093360120913401209337019E
:101A700020913401239530913501231708F4B4CF18
:101A80002091370120933401EDE3F1E020913401FE
:101A9000220FE20F20E0F21F208131812DBF3EBFD7
:101AA000FF91EF91DF91CF91BF91AF919F918F9176
:101AB0007F916F915F914F913F912F911F910F9166
:101AC000FF90EF90DF90CF90BF90AF909F908F905E
:101AD0007F906F905F904F903F902F901F900F904E
:101AE0000FBE0F9078940895F894E3E7F1E0209109
:101AF0003401220FE20F20E0F21F80839183EFE593
:101B0000F1E020913401E20F20E0F21F24E0208375
:101B1000789408950F920FB6F8940F921F921124A3
:101B20002F923F924F925F926F927F928F929F92ED
:101B3000AF92BF92CF92DF92EF92FF920F931F93DB
:101B40002F933F934F935F936F937F938F939F93C5
:101B5000AF93BF93CF93DF93EF93FF93EDE3F1E068
:101B600020913401220FE20F20E0F21F2DB73EB783
:101B700020833183EFE5F1E020913401E20F20E092
:101B8000F21F20E0208381E02FEF2093360120E038
:101B900020933701582F20933401852FE3E7F1E09C
:101BA00020913401220FE20F20E0F21F20813181C9
:101BB000422F432B59F0813099F041E0241B40E043
:101BC000340B20833183422F432B51F4EFE5F1E0B6
:101BD00020913401E20F20E0F21F81E0808308C0F1
:101BE000EFE5F1E020913401E20F20E0F21F808167
:101BF000813019F0843009F012C0E9E6F1E020E00C
:101C000080913401E80FF21F808120913601821704
:101C100030F48093360120913401209337012091D4
:101C20003401239530913501231708F4B4CF209166
:101C3000370120933401EDE3F1E020913401220FCC
:101C4000E20F20E0F21F208131812DBF3EBFFF91C6
:101C5000EF91DF91CF91BF91AF919F918F917F9144
:101C60006F915F914F913F912F911F910F91FF9035
:101C7000EF90DF90CF90BF90AF909F908F907F902C
:101C80006F905F904F903F902F901F900F900FBEDE
:101C90000F9078940895FC010995089520915F00B4
:101CA000F89430E8309361008093610020935F00E6
:101CB0000895282F220FE3E7F1E0E20F20E0F21F62
:101CC000808191810895282FEFE5F1E0E20F20E077
:101CD000F21F80810895809135010895282FE9E64B
:101CE000F1E0E20F20E0F21F80810895809136013B
:101CF0000895809137018A9508958091370108955C
:101D000080913A01089522E02093C000292F20936A
:101D1000C500282F2093C40026E02093C20028E0AD
:101D20002093C10008952F938093C6002091C00096
:101D300025FFFCCF2F9108958F93892F0E94930E3A
:101D40008F910E94930E08952F938093C600209147
:101D5000C00026FFFCCF2091C00020642093C0006B
:101D60002F9108950E94A40E8F93892F0E94A40E94
:101D70008F91089580934A00862F0E94A40E872F8A
:101D80000E94A40E80914A000E94A40E80934A00F3
:101D9000892F0E94A40E80914A0008950E2F1F2FB4
:101DA000282FE82FF92F80810E94A40EE02FF12F19
:101DB000822F08950E94CE0E815090406150D1F73D
:101DC0000895629FD001739FF001829FE00DF11D85
:101DD000649FE00DF11D929FF00D839FF00D749FA5
:101DE000F00D659FF00D9927729FB00DE11DF91F51
:101DF000639FB00DE11DF91FBD01CF0111240895AE
:101E0000A1E21A2EAA1BBB1BFD010DC0AA1FBB1FFE
:101E1000EE1FFF1FA217B307E407F50720F0A21B70
:101E2000B30BE40BF50B661F771F881F991F1A94DD
:101E300069F760957095809590959B01AC01BD0107
:081E4000CF010895F894FFCFD3
:101E480041434B30300050495045310050495045CE
:101E580032005049504533005049504534005049EC
:041E680050453500AC
:00000001FF
