:100000000C9434000C9451000C9451000C94510049
:100010000C9451000C9451000C9451000C9458090C
:100020000C9451000C94460A0C9451000C9451000D
:100030000C9451000C9451000C9451000C945100FC
:100040000C9451000C9451000C9451000C945100EC
:100050000C9451000C9451000C9451000C945100DC
:100060000C9451000C94510011241FBECFEFD8E026
:10007000DEBFCDBF11E0A0E0B1E0E6E1FFE102C0EC
:1000800005900D92A432B107D9F716E0A4E2B1E0D1
:1000900001C01D92A43EB107E1F70E9453000C94E9
:1000A000890F0C94000081E00E94A90E0E94BE0CF2
:1000B00083EF90E060E00E947C0B88EE90E061E0CE
:1000C0000E947C0B8FE790E062E00E947C0B84E74B
:1000D00090E063E00E947C0B83E790E00E94A60E14
:1000E0000E94F40BFFCF08950E94F90682E090E091
:1000F0000E94040D0E947B088CE291E0F9CF0E94DF
:100100005A0482E090E00E94040DF0E1FF2ECDE859
:10011000D6E08E010A5F1F4FF09295060E94DE0E18
:100120006093B5067093B6068093B7069093B806B1
:10013000292F332744275527209396069C014427CF
:10014000552720939706272F382F492F552720937F
:100150009806609399060E94AD0680938D06998358
:1001600090939A0680939B060E94B2069093900605
:1001700080938F06292F332727FD3A9520939C06DD
:1001800080939D060E94B8069093920680939106F4
:10019000292F332727FD3A9520939E0680939F06AB
:1001A0000E94B50680939306F80191838093A00680
:1001B0000E944E0485E996E06CE00E9434050E949E
:1001C00042040E94EB058CE291E00E94040DA4CF52
:1001D000529A5A9882E090E00E94040D0E947A069A
:1001E0008CE390E0F9CF0E94BB0682E090E00E9491
:1001F000040D15E80E94AD06815F9A4018F080E07A
:1002000061E002C081E060E040E00E94C206812F10
:100210008A95F1F780E060E040E00E94C2068EE13E
:1002200090E00E94040DE6CF89EB96E09093CD0616
:100230008093CC0684E08093B9061092BA0610929F
:10024000BB061092BC0621E02093BD068AE090E038
:100250009093BF068093BE061092C1061092C0060E
:100260001092C2061092C4061092C3061092C606DF
:100270001092C5061092C7062093C8061092CA06AF
:100280001092C9061092CB0608952A9A08952A98CA
:100290000895299A08952998089584B18C6284B9A3
:1002A0002498229A219A2A9A29980895249A85B105
:1002B000837C85B92A9A2998089580E58CBD81E0D0
:1002C0008DBD08951CBC1DBC08950E944D0180E5A4
:1002D0008CBD81E08DBD08951CBC1DBC0E945601E3
:1002E0000895E091CC06F091CD06118A108A128A09
:1002F0000895E091CC06F091CD068289089590E0B2
:10030000E091CC06F091CD068289882309F491E032
:10031000892F089581E08A95F1F7E091CC06F0915C
:10032000CD06808991890196918B808B895E93405F
:1003300020F0118A108A80E1828B82890895982F9B
:10034000E091CC06F091CD0682898823A9F49EBD68
:10035000118A108A128A04C00E948A01882319F423
:100360000DB407FEF9CFE091CC06F091CD0682895D
:10037000882311F48EB5089580E00895362F20E08B
:100380002827392740E061E270E1C901880F991FF1
:1003900037FF04C09C012627372701C09C014F5F0F
:1003A000483099F7C90108950F931F93CF93DF93B6
:1003B000062FEC0120E030E010E006C0C901699191
:1003C0000E94BE019C011F5F1017C0F3C901DF919D
:1003D000CF911F910F910895FF920F931F93CF9389
:1003E000DF93982F142F052FF22EE091CC06F09179
:1003F000CD068289882329F52A98662389F4892FD6
:1004000080620E949F01812F902F9C01E90110E0E2
:1004100004C089910E949F011F5F1F15D0F310C077
:10042000892F0E949F01812F902F9C01E90110E0EC
:1004300005C08FEF0E949F0189931F5F1F15C8F3AE
:100440002A9ADF91CF911F910F91FF900895E0912B
:10045000CC06F091CD068289882339F4319681EE5D
:1004600060E0AF0120E00E94EC010895AC01E09152
:10047000CC06F091CD068289882329F480EA60E0D9
:1004800020E20E94EC010895E091CC06F091CD06A7
:100490008289882311F080E008951182319687E1E6
:1004A00061E0AF0121E00E94EC01E091CC06F09107
:1004B000CD06818190E064E0969587956A95E1F795
:1004C000817008951F93E091CC06F091CD0682894A
:1004D000882329F009C0812F8A95F1F701C015E81A
:1004E0000E9444028823B9F31F910895E091CC063D
:1004F000F091CD068289882339F4319682EE60E04E
:10050000AF0120E00E94EC010895AC01E091CC061F
:10051000F091CD068289882329F481E661E020E20A
:100520000E94EC010895E091CC06F091CD068289FD
:10053000882311F080E008951182319687E161E00F
:10054000AF0121E00E94EC01E091CC06F091CD06D4
:100550008181809581700895E091CC06F091CD065F
:100560008289882311F080E00895319680E061E06F
:10057000AF0121E00E94EC01E091CC06F091CD06A4
:10058000818181FF07C080FF02C081E001C082E05D
:1005900080830895108280E00895E091CC06F09168
:1005A000CD068289882361F41182319660E0AF0123
:1005B00021E00E94EC01E091CC06F091CD06108282
:1005C0000895E091CC06F091CD068289882391F4BC
:1005D00082E781832998319680E060E0AF0121E0D5
:1005E0000E94EC010E942702E091CC06F091CD061A
:1005F00082E080830895E091CC06F091CD06828957
:10060000882381F483E78183299A319680E060E032
:10061000AF0121E00E94EC01E091CC06F091CD0603
:1006200081E080830895FF920F931F93F82E162F79
:10063000042FE091CC06F091CD068289882369F5DC
:1006400031968F2D61E0AF0121E00E94EC01E09135
:10065000CC06F091CD06002351F081E090E002C07D
:10066000880F991F1A95E2F72181282B0AC081E093
:1006700090E002C0880F991F1A95E2F780952181BA
:10068000282321834091CC065091CD064F5F5F4FC8
:100690008F2D60E021E00E94EC011F910F91FF90EF
:1006A0000895E091CC06F091CD068289882311F05F
:1006B00080E00895319685E061E0AF0121E00E947D
:1006C000EC01E091CC06F091CD0681810895982F40
:1006D000E091CC06F091CD068289882361F4892FC0
:1006E0009E3708F08DE78183319685E060E0AF01A9
:1006F00021E00E94EC010895E091CC06F091CD0636
:100700008289882311F080E00895319686E061E0C7
:10071000AF0121E00E94EC01E091CC06F091CD0602
:100720009181969596959695892F8695827081836D
:100730009170892B8283823011F4118206C081303E
:1007400019F0882311F482E0818381810895982F24
:10075000E091CC06F091CD068289882341F599235A
:1007600021F486E065E041E005C0913049F486E07F
:1007700065E040E00E94130386E063E040E00AC0C9
:10078000923059F486E065E040E00E94130386E071
:1007900063E041E00E941303089586E065E040E0D5
:1007A0000E94130386E063E041E00E941303089572
:1007B000E091CC06F091CD068289882311F080E08B
:1007C0000895319686E061E0AF0121E00E94EC01DE
:1007D000E091CC06F091CD0681818695837081836E
:1007E0000895982FE091CC06F091CD068289882358
:1007F00071F5992321F486E062E040E00BC091306E
:1008000021F486E062E040E010C0923049F486E0D6
:1008100062E041E00E94130386E061E040E00AC02C
:10082000933059F486E062E041E00E94130386E0D1
:1008300061E041E00E941303089586E062E041E038
:100840000E94130386E061E041E00E9413030895D3
:10085000E091CC06F091CD0683830895E091CC061B
:10086000F091CD0684830895E091CC06F091CD06F9
:10087000968385830895E091CC06F091CD06938709
:1008800082870895E091CC06F091CD06808188237F
:1008900021F00E94CD020E946C010895E091CC06E7
:1008A000F091CD068081882321F40E9465010E9489
:1008B000FB0208950F931F930E9414010E9465018B
:1008C000E091CC06F091CD061182319680E060E097
:1008D000AF0121E00E94EC01E091CC06F091CD0641
:1008E0001182319681E060E0AF0121E00E94EC01CD
:1008F000E091CC06F091CD0683E08183319682E0D1
:1009000060E0AF0121E00E94EC01E091CC06F091A3
:10091000CD0681E08183319683E060E0AF0121E084
:100920000E94EC01E091CC06F091CD061182319647
:1009300084E060E0AF0121E00E94EC01E091CC0690
:10094000F091CD0682E08183319685E060E0AF01D1
:1009500021E00E94EC01E091CC06F091CD0686E208
:100960008183319686E060E0AF0121E00E94EC01D6
:10097000E091CC06F091CD0680E78183319687E047
:1009800060E0AF0121E00E94EC01E091CC06F09123
:10099000CD0610E21183319681E160E0AF0121E0E4
:1009A0000E94EC01E091CC06F091CD0611833196C6
:1009B00082E160E0AF0121E00E94EC01E091CC0611
:1009C000F091CD06118231968CE160E0AF0121E01B
:1009D0000E94EC01E091CC06F091CD061182319697
:1009E0008DE160E0AF0121E00E94EC0100E011E048
:1009F00080E160E0A80125E00E94EC018AE060E06F
:100A0000A80125E00E94EC018BE060E046E051E0A7
:100A100025E00E94EC018CE060E04CE051E025E034
:100A20000E94EC018DE060E042E151E025E00E948F
:100A3000EC018EE060E048E151E025E00E94EC012D
:100A40008FE060E04EE151E025E00E94EC01E09192
:100A5000CC06F091CD0680E290E0968385830E94DB
:100A600042041F910F910895FF920F931F938C01E1
:100A7000F62EE091CC06F091CD06118A108A128AEA
:100A80000E94E102E091CC06F091CD068381F8014D
:100A9000838FE091CC06F091CD068481F801848F9C
:100AA000F58EC8016EE10E94D401F801968F878F00
:100AB000C8010E943602299A0E94620229981F9159
:100AC0000F91FF900895DF92EF92FF920F931F9383
:100AD000CF93DF937C01E091CC06F091CD06118A93
:100AE000108A128A108617820E94FB0275E8D72EA0
:100AF00023C00E949302882399F0C7010E948502B7
:100B0000F701D68DC0E0078D10E00C2B1D2BC7011F
:100B10006EE10E94D4010817190711F481E018C092
:100B20008D2D8A95F1F7E091CC06F091CD06878165
:100B30009085019690878783E091CC06F091CD0651
:100B400027813085858196812817390790F280E0CA
:100B5000DF91CF911F910F91FF90EF90DF9008955B
:100B6000CF93DF93EC01E091CC06F091CD06878521
:100B7000882319F081E08A8F01C01A8ECE010E946D
:100B80003405CE010E946305811181E0DF91CF9190
:100B90000895CF93DF93EC010E9463058823B9F099
:100BA0008A8D8130A1F4E091CC06F091CD0693813D
:100BB0008C8D981761F484EF91E00197F1F78B8D9C
:100BC0008483CE0162E00E94340581E001C080E0B0
:100BD000DF91CF910895E091CC06F091CD06828906
:100BE000882339F0118A108A128A0E946C010E94AF
:100BF0005A04089580917A0087FD1CC08FEC809381
:100C00007C0086E080937A0080917A00806C8093EB
:100C10007A0090E02DE00AC09F5F822F8A95F1F75D
:100C2000993C21F481E080933101089580917A000C
:100C300084FFF2CF0895DF92EF92FF920F931F93FC
:100C4000182FD62E0E94FA0580913101882309F0D1
:100C500040C080917C00807F812B80937C0084EF5A
:100C600091E00197F1F7EE24FF24870120E030E0C6
:100C70004DE01EC080917A00806480937A0090E0FD
:100C800008C09F5F842F8A95F1F7993C11F431E0F9
:100C900004C080917A0084FFF4CF80917800909115
:100CA0007900A0E0B0E0E80EF91E0A1F1B1F2F5FBD
:100CB0002D1500F3309331012D2D30E040E050E050
:100CC000C801B7010E94670FC901DA019C01AD019B
:100CD0000AC080933201109231010E94FA0520E08F
:100CE00030E040E050E0C9011F910F91FF90EF907C
:100CF000DF900895809124018160809324015A9AA5
:100D000086E064E00E941B069093260180932501F3
:100D10005A98A0E0B0E0BC01CD012CE33AE540E0F8
:100D200050E00E94480F2AE0969587957795679541
:100D30002A95D1F7609327017093280180932901A8
:100D400090932A01809124018E7F8093240108953D
:100D5000809125019091260108958091270190911D
:100D60002801089580E090E008950E944E090895BA
:100D70000E9449090895559A569A569A5D9A5E9A24
:100D80005F9A0895813011F45D9801C05D9A6130D9
:100D900011F45E9801C05E9A413011F45F98089595
:100DA0005F9A08951092D6061092DA061092DC0629
:100DB0001092DB061092DE061092DD061092E0061D
:100DC0001092DF061092E1061092E2061092E306FE
:100DD0001092CE061092CF061092D0061092D10635
:100DE0001092D2061092D3061092D4061092D50615
:100DF00008950E94D2065B9A539A45983D9844986C
:100E00003C980895813021F43D988093D806089548
:100E1000882319F43D9A1092D8060895813021F460
:100E20003C988093D9060895882319F43C9A10922F
:100E3000D90608953C9B04C03C9886E08A95F1F75A
:100E400086B190E024E0969587952A95E1F7817028
:100E500008953D9B02C080E0089587B182958F7010
:100E60008095817008951F938091E2068823C1F4D4
:100E700081E00E94020716E0812F8A95F1F781E058
:100E80000E940E07812F8A95F1F780E00E940E07DD
:100E9000812F8A95F1F780E00E9402071A95F1F7F9
:100EA0001F9108951F938091E2068823D9F43D99FC
:100EB00005C00E94020782E08A95F1F73C9906C0BE
:100EC00080E00E940E0782E08A95F1F781E00E949F
:100ED000020716E0812F8A95F1F781E00E940E0744
:100EE0001A95F1F71F9108951F938091E2068823C8
:100EF000D9F00E9429078823B9F40E94020712E062
:100F0000812F8A95F1F780E00E940E071A95F1F77C
:100F100081E00E94020716E0812F8A95F1F781E0B7
:100F20000E940E071A95F1F71F910895FF920F93F3
:100F30001F93082F8091E2068823F1F410E036E039
:100F4000F32E07FF02C081E001C080E00E940E077F
:100F50008F2D8A95F1F781E00E9402078F2D8A95E7
:100F6000F1F780E00E9402078F2D8A95F1F71F5F4D
:100F7000183011F0000FE5CF1F910F91FF900895E9
:100F8000FF920F931F938091E206882311F010E0E7
:100F90001FC081E00E940E0786E08A95F1F710E0FD
:100FA00000E046E0F42E110F0E941A07813009F488
:100FB000116081E00E9402078F2D8A95F1F780E091
:100FC0000E9402078F2D8A95F1F70F5F083059F7BD
:100FD000812F1F910F91FF9008951F938091E2063A
:100FE0008823F9F481E00E940E0712E0812F8A9590
:100FF000F1F781E00E9402071A95F1F70E941A07A3
:10100000882321F481E08093D70602C01092D7068E
:1010100012E0812F8A95F1F780E00E9402071A956D
:10102000F1F71F9108951F938091E2068823A1F4A0
:101030000E940E0712E0812F8A95F1F781E00E944D
:101040000207812F8A95F1F7812F8A95F1F780E0C9
:101050000E9402071A95F1F71F9108950F931F93AD
:10106000082F10E00E943307802F0E9496070E94ED
:10107000ED078091D706882311F081E009C00E9416
:1010800052071F5F1F3171F781E08093E20680E015
:101090001F910F910895FF920F931F93182F80E8CF
:1010A0000E942E0882E00E9496070E94ED07F090B1
:1010B000D706812F0E9496070E94ED070091D70660
:1010C00080E00E9496070E94ED071091D7060E94CB
:1010D00052078091E206882351F4000F110F110F7F
:1010E000102B1F29173019F085E08093E2061F911D
:1010F0000F91FF900895EF92FF920F931F935B98CB
:1011000080E29EE40197F1F71092E20680E00E94EF
:101110004B080E94330780E80E9496070E94ED0763
:101120000091D70680E00E9496070E94ED0710917B
:10113000D7060E9452078091E206882339F4110FE6
:10114000102B133019F086E08093E20680E797E1D8
:101150000197F1F781E80E942E080E94C007E82E4F
:101160000E9413080E94C007F82E0E94ED070E94FB
:1011700052070E94330780E80E9496070E94ED07FD
:101180000091D70681E00E9496070E94ED0710911A
:10119000D7060E9452078091E206882339F4110F86
:1011A000102B133019F087E08093E20680E797E177
:1011B0000197F1F781E80E942E080E94C007082FCE
:1011C0000E9413080E94C007182F0E94ED070E947A
:1011D00052070E9474075B9A8091E206882309F007
:1011E00043C06E2D70E080E090E0982F872F762F1F
:1011F00066272F2D30E040E050E0622B732B842BCC
:10120000952B22E736E040E050E00E94480F2FEF98
:101210003FEF40E050E00E94670F2059314030938B
:10122000DE062093DD06602F70E080E090E0982FCE
:10123000872F762F6627212F30E040E050E0622B89
:10124000732B842B952B24E630E040E050E00E9485
:10125000480F2FEF3FEF40E050E00E94670F3093C0
:10126000E0062093DF0604C08093E3061092E206B6
:101270001F910F91FF90EF9008958091DA060895E5
:101280008091D60608958091E20608958091E30644
:1012900008958091DD069091DE0608958091DF0625
:1012A0009091E00608958091D2069091D30608951A
:1012B000209153002E7F209353000F920FB60F9270
:1012C0001F9211242F923F924F925F926F927F92C2
:1012D0008F929F92AF92BF92CF92DF92EF92FF9246
:1012E0000F931F932F933F934F935F936F937F932E
:1012F0008F939F93AF93BF93CF93DF93EF93FF931E
:10130000E3E4F1E020913A01220FE20F20E0F21F26
:101310002DB73EB72083318321E030913301320F66
:101320003093330120E030913401321F3093340187
:1013300030913501321F3093350130913601321F23
:101340003093360130913701321F3093370180E0FE
:101350002FEF20933C0120E020933D01582F209354
:101360003A01852FE9E7F1E020913A01220FE20FDF
:1013700020E0F21F20813181422F432B59F0813030
:1013800099F041E0241B40E0340B20833183422F4D
:10139000432B51F4E5E6F1E020913A01E20F20E021
:1013A000F21F81E0808308C0E5E6F1E020913A0178
:1013B000E20F20E0F21F8081813019F0843009F0C3
:1013C00012C0EFE6F1E020E080913A01E80FF21F51
:1013D000808120913C01821730F480933C01209160
:1013E0003A0120933D0120913A01239530913B0130
:1013F000231708F4B4CF20913D0120933A012091A6
:101400003A01222329F020913F01239520933F01A7
:1014100020913E012395243640F020E030913F0199
:101420003093400130E030933F0120933E01E3E4EC
:10143000F1E020913A01220FE20F20E0F21F20811B
:1014400031812DBF3EBFFF91EF91DF91CF91BF91D1
:10145000AF919F918F917F916F915F914F913F914C
:101460002F911F910F91FF90EF90DF90CF90BF9041
:10147000AF909F908F907F906F905F904F903F9034
:101480002F901F900F900FBE0F9018952091530032
:101490002E7F209353000F920FB60F921F921124AC
:1014A0002F923F924F925F926F927F928F929F9274
:1014B000AF92BF92CF92DF92EF92FF920F931F9362
:1014C0002F933F934F935F936F937F938F939F934C
:1014D000AF93BF93CF93DF93EF93FF93E3E4F1E0F8
:1014E00020913A01220FE20F20E0F21F2DB73EB704
:1014F0002083318321E030913301320F3093330167
:1015000020E030913401321F3093340130913501A5
:10151000321F3093350130913601321F309336013E
:1015200030913701321F3093370180E02FEF209345
:101530003C0120E020933D01582F20933A01852F54
:10154000E9E7F1E020913A01220FE20F20E0F21FDB
:1015500020813181422F432B59F0813099F041E0B5
:10156000241B40E0340B20833183422F432B51F462
:10157000E5E6F1E020913A01E20F20E0F21F81E080
:10158000808308C0E5E6F1E020913A01E20F20E017
:10159000F21F8081813019F0843009F012C0EFE62B
:1015A000F1E020E080913A01E80FF21F8081209164
:1015B0003C01821730F480933C0120913A01209342
:1015C0003D0120913A01239530913B01231708F406
:1015D000B4CF20913D0120933A0120913A0122237A
:1015E00029F020913F01239520933F0120913E0156
:1015F0002395243640F020E030913F0130934001A4
:1016000030E030933F0120933E01E3E4F1E020918C
:101610003A01220FE20F20E0F21F208131812DBF1D
:101620003EBFFF91EF91DF91CF91BF91AF919F911D
:101630008F917F916F915F914F913F912F911F916A
:101640000F91FF90EF90DF90CF90BF90AF909F9061
:101650008F907F906F905F904F903F902F901F9052
:101660000F900FBE0F901895F894A0915701B0916C
:1016700058012DB73EB72D933D93ED93FD93A09365
:101680005701B093580120E0209333012093340197
:1016900020933501209336012093370120933801A0
:1016A0002093390120933A0120933B0120933C0180
:1016B00020933D0120933E0120933F012093400160
:1016C00020E02093700020E02093B10020E02093E0
:1016D000B6008093380160933901A0915701B09111
:1016E0005801FE91EE913E912E912DBF3EBFA093E9
:1016F0005701B09358010895A0915701B091580136
:101700002DB73EB72D933D93ED93FD93A0935701D5
:10171000B0935801EFE6F1E020913A01E20F20E0AA
:10172000F21F6083E5E6F1E020913A01E20F20E04C
:10173000F21F21E0208320913A01239530E8239F76
:10174000E02DF12D319711242DE831E0E20FF31F48
:10175000EDBFFEBF8F939F930F920FB60F921F9214
:1017600011242F923F924F925F926F927F928F92AD
:101770009F92AF92BF92CF92DF92EF92FF920F9320
:101780001F932F933F934F935F936F937F938F9309
:101790009F93AF93BF93CF93DF93EF93FF932DB7B7
:1017A0003EB740913A01440FE3E4F1E0E40F40E03A
:1017B000F41F2193308320913A01239520933A011D
:1017C00020913B01239520933B01A0915701B091BB
:1017D0005801FE91EE913E912E912DBF3EBFA093F8
:1017E0005701B0935801089581E02FEF20933C01F9
:1017F00020E020933D01582F20933A01852FE9E7FF
:10180000F1E020913A01220FE20F20E0F21F208147
:101810003181422F432B59F0813099F041E0241B54
:1018200040E0340B20833183422F432B51F4E5E613
:10183000F1E020913A01E20F20E0F21F81E0808385
:1018400008C0E5E6F1E020913A01E20F20E0F21F46
:101850008081813019F0843009F012C0EFE6F1E0A8
:1018600020E080913A01E80FF21F808120913C0135
:10187000821730F480933C0120913A0120933D017E
:1018800020913A01239530913B01231708F4B4CFFE
:1018900020913D0120933A01E3E4F1E020913A01E7
:1018A000220FE20F20E0F21F208131812DBF3EBFC9
:1018B000FF91EF91DF91CF91BF91AF919F918F9168
:1018C0007F916F915F914F913F912F911F910F9158
:1018D000FF90EF90DF90CF90BF90AF909F908F9050
:1018E0007F906F905F904F903F902F901F900F9040
:1018F0000FBE0F90789420E02093700020E2209398
:10190000B60020E82093B30020E02093B40022E04A
:101910002093B00026E02093B10020E02093B20095
:101920002091B6002270E1F72091B6002170E1F716
:101930002091B6002870E1F72091B6002470E1F7FD
:101940002091B6002071E1F720913700217019F045
:1019500021E02093370020913700227019F022E017
:101960002093370020913700247019F024E0209351
:10197000370022E02093700078940895112429E51F
:1019800031E02093570130935801A0915701B09155
:1019900058012DB73EB72D933D93ED93FD93A09342
:1019A0005701B093580183E062E80E94340B8AED3E
:1019B00099E1969587956FEF0E947C0BA091570156
:1019C000B0915801FE91EE913E912E912DBF3EBFF8
:1019D000A0935701B0935801089526E02093530037
:1019E0002093410120917A002F7720937A00209153
:1019F00050002068209350002091530021602093D4
:101A0000530088950C94F20C0F920FB6F8940F9235
:101A10001F9211242F923F924F925F926F927F926A
:101A20008F929F92AF92BF92CF92DF92EF92FF92EE
:101A30000F931F932F933F934F935F936F937F93D6
:101A40008F939F93AF93BF93CF93DF93EF93FF93C6
:101A5000E3E4F1E020913A01220FE20F20E0F21FCF
:101A60002DB73EB720833183E9E7F1E020913A01B9
:101A7000220FE20F20E0F21F80839183E5E6F1E080
:101A800020913A01E20F20E0F21F20E0208381E064
:101A90002FEF20933C0120E020933D01582F20930D
:101AA0003A01852FE9E7F1E020913A01220FE20F98
:101AB00020E0F21F20813181422F432B59F08130E9
:101AC00099F041E0241B40E0340B20833183422F06
:101AD000432B51F4E5E6F1E020913A01E20F20E0DA
:101AE000F21F81E0808308C0E5E6F1E020913A0131
:101AF000E20F20E0F21F8081813019F0843009F07C
:101B000012C0EFE6F1E020E080913A01E80FF21F09
:101B1000808120913C01821730F480933C01209118
:101B20003A0120933D0120913A01239530913B01E8
:101B3000231708F4B4CF20913D0120933A01E3E448
:101B4000F1E020913A01220FE20F20E0F21F208104
:101B500031812DBF3EBFFF91EF91DF91CF91BF91BA
:101B6000AF919F918F917F916F915F914F913F9135
:101B70002F911F910F91FF90EF90DF90CF90BF902A
:101B8000AF909F908F907F906F905F904F903F901D
:101B90002F901F900F900FBE0F9078940895F89497
:101BA000E9E7F1E020913A01220FE20F20E0F21F75
:101BB00080839183E5E6F1E020913A01E20F20E095
:101BC000F21F24E02083789408950F920FB6F894C2
:101BD0000F921F9211242F923F924F925F926F9219
:101BE0007F928F929F92AF92BF92CF92DF92EF92AD
:101BF000FF920F931F932F933F934F935F936F9396
:101C00007F938F939F93AF93BF93CF93DF93EF9384
:101C1000FF93E3E4F1E020913A01220FE20F20E08C
:101C2000F21F2DB73EB720833183E5E6F1E0209126
:101C30003A01E20F20E0F21F20E0208381E02FEF45
:101C400020933C0120E020933D01582F20933A013E
:101C5000852FE9E7F1E020913A01220FE20F20E021
:101C6000F21F20813181422F432B59F0813099F0AE
:101C700041E0241B40E0340B20833183422F432B6F
:101C800051F4E5E6F1E020913A01E20F20E0F21F85
:101C900081E0808308C0E5E6F1E020913A01E20F9F
:101CA00020E0F21F8081813019F0843009F012C0E9
:101CB000EFE6F1E020E080913A01E80FF21F808129
:101CC00020913C01821730F480933C0120913A012D
:101CD00020933D0120913A01239530913B01231738
:101CE00008F4B4CF20913D0120933A01E3E4F1E000
:101CF00020913A01220FE20F20E0F21F2081318172
:101D00002DBF3EBFFF91EF91DF91CF91BF91AF917A
:101D10009F918F917F916F915F914F913F912F9103
:101D20001F910F91FF90EF90DF90CF90BF90AF90F9
:101D30009F908F907F906F905F904F903F902F90EB
:101D40001F900F900FBE0F9078940895FC01099595
:101D5000089520915F00F89430E8309361008093FB
:101D6000610020935F000895282F220FE9E7F1E03A
:101D7000E20F20E0F21F808191810895282FE5E68F
:101D8000F1E0E20F20E0F21F8081089580913B0195
:101D90000895282FEFE6F1E0E20F20E0F21F8081A6
:101DA000089580913C01089580913D018A950895A0
:101DB00080913D0108958091400108952FB7F894D6
:101DC0006091330170913401809135019091360119
:101DD0002FBF089522E02093C000292F2093C50033
:101DE000282F2093C40026E02093C20028E02093EF
:101DF000C10008952F938093C6002091C00025FF55
:101E0000FCCF2F9108958F93892F0E94FA0E8F9106
:101E10000E94FA0E08952F938093C6002091C0006F
:101E200026FFFCCF2091C00020642093C0002F919A
:101E300008950E940B0F8F93892F0E940B0F8F9193
:101E4000089580934A00862F0E940B0F872F0E94CF
:101E50000B0F80914A000E940B0F80934A00892F3C
:101E60000E940B0F80914A0008950E2F1F2F282FDC
:101E7000E82FF92F80810E940B0FE02FF12F822F86
:101E800008950E94350F815090406150D1F7089518
:101E9000629FD001739FF001829FE00DF11D649F4E
:101EA000E00DF11D929FF00D839FF00D749FF00DDA
:101EB000659FF00D9927729FB00DE11DF91F639F7B
:101EC000B00DE11DF91FBD01CF0111240895A1E25C
:101ED0001A2EAA1BBB1BFD010DC0AA1FBB1FEE1FA4
:101EE000FF1FA217B307E407F50720F0A21BB30BEF
:101EF000E40BF50B661F771F881F991F1A9469F76B
:101F000060957095809590959B01AC01BD01CF01C6
:061F10000895F894FFCFD4
:101F160041434B30300050495045310050495045FF
:101F2600320050495045330050495045340050491D
:041F360050453500DD
:00000001FF
