:100000000C9445000C9457000C9457000C94570026
:100010000C9457000C9457000C9457000C94160144
:100020000C9457000C9407020C9457000C94570042
:100030000C9457000C9457000C9457000C945700E4
:100040000C9457000C9457000C9457000C945700D4
:100050000C9457000C9457000C9457000C945700C4
:100060000C9457000C9457000000000000000000A2
:10007000000000001CC0DAC01AC0C9C100000000A6
:10008000000000000000000012C011241FBECFEFCE
:10009000D8E0DEBFCDBF16E0A0E0B1E001C01D9208
:1000A000A336B107E1F70E9459000C94B8060C94EE
:1000B00000000E94820485E990E065E00E94400310
:1000C00089EA90E061E00E94400380E990E062E00C
:1000D0000E94400381E790E00E9469060E94B803F5
:1000E000FFCF089586E490E00E94C704FBCF86E42A
:1000F00090E00E94C704FBCF86E490E00E94C70412
:10010000FBCF86E490E00E94C704FBCF86E490E03A
:100110000E94C704FBCF86E490E00E94C704FBCF97
:1001200086E490E00E94C704FBCFCF93DF938AB1AF
:10013000806E8AB98BB1806E8BB9C0EADFE05E98C1
:10014000CE010197F1F75E9A8EE190E00E94C7041C
:10015000F6CF529A5A9886E064E00E94C80088E57B
:1001600092E00E94C704F7CF80917A0087FD0FC00C
:100170008FEC80937C0086E080937A0080917A00F7
:10018000806C80937A0080917A0084FFFCCF089580
:10019000DF92EF92FF920F931F93182FD62E0E949B
:1001A000B40080917C00807F812B80937C00EE24C2
:1001B000FF24870120E014C080917A00806480933E
:1001C0007A0080917A0084FFFCCF80917800909132
:1001D0007900A0E0B0E0E80EF91E0A1F1B1F2F5F98
:1001E0002D1550F32D2D30E040E050E0C801B7014F
:1001F0000E949606C9011F910F91FF90EF90DF902A
:100200000895809100018160809300015A9A86E0F0
:1002100064E00E94C80090930201809301015A9A01
:10022000809100018E7F80930001089520915300FA
:100230002E7F209353000F920FB60F921F9211241E
:100240002F923F924F925F926F927F928F929F92E6
:10025000AF92BF92CF92DF92EF92FF920F931F93D4
:100260002F933F934F935F936F937F938F939F93BE
:10027000AF93BF93CF93DF93EF93FF93E9E1F1E067
:1002800020911001220FE20F20E0F21F2DB73EB7A0
:100290002083318320910F01209346002091090192
:1002A00023952093090130E020910A01231F209318
:1002B0000A0120910B01231F20930B0120910C01B7
:1002C000231F20930C0120910D01231F20930D016A
:1002D00080E02FEF2093120120E020931301582F8C
:1002E00020931001852FEFE4F1E020911001220FFF
:1002F000E20F20E0F21F20813181422F432B59F081
:10030000813099F041E0241B40E0340B208331839D
:10031000422F432B51F4EBE3F1E020911001E20F67
:1003200020E0F21F81E0808308C0EBE3F1E0209140
:100330001001E20F20E0F21F8081813019F084303B
:1003400009F012C0E5E4F1E020E080911001E80F2F
:10035000F21F808120911201821730F480931201E4
:1003600020911001209313012091100123953091C9
:100370001101231708F4B4CF209113012093100129
:1003800020911001222329F020911501239520931B
:100390001501209114012395243640F020E030917E
:1003A00015013093160130E03093150120931401AC
:1003B000E9E1F1E020911001220FE20F20E0F21FAD
:1003C000208131812DBF3EBFFF91EF91DF91CF9111
:1003D000BF91AF919F918F917F916F915F914F915D
:1003E0003F912F911F910F91FF90EF90DF90CF9051
:1003F000BF90AF909F908F907F906F905F904F9045
:100400003F902F901F900F900FBE0F901895209146
:1004100053002E7F209353000F920FB60F921F921E
:1004200011242F923F924F925F926F927F928F9200
:100430009F92AF92BF92CF92DF92EF92FF920F9373
:100440001F932F933F934F935F936F937F938F935C
:100450009F93AF93BF93CF93DF93EF93FF93E9E124
:10046000F1E020911001220FE20F20E0F21F2DB7E2
:100470003EB72083318320910F01209346002091C5
:10048000090123952093090130E020910A01231FDF
:1004900020930A0120910B01231F20930B0120912F
:1004A0000C01231F20930C0120910D01231F209389
:1004B0000D0180E02FEF2093120120E02093130123
:1004C000582F20931001852FEFE4F1E020911001C7
:1004D000220FE20F20E0F21F20813181422F432BB7
:1004E00059F0813099F041E0241B40E0340B208327
:1004F0003183422F432B51F4EBE3F1E020911001C3
:10050000E20F20E0F21F81E0808308C0EBE3F1E01E
:1005100020911001E20F20E0F21F8081813019F05C
:10052000843009F012C0E5E4F1E020E08091100190
:10053000E80FF21F808120911201821730F480931E
:100540001201209110012093130120911001239595
:1005500030911101231708F4B4CF20911301209397
:10056000100120911001222329F0209115012395DB
:1005700020931501209114012395243640F020E0AA
:10058000309115013093160130E03093150120931E
:100590001401E9E1F1E020911001220FE20F20E0C7
:1005A000F21F208131812DBF3EBFFF91EF91DF917E
:1005B000CF91BF91AF919F918F917F916F915F91FB
:1005C0004F913F912F911F910F91FF90EF90DF90EE
:1005D000CF90BF90AF909F908F907F906F905F90E3
:1005E0004F903F902F901F900F900FBE0F90189537
:1005F000F894A0912D01B0912E012DB73EB72D9307
:100600003D93ED93FD93A0932D01B0932E0120E037
:100610002093090120930A0120930B0120930C01E0
:1006200020930D0120930E0120930F0120931001C0
:1006300020931101209312012093130120931401A0
:10064000209315012093160120E02093700020E0F4
:100650002093B10020E02093B60080930E016093B8
:100660000F01A0912D01B0912E01FE91EE913E91CE
:100670002E912DBF3EBFA0932D01B0932E01089562
:10068000A0912D01B0912E012DB73EB72D933D9332
:10069000ED93FD93A0932D01B0932E01E5E4F1E0DD
:1006A00020911001E20F20E0F21F6083EBE3F1E004
:1006B00020911001E20F20E0F21F21E02083209121
:1006C0001001239530E8239FE02DF12D319711245F
:1006D00023E631E0E20FF31FEDBFFEBF8F939F9340
:1006E0000F920FB60F921F9211242F923F924F92AA
:1006F0005F926F927F928F929F92AF92BF92CF92B2
:10070000DF92EF92FF920F931F932F933F934F939C
:100710005F936F937F938F939F93AF93BF93CF9389
:10072000DF93EF93FF932DB73EB740911001440F35
:10073000E9E1F1E0E40F40E0F41F219330832091E0
:1007400010012395209310012091110123952093EE
:100750001101A0912D01B0912E01FE91EE913E91DB
:100760002E912DBF3EBFA0932D01B0932E01089571
:1007700081E02FEF2093120120E020931301582FE6
:1007800020931001852FEFE4F1E020911001220F5A
:10079000E20F20E0F21F20813181422F432B59F0DC
:1007A000813099F041E0241B40E0340B20833183F9
:1007B000422F432B51F4EBE3F1E020911001E20FC3
:1007C00020E0F21F81E0808308C0EBE3F1E020919C
:1007D0001001E20F20E0F21F8081813019F0843097
:1007E00009F012C0E5E4F1E020E080911001E80F8B
:1007F000F21F808120911201821730F48093120140
:100800002091100120931301209110012395309124
:100810001101231708F4B4CF209113012093100184
:10082000E9E1F1E020911001220FE20F20E0F21F38
:10083000208131812DBF3EBFFF91EF91DF91CF919C
:10084000BF91AF919F918F917F916F915F914F91E8
:100850003F912F911F910F91FF90EF90DF90CF90DC
:10086000BF90AF909F908F907F906F905F904F90D0
:100870003F902F901F900F900FBE0F90789420E024
:100880002093700020E22093B60026E62093B30068
:1008900020E02093B40022E02093B00023E02093D6
:1008A000B10020E02093B2002091B6002270E1F761
:1008B0002091B6002170E1F72091B6002870E1F791
:1008C0002091B6002470E1F72091B6002071E1F785
:1008D00020913700217019F021E0209337002091FA
:1008E0003700227019F022E0209337002091370062
:1008F000247019F024E02093370022E02093700048
:100900007894089511242FE231E020932D01309343
:100910002E01A0912D01B0912E012DB73EB72D9340
:100920003D93ED93FD93A0932D01B0932E0183E0B1
:1009300062E80E94F80282E699E0969587956FEF4B
:100940000E944003A0912D01B0912E01FE91EE91E5
:100950003E912E912DBF3EBFA0932D01B0932E014D
:10096000089526E0209353002093170120917A00E8
:100970002F7E20937A002091500020682093500011
:10098000209153002160209353008895EFCF0F9260
:100990000FB6F8940F921F9211242F923F924F920C
:1009A0005F926F927F928F929F92AF92BF92CF92FF
:1009B000DF92EF92FF920F931F932F933F934F93EA
:1009C0005F936F937F938F939F93AF93BF93CF93D7
:1009D000DF93EF93FF93E9E1F1E020911001220F03
:1009E000E20F20E0F21F2DB73EB720833183EFE402
:1009F000F1E020911001220FE20F20E0F21F80832E
:100A00009183EBE3F1E020911001E20F20E0F21F6F
:100A100020E0208381E02FEF2093120120E020933B
:100A20001301582F20931001852FEFE4F1E020915E
:100A30001001220FE20F20E0F21F20813181422FAE
:100A4000432B59F0813099F041E0241B40E0340BF6
:100A500020833183422F432B51F4EBE3F1E02091CB
:100A60001001E20F20E0F21F81E0808308C0EBE379
:100A7000F1E020911001E20F20E0F21F808181302F
:100A800019F0843009F012C0E5E4F1E020E0809133
:100A90001001E80FF21F808120911201821730F4BB
:100AA00080931201209110012093130120911001D5
:100AB000239530911101231708F4B4CF209113012D
:100AC00020931001E9E1F1E020911001220FE20FE3
:100AD00020E0F21F208131812DBF3EBFFF91EF91B9
:100AE000DF91CF91BF91AF919F918F917F916F9146
:100AF0005F914F913F912F911F910F91FF90EF9038
:100B0000DF90CF90BF90AF909F908F907F906F902D
:100B10005F904F903F902F901F900F900FBE0F90BF
:100B200078940895F894EFE4F1E020911001220FF9
:100B3000E20F20E0F21F80839183EBE3F1E020914C
:100B40001001E20F20E0F21F24E020837894089542
:100B50000F920FB6F8940F921F9211242F923F928A
:100B60004F925F926F927F928F929F92AF92BF92BD
:100B7000CF92DF92EF92FF920F931F932F933F93A9
:100B80004F935F936F937F938F939F93AF93BF9395
:100B9000CF93DF93EF93FF93E9E1F1E02091100110
:100BA000220FE20F20E0F21F2DB73EB720833183E2
:100BB000EBE3F1E020911001E20F20E0F21F20E0D2
:100BC000208381E02FEF2093120120E02093130176
:100BD000582F20931001852FEFE4F1E020911001B0
:100BE000220FE20F20E0F21F20813181422F432BA0
:100BF00059F0813099F041E0241B40E0340B208310
:100C00003183422F432B51F4EBE3F1E020911001AB
:100C1000E20F20E0F21F81E0808308C0EBE3F1E007
:100C200020911001E20F20E0F21F8081813019F045
:100C3000843009F012C0E5E4F1E020E08091100179
:100C4000E80FF21F808120911201821730F4809307
:100C5000120120911001209313012091100123957E
:100C600030911101231708F4B4CF20911301209380
:100C70001001E9E1F1E020911001220FE20F20E0E4
:100C8000F21F208131812DBF3EBFFF91EF91DF9197
:100C9000CF91BF91AF919F918F917F916F915F9114
:100CA0004F913F912F911F910F91FF90EF90DF9007
:100CB000CF90BF90AF909F908F907F906F905F90FC
:100CC0004F903F902F901F900F900FBE0F907894F1
:100CD0000895FC0109950895282F220FEFE4F1E013
:100CE000E20F20E0F21F808191810895282FEBE32D
:100CF000F1E0E20F20E0F21F808108958091110160
:100D00000895282FE5E4F1E0E20F20E0F21F808152
:100D10000895809112010895809113018A95089594
:100D2000809113010895809116010895A1E21A2E71
:100D3000AA1BBB1BFD010DC0AA1FBB1FEE1FFF1F7F
:100D4000A217B307E407F50720F0A21BB30BE40BCF
:100D5000F50B661F771F881F991F1A9469F7609516
:100D60007095809590959B01AC01BD01CF010895D0
:040D7000F894FFCF25
:00000001FF
