:100000000C9434000C9451000C9451000C94510049
:100010000C9451000C9451000C9451000C94FC0869
:100020000C9451000C94ED090C9451000C94510067
:100030000C9451000C9451000C9451000C945100FC
:100040000C9451000C9451000C9451000C945100EC
:100050000C9451000C9451000C9451000C945100DC
:100060000C9451000C94510011241FBECFEFD8E026
:10007000DEBFCDBF11E0A0E0B1E0E2E5FEE102C0ED
:1000800005900D92A432B107D9F716E0A4E2B1E0D1
:1000900001C01D92A63BB107E1F70E9453000C94EA
:1000A000270F0C94000081E00E94530E80E090E046
:1000B0000E94880E0E94680C8CED90E060E00E9427
:1000C000260B81ED90E061E00E94260B83E890E032
:1000D00062E00E94260B88E790E063E00E94260B16
:1000E00087E790E00E94500E0E949E0BFFCF08957C
:1000F0000E949D0682E090E00E94AE0C0E941F08C4
:1001000088E790E0F9CF0F931F93DF93CF93CDB79C
:10011000DEB7A0970FB6F894DEBF0FBECDBF0E942A
:100120003C0482E090E00E94AE0C8E010F5F1F4FF6
:100130000E94510699838A830E945606292F3327ED
:1001400027FD3A952B838C830E945C06292F332749
:1001500027FD3A952D838E830E9459068F838981CE
:100160000E94980E8A810E94980E8B810E94980EA0
:100170008C810E94980E8D810E94980E8E810E9423
:10018000980E8F810E94980E0E943004C80167E08B
:100190000E9416050E9424048CE390E00E94AE0C9D
:1001A000C7CF529A5A9882E090E00E94AE0C0E940B
:1001B0001E068EE190E0F9CF1F930E945F0682E059
:1001C00090E00E94AE0C15E881E060E040E00E9403
:1001D0006606812F8A95F1F780E060E040E00E949A
:1001E00066068AE090E00E94AE0CEECF8BE896E0C7
:1001F00090939F0680939E0684E080938B061092D6
:100200008C0610928D0610928E0621E020938F06A8
:100210008AE090E090939106809390061092930666
:1002200010929206109294061092960610929506DD
:1002300010929806109297061092990620939A06AB
:1002400010929C0610929B0610929D0608952A9A81
:1002500008952A980895299A08952998089584B1AF
:100260008C6284B92498229A219A2A9A299808950E
:10027000249A85B1837C85B92A9A2998089580E5C6
:100280008CBD81E08DBD08951CBC1DBC08950E94ED
:100290002F0180E58CBD81E08DBD08951CBC1DBC87
:1002A0000E9438010895E0919E06F0919F06118A00
:1002B000108A128A0895E0919E06F0919F06828925
:1002C000089590E0E0919E06F0919F068289882330
:1002D00009F491E0892F089581E08A95F1F7E09182
:1002E0009E06F0919F06808991890196918B808B63
:1002F000895E934020F0118A108A80E1828B828986
:100300000895982FE0919E06F0919F068289882398
:10031000A9F49EBD118A108A128A04C00E946C0141
:10032000882319F40DB407FEF9CFE0919E06F091F1
:100330009F068289882311F48EB5089580E0089580
:10034000362F20E02827392740E061E270E1C9011B
:10035000880F991F37FF04C09C012627372701C04B
:100360009C014F5F483099F7C90108950F931F937F
:10037000CF93DF93062FEC0120E030E010E006C0C1
:10038000C90169910E94A0019C011F5F1017C0F371
:10039000C901DF91CF911F910F910895FF920F93A3
:1003A0001F93CF93DF93982F142F052FF22EE091F8
:1003B0009E06F0919F068289882329F52A98662354
:1003C00089F4892F80620E948101812F902F9C01E6
:1003D000E90110E004C089910E9481011F5F1F158F
:1003E000D0F310C0892F0E948101812F902F9C0192
:1003F000E90110E005C08FEF0E94810189931F5F22
:100400001F15C8F32A9ADF91CF911F910F91FF908A
:100410000895E0919E06F0919F068289882339F421
:10042000319681EE60E0AF0120E00E94CE01089598
:10043000AC01E0919E06F0919F068289882329F401
:1004400080EA60E020E20E94CE010895E0919E06DD
:10045000F0919F068289882311F080E0089511822F
:10046000319687E161E0AF0121E00E94CE01E09189
:100470009E06F0919F06818190E064E096958795B5
:100480006A95E1F7817008951F93E0919E06F091BF
:100490009F068289882329F009C0812F8A95F1F768
:1004A00001C015E80E9426028823B9F31F91089520
:1004B000E0919E06F0919F068289882339F4319657
:1004C00082EE60E0AF0120E00E94CE010895AC0111
:1004D000E0919E06F0919F068289882329F481E6A7
:1004E00061E020E20E94CE010895E0919E06F09125
:1004F0009F068289882311F080E008951182319649
:1005000087E161E0AF0121E00E94CE01E0919E060B
:10051000F0919F068181809581700895E0919E06FB
:10052000F0919F068289882311F080E0089531962A
:1005300080E061E0AF0121E00E94CE01E0919E06E3
:10054000F0919F06818181FF07C080FF02C081E09A
:1005500001C082E080830895108280E00895E091D8
:100560009E06F0919F068289882361F4118231965C
:1005700060E0AF0121E00E94CE01E0919E06F09183
:100580009F0610820895E0919E06F0919F06828951
:10059000882391F482E781832998319680E060E096
:1005A000AF0121E00E94CE010E940902E0919E0667
:1005B000F0919F0682E080830895E0919E06F0917D
:1005C0009F068289882381F483E78183299A319663
:1005D00080E060E0AF0121E00E94CE01E0919E0644
:1005E000F0919F0681E080830895FF920F931F93FF
:1005F000F82E162F042FE0919E06F0919F06828917
:10060000882369F531968F2D61E0AF0121E00E94CA
:10061000CE01E0919E06F0919F06002351F081E00B
:1006200090E002C0880F991F1A95E2F72181282BCC
:100630000AC081E090E002C0880F991F1A95E2F786
:10064000809521812823218340919E0650919F0609
:100650004F5F5F4F8F2D60E021E00E94CE011F9120
:100660000F91FF900895E0919E06F0919F06828978
:10067000882311F080E00895319685E061E0AF01B4
:1006800021E00E94CE01E0919E06F0919F068181BB
:100690000895982FE0919E06F0919F068289882305
:1006A00061F4892F9E3708F08DE78183319685E0CC
:1006B00060E0AF0121E00E94CE010895E0919E0626
:1006C000F0919F068289882311F080E00895319689
:1006D00086E061E0AF0121E00E94CE01E0919E063C
:1006E000F0919F069181969596959695892F86957E
:1006F000827081839170892B8283823011F4118200
:1007000006C0813019F0882311F482E08183818151
:100710000895982FE0919E06F0919F068289882384
:1007200041F5992321F486E065E041E005C0913070
:1007300049F486E065E040E00E94F50286E063E06F
:1007400040E00AC0923059F486E065E040E00E9443
:10075000F50286E063E041E00E94F502089586E03C
:1007600065E040E00E94F50286E063E041E00E941F
:10077000F5020895E0919E06F0919F0682898823F4
:1007800011F080E00895319686E061E0AF0121E04C
:100790000E94CE01E0919E06F0919F068181869590
:1007A000837081830895982FE0919E06F0919F06B3
:1007B0008289882371F5992321F486E062E040E084
:1007C0000BC0913021F486E062E040E010C092302E
:1007D00049F486E062E041E00E94F50286E061E0D3
:1007E00040E00AC0933059F486E062E041E00E94A4
:1007F000F50286E061E041E00E94F502089586E09E
:1008000062E041E00E94F50286E061E041E00E9482
:10081000F5020895E0919E06F0919F068383089566
:10082000E0919E06F0919F0684830895E0919E06D4
:10083000F0919F06968385830895E0919E06F0913E
:100840009F06938782870895E0919E06F0919F0608
:100850008081882321F00E94AF020E944E010895FA
:10086000E0919E06F0919F068081882321F40E94EA
:1008700047010E94DD0208950F931F930E94F60026
:100880000E944701E0919E06F0919F0611823196E9
:1008900080E060E0AF0121E00E94CE01E0919E0681
:1008A000F0919F061182319681E060E0AF0121E076
:1008B0000E94CE01E0919E06F0919F0683E0818325
:1008C000319682E060E0AF0121E00E94CE01E0912C
:1008D0009E06F0919F0681E08183319683E060E07F
:1008E000AF0121E00E94CE01E0919E06F0919F06AB
:1008F0001182319684E060E0AF0121E00E94CE01D8
:10090000E0919E06F0919F0682E08183319685E01A
:1009100060E0AF0121E00E94CE01E0919E06F091DF
:100920009F0686E28183319686E060E0AF0121E098
:100930000E94CE01E0919E06F0919F0680E78183A0
:10094000319687E060E0AF0121E00E94CE01E091A6
:100950009E06F0919F0610E21183319681E160E0DE
:10096000AF0121E00E94CE01E0919E06F0919F062A
:100970001183319682E160E0AF0121E00E94CE0157
:10098000E0919E06F0919F06118231968CE160E025
:10099000AF0121E00E94CE01E0919E06F0919F06FA
:1009A000118231968DE160E0AF0121E00E94CE011D
:1009B00000E011E080E160E0A80125E00E94CE01A6
:1009C0008AE060E0A80125E00E94CE018BE060E0B3
:1009D00046E051E025E00E94CE018CE060E04CE072
:1009E00051E025E00E94CE018DE060E042E151E05F
:1009F00025E00E94CE018EE060E048E151E025E074
:100A00000E94CE018FE060E04EE151E025E00E94BF
:100A1000CE01E0919E06F0919F0680E290E09683E1
:100A200085830E9424041F910F910895FF920F93D4
:100A30001F938C01F62EE0919E06F0919F06118A7D
:100A4000108A128A0E94C302E0919E06F0919F06CE
:100A50008381F801838FE0919E06F0919F06848147
:100A6000F801848FF58EC8016EE10E94B601F8018D
:100A7000968F878FC8010E941802299A0E9444020B
:100A800029981F910F91FF900895DF92EF92FF92A6
:100A90000F931F93CF93DF937C01E0919E06F0911B
:100AA0009F06118A108A128A108617820E94DD0220
:100AB00075E8D72E23C00E947502882399F0C701DC
:100AC0000E946702F701D68DC0E0078D10E00C2B65
:100AD0001D2BC7016EE10E94B6010817190711F41A
:100AE00081E018C08D2D8A95F1F7E0919E06F09176
:100AF0009F0687819085019690878783E0919E0667
:100B0000F0919F06278130858581968128173907C6
:100B100090F280E0DF91CF911F910F91FF90EF90C5
:100B2000DF900895CF93DF93EC01E0919E06F09162
:100B30009F068785882319F081E08A8F01C01A8E6D
:100B4000CE010E941605CE010E944505811181E06B
:100B5000DF91CF910895CF93DF93EC010E9445057B
:100B60008823B9F08A8D8130A1F4E0919E06F0913E
:100B70009F0693818C8D981761F484EF91E0019723
:100B8000F1F78B8D8483CE0162E00E94160581E02F
:100B900001C080E0DF91CF91089580917A0087FDB8
:100BA0000FC08FEC80937C0086E080937A00809168
:100BB0007A00806C80937A0080917A0084FFFCCF69
:100BC0000895DF92EF92FF920F931F93182FD62E66
:100BD0000E94CD0580917C00807F812B80937C00DA
:100BE00084EF91E00197F1F7EE24FF24870120E0E4
:100BF00014C080917A00806480937A0080917A009A
:100C000084FFFCCF8091780090917900A0E0B0E063
:100C1000E80EF91E0A1F1B1F2F5F2D1550F32D2DF7
:100C200030E040E050E0C801B7010E94050FC90163
:100C30001F910F91FF90EF90DF9008958091240114
:100C40008160809324015A9A86E064E00E94E10565
:100C500090932601809325015A98A0E0B0E0BC0152
:100C6000CD012CE33AE540E050E00E94E60E2AE098
:100C700096958795779567952A95D1F76093270183
:100C8000709328018093290190932A018091240177
:100C90008E7F8093240108958091250190912601F3
:100CA00008958091270190912801089580E090E0B7
:100CB00008950E94F20808950E94ED080895559A3B
:100CC000569A569A5D9A5E9A5F9A0895813011F409
:100CD0005D9801C05D9A613011F45E9801C05E9A22
:100CE000413011F45F9808955F9A08951092A80614
:100CF0001092AC061092AE061092AD061092B0069D
:100D00001092AF061092B2061092B1061092B3067E
:100D10001092B4061092B5061092A0061092A10689
:100D20001092A2061092A3061092A4061092A50695
:100D30001092A6061092A70608950E9476065B9A66
:100D4000539A45983D9844983C980895813021F4F1
:100D50003D988093AA060895882319F43D9A10922D
:100D6000AA060895813021F43C988093AB0608953B
:100D7000882319F43C9A1092AB0608953C9B04C05A
:100D80003C9886E08A95F1F786B190E024E096954C
:100D900087952A95E1F7817008953D9B02C080E018
:100DA000089587B182958F708095817008951F9303
:100DB0008091B4068823C1F481E00E94A60616E063
:100DC000812F8A95F1F781E00E94B206812F8A95E2
:100DD000F1F780E00E94B206812F8A95F1F780E05A
:100DE0000E94A6061A95F1F71F9108951F9380910E
:100DF000B4068823D9F43D9905C00E94A60682E076
:100E00008A95F1F73C9906C080E00E94B20682E024
:100E10008A95F1F781E00E94A60616E0812F8A9557
:100E2000F1F781E00E94B2061A95F1F71F9108953B
:100E30001F938091B4068823D9F00E94CD068823A1
:100E4000B9F40E94A60612E0812F8A95F1F780E09E
:100E50000E94B2061A95F1F781E00E94A60616E0FC
:100E6000812F8A95F1F781E00E94B2061A95F1F779
:100E70001F910895FF920F931F93082F8091B4063E
:100E80008823F1F410E036E0F32E07FF02C081E082
:100E900001C080E00E94B2068F2D8A95F1F781E0B3
:100EA0000E94A6068F2D8A95F1F780E00E94A60683
:100EB0008F2D8A95F1F71F5F183011F0000FE5CFE5
:100EC0001F910F91FF900895FF920F931F938091B0
:100ED000B406882311F010E01FC081E00E94B20622
:100EE00086E08A95F1F710E000E046E0F42E110F5D
:100EF0000E94BE06813009F4116081E00E94A606BE
:100F00008F2D8A95F1F780E00E94A6068F2D8A9595
:100F1000F1F70F5F083059F7812F1F910F91FF9064
:100F200008951F938091B4068823F9F481E00E940C
:100F3000B20612E0812F8A95F1F781E00E94A606A1
:100F40001A95F1F70E94BE06882321F481E0809370
:100F5000A90602C01092A90612E0812F8A95F1F726
:100F600080E00E94A6061A95F1F71F9108951F933D
:100F70008091B4068823A1F40E94B20612E0812F6A
:100F80008A95F1F781E00E94A606812F8A95F1F7F4
:100F9000812F8A95F1F780E00E94A6061A95F1F755
:100FA0001F9108950F931F93082F10E00E94D706FA
:100FB000802F0E943A070E9491078091A9068823FA
:100FC00011F081E009C00E94F6061F5F1F3171F722
:100FD00081E08093B40680E01F910F910895FF9205
:100FE0000F931F93182F80E80E94D20782E00E947F
:100FF0003A070E949107F090A906812F0E943A07B4
:101000000E9491070091A90680E00E943A070E9481
:1010100091071091A9060E94F6068091B4068823D4
:1010200051F4000F110F110F102B1F29173019F059
:1010300085E08093B4061F910F91FF900895EF9281
:10104000FF920F931F935B9880E29EE40197F1F764
:101050001092B40680E00E94EF070E94D70680E855
:101060000E943A070E9491070091A90680E00E9421
:101070003A070E9491071091A9060E94F6068091F6
:10108000B406882339F4110F102B133019F086E0C1
:101090008093B40680E797E10197F1F781E80E9419
:1010A000D2070E946407E82E0E94B7070E946407D7
:1010B000F82E0E9491070E94F6060E94D70680E84B
:1010C0000E943A070E9491070091A90681E00E94C0
:1010D0003A070E9491071091A9060E94F606809196
:1010E000B406882339F4110F102B133019F087E060
:1010F0008093B40680E797E10197F1F781E80E94B9
:10110000D2070E946407082F0E94B7070E94640755
:10111000182F0E9491070E94F6060E9418075B9AFA
:101120008091B406882309F043C06E2D70E080E002
:1011300090E0982F872F762F66272F2D30E040E004
:1011400050E0622B732B842B952B22E736E040E096
:1011500050E00E94E60E2FEF3FEF40E050E00E948B
:10116000050F205931403093B0062093AF06602F11
:1011700070E080E090E0982F872F762F6627212F50
:1011800030E040E050E0622B732B842B952B24E65B
:1011900030E040E050E00E94E60E2FEF3FEF40E0ED
:1011A00050E00E94050F3093B2062093B10604C0B0
:1011B0008093B5061092B4061F910F91FF90EF90A7
:1011C00008958091AC0608958091A80608958091B5
:1011D000B40608958091B50608958091AF06909168
:1011E000B00608958091B1069091B206089580915D
:1011F000A4069091A5060895209153002E7F209378
:1012000053000F920FB60F921F9211242F923F920C
:101210004F925F926F927F928F929F92AF92BF9206
:10122000CF92DF92EF92FF920F931F932F933F93F2
:101230004F935F936F937F938F939F93AF93BF93DE
:10124000CF93DF93EF93FF93E1E4F1E02091380136
:10125000220FE20F20E0F21F2DB73EB7208331832B
:10126000209137012093460020913101239520934E
:10127000310130E020913201231F2093320120916F
:101280003301231F2093330120913401231F209326
:10129000340120913501231F2093350180E02FEF89
:1012A00020933A0120E020933B01582F20933801EE
:1012B000852FE7E7F1E020913801220FE20F20E0CF
:1012C000F21F20813181422F432B59F0813099F058
:1012D00041E0241B40E0340B20833183422F432B19
:1012E00051F4E3E6F1E020913801E20F20E0F21F33
:1012F00081E0808308C0E3E6F1E020913801E20F4D
:1013000020E0F21F8081813019F0843009F012C092
:10131000EDE6F1E020E080913801E80FF21F8081D6
:1013200020913A01821730F480933A0120913801DC
:1013300020933B01209138012395309139012317E7
:1013400008F4B4CF20913B0120933801209138015B
:10135000222329F020913D01239520933D012091E6
:101360003C012395243640F020E030913D0130933C
:101370003E0130E030933D0120933C01E1E4F1E097
:1013800020913801220FE20F20E0F21F20813181ED
:101390002DBF3EBFFF91EF91DF91CF91BF91AF91F4
:1013A0009F918F917F916F915F914F913F912F917D
:1013B0001F910F91FF90EF90DF90CF90BF90AF9073
:1013C0009F908F907F906F905F904F903F902F9065
:1013D0001F900F900FBE0F901895209153002E7FF5
:1013E000209353000F920FB60F921F9211242F9249
:1013F0003F924F925F926F927F928F929F92AF92A5
:10140000BF92CF92DF92EF92FF920F931F932F9391
:101410003F934F935F936F937F938F939F93AF937C
:10142000BF93CF93DF93EF93FF93E1E4F1E020913B
:101430003801220FE20F20E0F21F2DB73EB72083C4
:10144000318320913701209346002091310123956B
:101450002093310130E020913201231F209332018B
:1014600020913301231F2093330120913401231F46
:101470002093340120913501231F2093350180E012
:101480002FEF20933A0120E020933B01582F209327
:101490003801852FE7E7F1E020913801220FE20FB4
:1014A00020E0F21F20813181422F432B59F08130FF
:1014B00099F041E0241B40E0340B20833183422F1C
:1014C000432B51F4E3E6F1E020913801E20F20E0F4
:1014D000F21F81E0808308C0E3E6F1E0209138014B
:1014E000E20F20E0F21F8081813019F0843009F092
:1014F00012C0EDE6F1E020E080913801E80FF21F24
:10150000808120913A01821730F480933A01209132
:10151000380120933B012091380123953091390106
:10152000231708F4B4CF20913B0120933801209178
:101530003801222329F020913D01239520933D017C
:1015400020913C012395243640F020E030913D016C
:1015500030933E0130E030933D0120933C01E1E4C3
:10156000F1E020913801220FE20F20E0F21F2081EC
:1015700031812DBF3EBFFF91EF91DF91CF91BF91A0
:10158000AF919F918F917F916F915F914F913F911B
:101590002F911F910F91FF90EF90DF90CF90BF9010
:1015A000AF909F908F907F906F905F904F903F9003
:1015B0002F901F900F900FBE0F901895F894A09148
:1015C0005501B09156012DB73EB72D933D93ED9344
:1015D000FD93A0935501B093560120E02093310173
:1015E000209332012093330120933401209335015D
:1015F000209336012093370120933801209339013D
:1016000020933A0120933B0120933C0120933D011C
:1016100020933E0120E02093700020E02093B10051
:1016200020E02093B6008093360160933701A091AB
:101630005501B0915601FE91EE913E912E912DBF34
:101640003EBFA0935501B09356010895A091550156
:10165000B09156012DB73EB72D933D93ED93FD9379
:10166000A0935501B0935601EDE6F1E020913801C9
:10167000E20F20E0F21F6083E3E6F1E02091380101
:10168000E20F20E0F21F21E0208320913801239512
:1016900030E8239FE02DF12D319711242BE831E024
:1016A000E20FF31FEDBFFEBF8F939F930F920FB614
:1016B0000F921F9211242F923F924F925F926F923E
:1016C0007F928F929F92AF92BF92CF92DF92EF92D2
:1016D000FF920F931F932F933F934F935F936F93BB
:1016E0007F938F939F93AF93BF93CF93DF93EF93AA
:1016F000FF932DB73EB740913801440FE1E4F1E08C
:10170000E40F40E0F41F21933083209138012395AA
:101710002093380120913901239520933901A0911C
:101720005501B0915601FE91EE913E912E912DBF43
:101730003EBFA0935501B0935601089581E02FEF6D
:1017400020933A0120E020933B01582F2093380149
:10175000852FE7E7F1E020913801220FE20F20E02A
:10176000F21F20813181422F432B59F0813099F0B3
:1017700041E0241B40E0340B20833183422F432B74
:1017800051F4E3E6F1E020913801E20F20E0F21F8E
:1017900081E0808308C0E3E6F1E020913801E20FA8
:1017A00020E0F21F8081813019F0843009F012C0EE
:1017B000EDE6F1E020E080913801E80FF21F808132
:1017C00020913A01821730F480933A012091380138
:1017D00020933B0120913801239530913901231743
:1017E00008F4B4CF20913B0120933801E1E4F1E00B
:1017F00020913801220FE20F20E0F21F2081318179
:101800002DBF3EBFFF91EF91DF91CF91BF91AF917F
:101810009F918F917F916F915F914F913F912F9108
:101820001F910F91FF90EF90DF90CF90BF90AF90FE
:101830009F908F907F906F905F904F903F902F90F0
:101840001F900F900FBE0F90789420E020937000AF
:1018500020E22093B60020E82093B30020E02093FC
:10186000B40022E02093B00026E02093B10020E0F5
:101870002093B2002091B6002270E1F72091B600CB
:101880002170E1F72091B6002870E1F72091B600B1
:101890002470E1F72091B6002071E1F72091370024
:1018A000217019F021E02093370020913700227039
:1018B00019F022E02093370020913700247019F0AE
:1018C00024E02093370022E020937000789408955C
:1018D000112427E531E02093550130935601A09162
:1018E0005501B09156012DB73EB72D933D93ED9321
:1018F000FD93A0935501B093560183E062E80E94E6
:10190000DE0A8EE299E1969587956FEF0E94260B8D
:10191000A0915501B0915601FE91EE913E912E910C
:101920002DBF3EBFA0935501B0935601089526E008
:101930002093530020933F0120917A002F7720932A
:101940007A0020915000206820935000209153008D
:1019500021602093530088950C949C0C0F920FB635
:10196000F8940F921F9211242F923F924F925F9200
:101970006F927F928F929F92AF92BF92CF92DF929F
:10198000EF92FF920F931F932F933F934F935F9389
:101990006F937F938F939F93AF93BF93CF93DF9377
:1019A000EF93FF93E1E4F1E020913801220FE20F81
:1019B00020E0F21F2DB73EB720833183E7E7F1E047
:1019C00020913801220FE20F20E0F21F80839183E3
:1019D000E3E6F1E020913801E20F20E0F21F20E081
:1019E000208381E02FEF20933A0120E020933B01F8
:1019F000582F20933801852FE7E7F1E02091380137
:101A0000220FE20F20E0F21F20813181422F432B71
:101A100059F0813099F041E0241B40E0340B2083E1
:101A20003183422F432B51F4E3E6F1E0209138015A
:101A3000E20F20E0F21F81E0808308C0E3E6F1E0DE
:101A400020913801E20F20E0F21F8081813019F0EF
:101A5000843009F012C0EDE6F1E020E08091380119
:101A6000E80FF21F808120913A01821730F48093B1
:101A70003A012091380120933B01209138012395B0
:101A800030913901231708F4B4CF20913B01209302
:101A90003801E1E4F1E020913801220FE20F20E06B
:101AA000F21F208131812DBF3EBFFF91EF91DF9169
:101AB000CF91BF91AF919F918F917F916F915F91E6
:101AC0004F913F912F911F910F91FF90EF90DF90D9
:101AD000CF90BF90AF909F908F907F906F905F90CE
:101AE0004F903F902F901F900F900FBE0F907894C3
:101AF0000895F894E7E7F1E020913801220FE20F12
:101B000020E0F21F80839183E3E6F1E02091380129
:101B1000E20F20E0F21F24E02083789408950F92D2
:101B20000FB6F8940F921F9211242F923F924F926A
:101B30005F926F927F928F929F92AF92BF92CF925D
:101B4000DF92EF92FF920F931F932F933F934F9348
:101B50005F936F937F938F939F93AF93BF93CF9335
:101B6000DF93EF93FF93E1E4F1E020913801220F3E
:101B7000E20F20E0F21F2DB73EB720833183E3E66A
:101B8000F1E020913801E20F20E0F21F20E02083F5
:101B900081E02FEF20933A0120E020933B01582F62
:101BA00020933801852FE7E7F1E020913801220FDB
:101BB000E20F20E0F21F20813181422F432B59F0A8
:101BC000813099F041E0241B40E0340B20833183C5
:101BD000422F432B51F4E3E6F1E020913801E20F6C
:101BE00020E0F21F81E0808308C0E3E6F1E020916D
:101BF0003801E20F20E0F21F8081813019F084303B
:101C000009F012C0EDE6F1E020E080913801E80F24
:101C1000F21F808120913A01821730F480933A01BB
:101C20002091380120933B01209138012395309178
:101C30003901231708F4B4CF20913B0120933801D8
:101C4000E1E4F1E020913801220FE20F20E0F21FE1
:101C5000208131812DBF3EBFFF91EF91DF91CF9168
:101C6000BF91AF919F918F917F916F915F914F91B4
:101C70003F912F911F910F91FF90EF90DF90CF90A8
:101C8000BF90AF909F908F907F906F905F904F909C
:101C90003F902F901F900F900FBE0F907894089553
:101CA000FC010995089520915F00F89430E8309385
:101CB00061008093610020935F000895282F220F18
:101CC000E7E7F1E0E20F20E0F21F808191810895C3
:101CD000282FE3E6F1E0E20F20E0F21F8081089573
:101CE000809139010895282FEDE6F1E0E20F20E020
:101CF000F21F8081089580913A01089580913B01FF
:101D00008A95089580913B01089580913E01089540
:101D100022E02093C000292F2093C500282F209374
:101D2000C40026E02093C20028E02093C10008955B
:101D30002F938093C6002091C00025FFFCCF2F91E8
:101D400008958F93892F0E94980E8F910E94980E6C
:101D500008952F938093C6002091C00026FFFCCFEA
:101D60002091C00020642093C0002F9108950E940C
:101D7000A90E8F93892F0E94A90E8F9108958093A9
:101D80004A00862F0E94A90E872F0E94A90E8091DB
:101D90004A000E94A90E80934A00892F0E94A90E32
:101DA00080914A0008950E2F1F2F282FE82FF92F1A
:101DB00080810E94A90EE02FF12F822F08950E94AA
:101DC000D30E815090406150D1F70895629FD001A9
:101DD000739FF001829FE00DF11D649FE00DF11DE6
:101DE000929FF00D839FF00D749FF00D659FF00D95
:101DF0009927729FB00DE11DF91F639FB00DE11D82
:101E0000F91FBD01CF0111240895A1E21A2EAA1BCA
:101E1000BB1BFD010DC0AA1FBB1FEE1FFF1FA2179A
:101E2000B307E407F50720F0A21BB30BE40BF50B97
:101E3000661F771F881F991F1A9469F76095709520
:101E4000809590959B01AC01BD01CF010895F89458
:021E5000FFCFC2
:101E520041434B30300050495045310050495045C4
:101E620032005049504533005049504534005049E2
:041E720050453500A2
:00000001FF
