:100000000C9445000C9462000C9462000C94620005
:100010000C9462000C9462000C9462000C94D6065E
:100020000C9462000C94C7070C9462000C9462005C
:100030000C9462000C9462000C9462000C946200B8
:100040000C9462000C9462000C9462000C946200A8
:100050000C9462000C9462000C9462000C94620098
:100060000C9462000C94620000000000000000008C
:100070000000000027C09AC625C089C70000000004
:1000800000000000000000001DC011241FBECFEFC3
:10009000D8E0DEBFCDBF11E0A0E0B1E0E4EFF8E1D1
:1000A00002C005900D92A630B107D9F716E0A6E080
:1000B000B1E001C01D92A439B107E1F70E946400CC
:1000C0000C94780C0C9400000E94420A82EA90E0A2
:1000D00065E00E9400098DEB90E061E00E9400095C
:1000E00086EB90E062E00E9400098BE990E063E01B
:1000F0000E94000981E890E00E94290C0E94780982
:10010000FFCF089586E490E00E94870AFBCF86E443
:1001100090E00E94870AFBCF86E490E00E94870A65
:10012000FBCF86E490E00E94870AFBCF86E490E054
:100130000E94870AFBCF539A5B9A8EE190E00E945F
:10014000870AFBCFCF93DF938AB1806E8AB98BB1D8
:10015000806E8BB9C0EADFE05E98CE010197F1F7BF
:100160005E9A8EE190E00E94870AF6CF0E94EC052D
:100170008EE190E00E94870AFBCF529A5A9886E05F
:1001800064E00E9488068CE390E00E94870AF7CF23
:100190001092690691E090936A0610926B06109295
:1001A0006C0690936D0682E080936E061092720644
:1001B000109271062AE030E03093700620936F06AB
:1001C00084E1809373063093750620937406109231
:1001D0007706109276069093780610927906109220
:1001E0007A0690937B0610927C0610927D068FE132
:1001F00080937F068EE180937E06809385068DE155
:10020000809380068CE1809381068BE18093820647
:100210008AE18093830689E18093840688E1809354
:100220008606109288061092870610928906109210
:100230008A060895882311F0259A0895259808952F
:10024000882311F0249A089524980895882311F0A2
:10025000239A089523980895882311F0229A0895E7
:1002600022980895882311F0219A089521980895DD
:10027000882311F02D9A08952D980895882311F060
:100280002C9A08952C980895882311F02B9A08959C
:100290002B980895882311F02A9A08952A98089592
:1002A000882311F0299A089529980895259A249869
:1002B000239A229A219A2A9A2998229A0895259A6D
:1002C000249A239A229A219A2D982C982B982A9A2C
:1002D0002998089580E58CBD81E08DBD1DBC0895F1
:1002E0001CBC1DBC08950E94560180E58CBD81E0B8
:1002F0008DBD1DBC80936A0608951CBC1DBC0E9468
:100300005F0110926A06089510928906089510926E
:100310008806109287060895EAE8F6E0119286E0D2
:10032000E439F807D9F708951092890610928806E3
:1003300010928706EAE8F6E0119286E0E439F807C1
:10034000D9F70895809389060895809189060895C4
:10035000E9E6F6E0E80FF11D81A10895E8ECF0E090
:100360003197F1F720918706309188062F5F3F4F34
:10037000309388062093870640E08217930708F49D
:1003800041E0842F089590E080918906882309F444
:1003900091E0892F0895362F20E02827392740E063
:1003A00061E270E1C901880F991F37FF04C09C0109
:1003B0002627372701C09C014F5F483099F7C901B4
:1003C00008950F931F93CF93DF93062FEC0120E046
:1003D00030E010E006C0C90169910E94CB019C0188
:1003E0001F5F1017C0F3C901DF91CF911F910F91CB
:1003F0000895982F80918906882369F49EBD90E026
:100400002AE10BC0822F8A95F1F79F5F993C29F46E
:1004100081E08093890680E008950DB407FEF2CF55
:100420008EB50895DF92EF92FF920F931F93CF93B3
:10043000DF93182F062FF42EE52ED22E80918906F9
:10044000882359F580916A06882311F40E9473016C
:100450002A98002389F4812F80620E94F9018F2D50
:100460009E2D9C01E90110E004C089910E94F901D0
:100470001F5F1D15D0F310C0812F0E94F9018F2D31
:100480009E2D9C01E90110E005C08FEF0E94F9014B
:1004900089931F5F1D15C8F32A9ADF91CF911F9191
:1004A0000F91FF90EF90DF900895FF920F931F93AD
:1004B000F82E062F142F80918906882341F58F2D61
:1004C00061E04BE656E021E00E94120220916B06AB
:1004D000112359F081E090E002C0880F991F0A951E
:1004E000E2F7282B20936B060BC081E090E002C05E
:1004F000880F991F0A95E2F78095822380936B06F7
:100500008F2D60E04BE656E021E00E9412021F9121
:100510000F91FF90089581EE60E04BE656E020E0F9
:100520000E94120280918906882319F082E080934C
:100530008906089582EE60E04BE656E020E00E94D6
:10054000120280918906882319F083E0809389063E
:100550000895AC0180EA60E020E20E9412028091DE
:100560008906882319F084E0809389060895AC01F8
:1005700081E661E020E20E941202809189068823D0
:1005800019F085E080938906089580918906882373
:1005900011F080E0089510926B0687E161E04BE670
:1005A00056E021E00E94120280916B0690E064E028
:1005B000969587956A95E1F78170089580918906EF
:1005C000882311F080E0089510926B0687E161E0C6
:1005D0004BE656E021E00E94120280916B06809566
:1005E00081700895CF93DF93809189068823C9F4A1
:1005F0001092880610928706C8ECD0E014C0CE0195
:100600000197F1F780918706909188060196909363
:100610008806809387068536910528F086E08093CA
:10062000890680E005C00E94C502882341F381E06D
:10063000DF91CF91089580918906882351F410921B
:100640006B0660E04BE656E021E00E941202109239
:1006500069060E947D01089580916A06882311F43D
:100660000E94730180918906882361F410926B06C1
:10067000299860E04BE656E021E00E94120281E0FA
:1006800080936906089580916A06882311F40E9478
:10069000730180918906882371F483E780936B0648
:1006A000299A80E060E04BE656E021E00E941202C9
:1006B00082E080936906089580916A06882311F488
:1006C0000E94730180918906882379F482E78093E0
:1006D0006B06299880E060E04BE656E021E00E943E
:1006E0001202299A83E0809369060895982F8091D9
:1006F00089068823B1F4992319F40E941B030895F5
:10070000913019F40E942C030895923019F40E943C
:1007100043030895933019F40E945C0308950E94E6
:100720004303089580918906882311F080E008959D
:1007300080E061E04BE656E021E00E9412028091E9
:100740006B0681FF08C080FF02C082E001C083E029
:1007500080936906089581E0809369060895982F33
:1007600080918906882369F4892F993708F088E7F2
:1007700080936B0685E060E04BE656E021E00E9446
:100780001202089580918906882311F080E008956F
:1007900085E061E04BE656E021E00E941202809184
:1007A0006B060895882321F486E065E041E005C0EA
:1007B000813049F486E065E040E00E94550286E021
:1007C00063E040E008C086E065E040E00E9455023A
:1007D00086E063E041E00E94550208958091890619
:1007E000882311F080E0089586E061E04BE656E052
:1007F00021E00E94120290916B06892F82958270EF
:1008000080936B069695969596959170982B9093FC
:100810006C06923019F410926B060AC0913019F4EC
:1008200090936B0605C0992319F482E080936B06C0
:1008300080916B060895982F80918906882371F521
:10084000992321F486E062E040E00BC0913021F46E
:1008500086E062E040E010C0923049F486E062E059
:1008600041E00E94550286E061E040E00AC093301A
:1008700059F486E062E041E00E94550286E061E0C2
:1008800041E00E945502089586E062E041E00E9446
:10089000550286E061E041E00E9455020895809192
:1008A0008906882311F080E0089586E061E04BE638
:1008B00056E021E00E94120280916B0686958370BB
:1008C00080936B06089580936D06089580916D0660
:1008D000089580936E06089580916E060895909312
:1008E0007206809371060895809171069091720648
:1008F00008959093700680936F06089580916F0617
:1009000090917006089590937506809374060895EB
:1009100080917406909175060895FF920F931F932E
:100920008C01F62E109289060E948B028091860619
:10093000F801E80FF11D80917C0680838091840688
:10094000F801E80FF11D809178068083809183067D
:10095000F801E80FF11D80917B068083809182066B
:10096000F801E80FF11D80916D068083809181066A
:10097000F801E80FF11D80916E068083809180065A
:10098000F801E80FF11DF082C801609185060E9410
:10099000E10120917E06F801E20FF11D9083909114
:1009A0007F06F801E90FF11D8083C8010E94A902AA
:1009B00083E00E9476030E94F2021F910F91FF9044
:1009C0000895CF92DF92EF92FF920F931F93CF93F0
:1009D000DF93EC0110928906109272061092710654
:1009E00078ECC72ED12C3CC00E94DE02882361F136
:1009F000CE010E94B70280917E06FE01E80FF11D34
:100A0000F080EE2480917F06FE01E80FF11D008149
:100A100010E00E291F29CE01609185060E94E10198
:100A200008171907E9F480918406FE01E80FF11D0B
:100A300080818093790680918606C80FD11D8881B8
:100A400080937C0681E019C0C6010197F1F780917F
:100A500071069091720601969093720680937106CA
:100A6000209171063091720680916F069091700608
:100A70002817390708F4B8CF80E0DF91CF911F9194
:100A80000F91FF90EF90DF90CF900895EF92FF923B
:100A90000F931F93DF93CF93CDB7DEB7A0970FB619
:100AA000F894DEBF0FBECDBFE0906F06F0907006E9
:100AB00025E030E03093700620936F060E948D048D
:100AC00080917B068823A1F08E010F5F1F4FC80124
:100AD0000E94E104882361F080918106080F111DB6
:100AE00090916D06F8018081981711F481E001C0A2
:100AF00080E0F0927006E0926F06A0960FB6F89430
:100B0000DEBF0FBECDBFCF91DF911F910F91FF9040
:100B1000EF9008950F931F93DF93CF93CDB7DEB778
:100B2000A0970FB6F894DEBF0FBECDBF8C018EE745
:100B30009EE5AEE7B0E089839A83AB83BC83FE0178
:100B400035968CE1DF011D928A95E9F7C8010E9474
:100B5000E1048823A9F180918306F801E80FF11DD3
:100B6000808180FF2DC080918106F801E80FF11D82
:100B700090916D068081981719F588EE93E00197A2
:100B8000F1F780918206F801E80FF11D80818093D2
:100B90006E0680918406F801E80FF11D8081809334
:100BA000780680918606080F111DF80180818093D8
:100BB0007C06CE01019663E00E948D0481E001C0B5
:100BC00080E0A0960FB6F894DEBF0FBECDBFCF91E8
:100BD000DF911F910F910895FF920F931F930E9431
:100BE000C8000E9473010BE616E010926B0680E0CD
:100BF00060E0A80121E00E94120210926B0681E0E1
:100C000060E0A80121E00E94120283E080936B065D
:100C100082E060E0A80121E00E94120281E080935E
:100C20006B0683E060E0A80121E00E9412021092AE
:100C30006B0684E060E0A80121E00E94120282E0DD
:100C400080936B0685E060E0A80121E00E9412021B
:100C500086E280936B0686E060E0A80121E00E94B6
:100C6000120280E780936B0687E060E0A80121E034
:100C70000E941202E0E2FE2EF0926B0681E160E03B
:100C8000A80121E00E941202F0926B0682E160E06E
:100C9000A80121E00E94120210926B068CE160E034
:100CA000A80121E00E94120210926B068DE160E023
:100CB000A80121E00E94120200E011E080E160E062
:100CC000A80125E00E9412028AE060E0A80125E068
:100CD0000E94120284E00E94D20380E00E94760308
:100CE0001F910F91FF90089580917A0087FD0FC0AA
:100CF0008FEC80937C0086E080937A0080917A006C
:100D0000806C80937A0080917A0084FFFCCF0895F4
:100D1000DF92EF92FF920F931F93182FD62E0E940F
:100D2000740680917C00807F812B80937C00EE2470
:100D3000FF24870120E014C080917A0080648093B2
:100D40007A0080917A0084FFFCCF809178009091A6
:100D50007900A0E0B0E0E80EF91E0A1F1B1F2F5F0C
:100D60002D1550F32D2D30E040E050E0C801B701C3
:100D70000E94560CC9011F910F91FF90EF90DF90D8
:100D80000895809106018160809306015A9A86E059
:100D900064E00E94880690930801809307015A9AA4
:100DA000809106018E7F8093060108952091530063
:100DB0002E7F209353000F920FB60F921F92112493
:100DC0002F923F924F925F926F927F928F929F925B
:100DD000AF92BF92CF92DF92EF92FF920F931F9349
:100DE0002F933F934F935F936F937F938F939F9333
:100DF000AF93BF93CF93DF93EF93FF93EFE1F1E0D6
:100E000020911601220FE20F20E0F21F2DB73EB70E
:100E100020833183209115012093460020910F01FA
:100E2000239520930F0130E020911001231F209380
:100E3000100120911101231F209311012091120113
:100E4000231F2093120120911301231F20931301CC
:100E500080E02FEF2093180120E020931901582FF4
:100E600020931601852FE5E5F1E020911601220F70
:100E7000E20F20E0F21F20813181422F432B59F0F5
:100E8000813099F041E0241B40E0340B2083318312
:100E9000422F432B51F4E1E4F1E020911601E20FDF
:100EA00020E0F21F81E0808308C0E1E4F1E02091BE
:100EB0001601E20F20E0F21F8081813019F08430AA
:100EC00009F012C0EBE4F1E020E080911601E80F98
:100ED000F21F808120911801821730F4809318014D
:100EE000209116012093190120911601239530912C
:100EF0001701231708F4B4CF20911901209316018C
:100F000020911601222329F020911B012395209383
:100F10001B0120911A012395243640F020E03091E6
:100F20001B0130931C0130E030931B0120931A0108
:100F3000EFE1F1E020911601220FE20F20E0F21F15
:100F4000208131812DBF3EBFFF91EF91DF91CF9185
:100F5000BF91AF919F918F917F916F915F914F91D1
:100F60003F912F911F910F91FF90EF90DF90CF90C5
:100F7000BF90AF909F908F907F906F905F904F90B9
:100F80003F902F901F900F900FBE0F9018952091BB
:100F900053002E7F209353000F920FB60F921F9293
:100FA00011242F923F924F925F926F927F928F9275
:100FB0009F92AF92BF92CF92DF92EF92FF920F93E8
:100FC0001F932F933F934F935F936F937F938F93D1
:100FD0009F93AF93BF93CF93DF93EF93FF93EFE193
:100FE000F1E020911601220FE20F20E0F21F2DB751
:100FF0003EB7208331832091150120934600209134
:101000000F01239520930F0130E020911001231F41
:101010002093100120911101231F20931101209191
:101020001201231F2093120120911301231F2093EB
:10103000130180E02FEF2093180120E02093190185
:10104000582F20931601852FE5E5F1E02091160138
:10105000220FE20F20E0F21F20813181422F432B2B
:1010600059F0813099F041E0241B40E0340B20839B
:101070003183422F432B51F4E1E4F1E0209116013A
:10108000E20F20E0F21F81E0808308C0E1E4F1E09C
:1010900020911601E20F20E0F21F8081813019F0CB
:1010A000843009F012C0EBE4F1E020E080911601F9
:1010B000E80FF21F808120911801821730F480938D
:1010C00018012091160120931901209116012395F2
:1010D00030911701231708F4B4CF20911901209300
:1010E000160120911601222329F020911B0123953E
:1010F00020931B0120911A012395243640F020E013
:1011000030911B0130931C0130E030931B01209380
:101110001A01EFE1F1E020911601220FE20F20E029
:10112000F21F208131812DBF3EBFFF91EF91DF91F2
:10113000CF91BF91AF919F918F917F916F915F916F
:101140004F913F912F911F910F91FF90EF90DF9062
:10115000CF90BF90AF909F908F907F906F905F9057
:101160004F903F902F901F900F900FBE0F901895AB
:10117000F894A0913301B09134012DB73EB72D936F
:101180003D93ED93FD93A0933301B093340120E0A0
:1011900020930F012093100120931101209312013D
:1011A000209313012093140120931501209316011D
:1011B00020931701209318012093190120931A01FD
:1011C00020931B0120931C0120E02093700020E05D
:1011D0002093B10020E02093B60080931401609327
:1011E0001501A0913301B0913401FE91EE913E9131
:1011F0002E912DBF3EBFA0933301B09334010895CB
:10120000A0913301B09134012DB73EB72D933D939A
:10121000ED93FD93A0933301B0933401EBE4F1E03F
:1012200020911601E20F20E0F21F6083E1E4F1E07B
:1012300020911601E20F20E0F21F21E0208320918F
:101240001601239530E8239FE02DF12D31971124CD
:1012500029E631E0E20FF31FEDBFFEBF8F939F93AE
:101260000F920FB60F921F9211242F923F924F921E
:101270005F926F927F928F929F92AF92BF92CF9226
:10128000DF92EF92FF920F931F932F933F934F9311
:101290005F936F937F938F939F93AF93BF93CF93FE
:1012A000DF93EF93FF932DB73EB740911601440FA4
:1012B000EFE1F1E0E40F40E0F41F2193308320914F
:1012C0001601239520931601209117012395209351
:1012D0001701A0913301B0913401FE91EE913E913E
:1012E0002E912DBF3EBFA0933301B09334010895DA
:1012F00081E02FEF2093180120E020931901582F4F
:1013000020931601852FE5E5F1E020911601220FCB
:10131000E20F20E0F21F20813181422F432B59F050
:10132000813099F041E0241B40E0340B208331836D
:10133000422F432B51F4E1E4F1E020911601E20F3A
:1013400020E0F21F81E0808308C0E1E4F1E0209119
:101350001601E20F20E0F21F8081813019F0843005
:1013600009F012C0EBE4F1E020E080911601E80FF3
:10137000F21F808120911801821730F480931801A8
:101380002091160120931901209116012395309187
:101390001701231708F4B4CF2091190120931601E7
:1013A000EFE1F1E020911601220FE20F20E0F21FA1
:1013B000208131812DBF3EBFFF91EF91DF91CF9111
:1013C000BF91AF919F918F917F916F915F914F915D
:1013D0003F912F911F910F91FF90EF90DF90CF9051
:1013E000BF90AF909F908F907F906F905F904F9045
:1013F0003F902F901F900F900FBE0F90789420E099
:101400002093700020E22093B60026E62093B300DC
:1014100020E02093B40022E02093B00023E020934A
:10142000B10020E02093B2002091B6002270E1F7D5
:101430002091B6002170E1F72091B6002870E1F705
:101440002091B6002470E1F72091B6002071E1F7F9
:1014500020913700217019F021E02093370020916E
:101460003700227019F022E02093370020913700D6
:10147000247019F024E02093370022E020937000BC
:1014800078940895112425E331E0209333013093BB
:101490003401A0913301B09134012DB73EB72D93A3
:1014A0003D93ED93FD93A0933301B093340183E01A
:1014B00062E80E94B80882EE94E1969587956FEFF6
:1014C0000E940009A0913301B0913401FE91EE9188
:1014D0003E912E912DBF3EBFA0933301B0933401B6
:1014E000089526E02093530020931D0120917A0057
:1014F0002F7E20937A002091500020682093500086
:10150000209153002160209353008895EFCF0F92D4
:101510000FB6F8940F921F9211242F923F924F9280
:101520005F926F927F928F929F92AF92BF92CF9273
:10153000DF92EF92FF920F931F932F933F934F935E
:101540005F936F937F938F939F93AF93BF93CF934B
:10155000DF93EF93FF93EFE1F1E020911601220F6B
:10156000E20F20E0F21F2DB73EB720833183E5E57F
:10157000F1E020911601220FE20F20E0F21F80839C
:101580009183E1E4F1E020911601E20F20E0F21FE7
:1015900020E0208381E02FEF2093180120E02093AA
:1015A0001901582F20931601852FE5E5F1E02091D0
:1015B0001601220FE20F20E0F21F20813181422F1D
:1015C000432B59F0813099F041E0241B40E0340B6B
:1015D00020833183422F432B51F4E1E4F1E0209149
:1015E0001601E20F20E0F21F81E0808308C0E1E4F1
:1015F000F1E020911601E20F20E0F21F808181309E
:1016000019F0843009F012C0EBE4F1E020E08091A1
:101610001601E80FF21F808120911801821730F423
:101620008093180120911601209319012091160131
:10163000239530911701231708F4B4CF2091190195
:1016400020931601EFE1F1E020911601220FE20F45
:1016500020E0F21F208131812DBF3EBFFF91EF912D
:10166000DF91CF91BF91AF919F918F917F916F91BA
:101670005F914F913F912F911F910F91FF90EF90AC
:10168000DF90CF90BF90AF909F908F907F906F90A2
:101690005F904F903F902F901F900F900FBE0F9034
:1016A00078940895F894E5E5F1E020911601220F71
:1016B000E20F20E0F21F80839183E1E4F1E02091CA
:1016C0001601E20F20E0F21F24E0208378940895B1
:1016D0000F920FB6F8940F921F9211242F923F92FF
:1016E0004F925F926F927F928F929F92AF92BF9232
:1016F000CF92DF92EF92FF920F931F932F933F931E
:101700004F935F936F937F938F939F93AF93BF9309
:10171000CF93DF93EF93FF93EFE1F1E02091160178
:10172000220FE20F20E0F21F2DB73EB72083318356
:10173000E1E4F1E020911601E20F20E0F21F20E049
:10174000208381E02FEF2093180120E020931901DE
:10175000582F20931601852FE5E5F1E02091160121
:10176000220FE20F20E0F21F20813181422F432B14
:1017700059F0813099F041E0241B40E0340B208384
:101780003183422F432B51F4E1E4F1E02091160123
:10179000E20F20E0F21F81E0808308C0E1E4F1E085
:1017A00020911601E20F20E0F21F8081813019F0B4
:1017B000843009F012C0EBE4F1E020E080911601E2
:1017C000E80FF21F808120911801821730F4809376
:1017D00018012091160120931901209116012395DB
:1017E00030911701231708F4B4CF209119012093E9
:1017F0001601EFE1F1E020911601220FE20F20E047
:10180000F21F208131812DBF3EBFFF91EF91DF910B
:10181000CF91BF91AF919F918F917F916F915F9188
:101820004F913F912F911F910F91FF90EF90DF907B
:10183000CF90BF90AF909F908F907F906F905F9070
:101840004F903F902F901F900F900FBE0F90789465
:101850000895FC0109950895282F220FE5E5F1E090
:10186000E20F20E0F21F808191810895282FE1E4AA
:10187000F1E0E20F20E0F21F8081089580911701CE
:101880000895282FEBE4F1E0E20F20E0F21F8081C1
:101890000895809118010895809119018A950895FD
:1018A00080911901089580911C010895A1E21A2EDA
:1018B000AA1BBB1BFD010DC0AA1FBB1FEE1FFF1FF4
:1018C000A217B307E407F50720F0A21BB30BE40B44
:1018D000F50B661F771F881F991F1A9469F760958B
:1018E0007095809590959B01AC01BD01CF01089545
:0418F000F894FFCF9A
:0618F40041434B303000BF
:00000001FF
