:100000000C9434000C9451000C9451000C94510049
:100010000C9451000C9451000C9451000C94F9096B
:100020000C9451000C9451000C9451000C9451000C
:100030000C9451000C9451000C9451000C945100FC
:100040000C9451000C9451000C9451000C945100EC
:100050000C9451000C9451000C9451000C945100DC
:100060000C9451000C94510011241FBECFEFD8E026
:10007000DEBFCDBF11E0A0E0B1E0E4E5FEE102C0EB
:1000800005900D92A432B107D9F715E0A4E2B1E0D2
:1000900001C01D92AD3DB107E1F70E9453000C94E1
:1000A000280F0C94000081E00E94480E0E945D0C15
:1000B0008FE191E060E00E941C0B84E191E061E03F
:1000C0000E941C0B8AE890E062E00E941C0B87E70C
:1000D00090E063E00E941C0B0E94940BFFCF0895F8
:1000E00082E090E00E94A30C8CE291E0FBCF0E94A2
:1000F000460782E090E00E94A30C0E944F070E94F6
:10010000CC080E94A5060E9451070E9498098CE223
:1001100091E0F1CF0E94890482E090E00E94A30C5C
:10012000B0E1BB2ECAE7D5E0A2E0CA2ED12CCC0E9E
:10013000DD1EF8E0EF2EF12CEC0EFD1E8E01025DAF
:100140001F4FB09284050E947D0E6093A4057093AA
:10015000A5058093A6059093A705292F332744274B
:100160005527209385059C01442755272093860514
:10017000272F382F492F552720938705609388050F
:100180000E94E00680937A05998390938905809375
:100190008A050E94EA0680937C05F601918390937C
:1001A0008B0580938C050E94EF0690937F058093CA
:1001B0007E05292F332727FD3A9520938D058093BF
:1001C0008E050E94F5069093810580938005292F66
:1001D000332727FD3A9520938F05809390050E9441
:1001E000F20680938205F70191838093910584E85C
:1001F00095E06EE00E9401028093A805F8019183CA
:1002000090939205809393050E947D0484E895E085
:1002100060E10E9462050E9471040E94DE058CE28A
:1002200091E00E94A30C8DCF529A5A9882E090E000
:100230000E94A30C0E946D068CE390E0F9CF0E940F
:10024000F80682E090E00E94A30CC8EED3E00E9482
:10025000E006815F9A4018F080E061E002C081E032
:1002600060E040E00E94FF06CE010197F1F780E0D8
:1002700060E040E00E94FF068EE190E00E94A30C47
:10028000E6CF8AEA95E09093BE058093BD0584E0B1
:100290008093AA051092AB051092AC051092AD05A3
:1002A00021E02093AE058AE090E09093B005809322
:1002B000AF051092B2051092B1051092B3051092DD
:1002C000B5051092B4051092B7051092B6051092BC
:1002D000B8052093B9051092BB051092BA0510928B
:1002E000BC0508952A9A08952A980895299A089590
:1002F0002998089584B18C6284B92498229A219A0D
:100300002A9A29980895249A85B1837C85B92A9AD6
:100310002998089580E58CBD81E08DBD08951CBCB1
:100320001DBC08950E947A0180E58CBD81E08DBDE1
:1003300008951CBC1DBC0E9483010895E091BD0579
:10034000F091BE05118A108A128A0895E091BD05C8
:10035000F091BE058289089590E0E091BD05F0918D
:10036000BE058289882309F491E0892F089581E0F0
:100370008A95F1F7E091BD05F091BE0580899189DC
:100380000196918B808B895E934020F0118A108AB0
:1003900080E1828B82890895982FE091BD05F091CC
:1003A000BE0582898823A9F49EBD118A108A128A0B
:1003B00004C00E94B701882319F40DB407FEF9CFD9
:1003C000E091BD05F091BE058289882311F48EB5B8
:1003D000089580E00895362F20E02827392740E04F
:1003E00061E270E1C901880F991F37FF04C09C01C9
:1003F0002627372701C09C014F5F483099F7C90174
:1004000008950F931F93CF93DF93062FEC0120E005
:1004100030E010E006C0C90169910E94EB019C0127
:100420001F5F1017C0F3C901DF91CF911F910F918A
:100430000895FF920F931F93CF93DF93982F142F5C
:10044000052FF22EE091BD05F091BE05828988232B
:1004500029F52A98662389F4892F80620E94CC01AD
:10046000812F902F9C01E90110E004C089910E9426
:10047000CC011F5F1F15D0F310C0892F0E94CC0143
:10048000812F902F9C01E90110E005C08FEF0E94A1
:10049000CC0189931F5F1F15C8F32A9ADF91CF9172
:1004A0001F910F91FF900895E091BD05F091BE0559
:1004B0008289882339F4319681EE60E0AF0120E033
:1004C0000E9419020895AC01E091BD05F091BE05AE
:1004D0008289882329F480EA60E020E20E941902E0
:1004E0000895E091BD05F091BE058289882311F041
:1004F00080E008951182319687E161E0AF0121E04B
:100500000E941902E091BD05F091BE05818190E045
:1005100064E0969587956A95E1F7817008951F9339
:10052000E091BD05F091BE058289882329F009C0BC
:10053000812F8A95F1F701C015E80E947102882386
:10054000B9F31F910895E091BD05F091BE05828930
:10055000882339F4319682EE60E0AF0120E00E94FA
:1005600019020895AC01E091BD05F091BE058289A4
:10057000882329F481E661E020E20E9419020895AF
:10058000E091BD05F091BE058289882311F080E0DD
:1005900008951182319687E161E0AF0121E00E9468
:1005A0001902E091BD05F091BE05818180958170B1
:1005B0000895E091BD05F091BE058289882311F070
:1005C00080E00895319680E061E0AF0121E00E9473
:1005D0001902E091BD05F091BE05818181FF07C040
:1005E00080FF02C081E001C082E080830895108214
:1005F00080E00895E091BD05F091BE0582898823D1
:1006000071F480E78183319680E060E0AF0121E002
:100610000E941902E091BD05F091BE051082089577
:10062000E091BD05F091BE058289882391F482E7AF
:1006300081832998319680E060E0AF0121E00E943B
:1006400019020E945402E091BD05F091BE0582E0BE
:1006500080830895E091BD05F091BE0582898823CD
:1006600081F483E78183299A319680E060E0AF01CD
:1006700021E00E941902E091BD05F091BE0581E0E4
:1006800080830895FF920F931F93F82E162F042F47
:10069000E091BD05F091BE058289882369F5319608
:1006A0008F2D61E0AF0121E00E941902E091BD05AC
:1006B000F091BE05002351F081E090E002C0880F68
:1006C000991F1A95E2F72181282B0AC081E090E05A
:1006D00002C0880F991F1A95E2F78095218128237F
:1006E00021834091BD055091BE054F5F5F4F8F2D17
:1006F00060E021E00E9419021F910F91FF90089580
:10070000E091BD05F091BE058289882311F080E05B
:100710000895319685E061E0AF0121E00E94190261
:10072000E091BD05F091BE0581810895982FE0917B
:10073000BD05F091BE058289882361F4892F9E371B
:1007400008F08DE78183319685E060E0AF0121E01C
:100750000E9419020895E091BD05F091BE058289BD
:10076000882311F080E00895319686E061E0AF01C2
:1007700021E00E941902E091BD05F091BE05918132
:10078000969596959695892F86958270818391701E
:10079000892B8283823011F4118206C0813019F0D6
:1007A000882311F482E0818381810895982FE0915C
:1007B000BD05F091BE058289882341F5992321F476
:1007C00086E065E041E005C0913049F486E065E0EF
:1007D00040E00E94420386E063E040E00AC09230BD
:1007E00059F486E065E040E00E94420386E063E061
:1007F00041E00E944203089586E065E040E00E94E7
:10080000420386E063E041E00E9442030895E091E4
:10081000BD05F091BE058289882311F080E008951E
:10082000319686E061E0AF0121E00E941902E0917B
:10083000BD05F091BE058181869583708183089501
:10084000982FE091BD05F091BE058289882371F54E
:10085000992321F486E062E040E00BC0913021F45E
:1008600086E062E040E010C0923049F486E062E049
:1008700041E00E94420386E061E040E00AC093301C
:1008800059F486E062E041E00E94420386E061E0C4
:1008900041E00E944203089586E062E041E00E9448
:1008A000420386E061E041E00E9442030895E09146
:1008B000BD05F091BE0583830895E091BD05F091DB
:1008C000BE0584830895E091BD05F091BE05968331
:1008D00085830895E091BD05F091BE0593878287D9
:1008E0000895E091BD05F091BE058081882321F037
:1008F0000E94FA020E9499010895E091BD05F091CD
:10090000BE058081882321F40E9492010E942A035F
:1009100008950F931F930E9441010E949201E0915C
:10092000BD05F091BE0510E71183319680E060E0CF
:10093000AF0121E00E941902E091BD05F091BE05D2
:100940001182319681E060E0AF0121E00E9419023E
:10095000E091BD05F091BE0583E08183319682E090
:1009600060E0AF0121E00E941902E091BD05F09125
:10097000BE0581E08183319683E060E0AF0121E034
:100980000E941902E091BD05F091BE0511823196D9
:1009900084E060E0AF0121E00E941902E091BD0512
:1009A000F091BE0582E08183319685E060E0AF0181
:1009B00021E00E941902E091BD05F091BE0586E09C
:1009C0008183319660E0AF0121E00E941902E0913D
:1009D000BD05F091BE051183319687E060E0AF015F
:1009E00021E00E941902E091BD05F091BE0510E2E0
:1009F0001183319681E160E0AF0121E00E9419028C
:100A0000E091BD05F091BE051183319682E160E071
:100A1000AF0121E00E941902E091BD05F091BE05F1
:100A2000118231968CE160E0AF0121E00E94190251
:100A3000E091BD05F091BE05118231968DE160E037
:100A4000AF0121E00E94190200E011E080E160E0C6
:100A5000A80125E00E9419028AE060E0A80125E0D3
:100A60000E9419028BE060E046E051E025E00E9420
:100A700019028CE060E04CE051E025E00E94190290
:100A80008DE060E042E151E025E00E9419028EE035
:100A900060E048E151E025E00E9419028FE060E04B
:100AA0004EE151E025E00E941902E091BD05F09170
:100AB000BE0580E290E0968385830E9471041F91B9
:100AC0000F910895FF920F931F938C01F62EE091E2
:100AD000BD05F091BE05118A108A128A0E9410038A
:100AE000E091BD05F091BE058381F801838FE0910F
:100AF000BD05F091BE058481F801848FF58EC80193
:100B00006EE10E940102F801968F878FC8010E9452
:100B10006302299A0E948F0229981F910F91FF90DA
:100B20000895DF92EF92FF920F931F93CF93DF937D
:100B30007C01E091BD05F091BE05118A108A128AF0
:100B4000108617820E942A0375E8D72E23C00E94C0
:100B5000C002882399F0C7010E94B202F701D68D26
:100B6000C0E0078D10E00C2B1D2BC7016EE10E9429
:100B700001020817190711F481E018C08D2D8A951C
:100B8000F1F7E091BD05F091BE0587819085019652
:100B900090878783E091BD05F091BE052781308560
:100BA000858196812817390790F280E0DF91CF91F7
:100BB0001F910F91FF90EF90DF900895E091BD0598
:100BC000F091BE058289882339F0118A108A128A31
:100BD0000E9499010E948904089580917A0087FDFE
:100BE0001CC08FEC80937C0086E080937A0080911B
:100BF0007A00806C80937A0090E02DE00AC09F5FBD
:100C0000822F8A95F1F7993C21F481E0809331019C
:100C1000089580917A0084FFF2CF0895DF92EF92D9
:100C2000FF920F931F93182FD62E0E94ED058091EF
:100C30003101882309F040C080917C00807F812BA6
:100C400080937C0084EF91E00197F1F7EE24FF247C
:100C5000870120E030E04DE01EC080917A00806482
:100C600080937A0090E008C09F5F842F8A95F1F707
:100C7000993C11F431E004C080917A0084FFF4CFF4
:100C80008091780090917900A0E0B0E0E80EF91E24
:100C90000A1F1B1F2F5F2D1500F3309331012D2DDF
:100CA00030E040E050E0C801B7010E94060FC901E2
:100CB000DA019C01AD010AC080933201109231012A
:100CC0000E94ED0520E030E040E050E0C9011F91B6
:100CD0000F91FF90EF90DF90089580912401816043
:100CE000809324015A9A86E062E00E940E0686E014
:100CF00064E00E940E0690932601809325015A9885
:100D0000A0E0B0E0BC01CD0124EC3FEB43E050E0BB
:100D10000E94E70E2AE096958795779567952A9524
:100D2000D1F72AE030E040E050E00E94060F209327
:100D30002701309328014093290150932A01809183
:100D400024018E7F80932401089580912401826084
:100D50008093240187E062E00E940E0687E064E051
:100D60000E940E0690932C0180932B01A0E0B0E02E
:100D7000BC01CD012CEB36EF41E050E00E94E70EC4
:100D80003AE096958795779567953A95D1F72AE059
:100D900030E040E050E00E94060F20932D01309398
:100DA0002E0140932F0150933001809124018D7FBB
:100DB0008093240108958091250190912601089542
:100DC0008091270190912801089580912B019091A5
:100DD0002C01089580912D0190912E01089580E0BD
:100DE00090E008950E94EF0908950E94EA0908958D
:100DF000559A569A569A5D9A5E9A5F9A08958130EE
:100E000011F45D9801C05D9A613011F45E9801C0E3
:100E10005E9A413011F45F9808955F9A0895109298
:100E2000C7051092CB051092CD051092CC051092FB
:100E3000CE051092CF051092D0051092D1051092D8
:100E4000D3051092D2051092D4051092D5051092B8
:100E5000D6051092D7051092D9051092D805109298
:100E6000DA051092DB051092DC051092BF05109296
:100E7000C0051092C1051092C2051092C3051092D0
:100E8000C4051092C5051092C60508950E940F076B
:100E90005B9A539A45983D9844983C9808955B987E
:100EA00008955B9A0895813021F43D988093C90597
:100EB0000895882319F43D9A1092C9050895813048
:100EC00021F43C988093CA050895882319F43C9A2C
:100ED0001092CA0508953C9B04C03C9886E08A9510
:100EE000F1F786B190E024E0969587952A95E1F791
:100EF000817008953D9B02C080E0089587B182957E
:100F00008F708095817008951F938091DB058823F1
:100F1000C1F481E00E94530716E0812F8A95F1F712
:100F200081E00E945F07812F8A95F1F780E00E949F
:100F30005F07812F8A95F1F780E00E9453071A9589
:100F4000F1F71F9108951F938091DB058823D9F451
:100F50003D9905C00E94530782E08A95F1F73C99BC
:100F600006C080E00E945F0782E08A95F1F781E089
:100F70000E94530716E0812F8A95F1F781E00E94C5
:100F80005F071A95F1F71F9108951F938091DB0574
:100F90008823D9F00E947A078823B9F40E94530766
:100FA00012E0812F8A95F1F780E00E945F071A9581
:100FB000F1F781E00E94530716E0812F8A95F1F73F
:100FC00081E00E945F071A95F1F71F910895FF9243
:100FD0000F931F93082F8091DB058823F1F410E015
:100FE00036E0F32E07FF02C081E001C080E00E94DE
:100FF0005F078F2D8A95F1F781E00E9453078F2DAF
:101000008A95F1F780E00E9453078F2D8A95F1F7BA
:101010001F5F183011F0000FE5CF1F910F91FF9067
:101020000895FF920F931F938091DB05882311F0A1
:1010300010E01FC081E00E945F0786E08A95F1F70B
:1010400010E000E046E0F42E110F0E946B078130A3
:1010500009F4116081E00E9453078F2D8A95F1F702
:1010600080E00E9453078F2D8A95F1F70F5F0830BB
:1010700059F7812F1F910F91FF9008951F93809131
:10108000DB058823F9F481E00E945F0712E0812FDD
:101090008A95F1F781E00E9453071A95F1F70E94B3
:1010A0006B07882321F481E08093C80502C0109269
:1010B000C80512E0812F8A95F1F780E00E9453075E
:1010C0001A95F1F71F9108951F938091DB058823EE
:1010D000A1F40E945F0712E0812F8A95F1F781E069
:1010E0000E945307812F8A95F1F7812F8A95F1F796
:1010F00080E00E9453071A95F1F71F9108950F930E
:101100001F93082F10E00E948407802F0E94E7079A
:101110000E943E088091C805882311F081E009C033
:101120000E94A3071F5F1F3171F781E08093DB05E9
:1011300080E01F910F910895FF920F931F93182F36
:1011400080E80E947F0882E00E94E7070E943E0834
:10115000F090C805812F0E94E7070E943E08009189
:10116000C80580E00E94E7070E943E081091C8056C
:101170000E94A3078091DB05882351F4000F110F13
:10118000110F102B1F29173019F085E08093DB0514
:101190001F910F91FF900895EF92FF920F931F936D
:1011A00080E29EE40197F1F71092DB0580E00E9457
:1011B0009C080E94840780E80E94E7070E943E087E
:1011C000E090C80580E00E94E7070E943E08109169
:1011D000C8050E94A3078091DB05882339F4110F0D
:1011E0001E29133019F086E08093DB0580E797E134
:1011F0000197F1F781E80E947F080E94110890E0B2
:10120000A0E0B0E08093CE059093CF05A093D005E9
:10121000B093D1050E946408E090CE05F090CF0510
:101220000091D0051091D105102F0F2DFE2CEE242A
:10123000E092CE05F092CF050093D0051093D10532
:101240000E94110890E0A0E0B0E08E299F29A02B19
:10125000B12B8093CE059093CF05A093D005B0938A
:10126000D1050E943E080E94A3070E94840780E8DF
:101270000E94E7070E943E08E090C80581E00E94B6
:10128000E7070E943E081091C8050E94A3078091BD
:10129000DB05882339F4110F1E29133019F087E07C
:1012A0008093DB0580E797E10197F1F781E80E94E1
:1012B0007F080E94110890E0A0E0B0E08093D40580
:1012C0009093D505A093D605B093D7050E946408E6
:1012D000E090D405F090D5050091D6051091D70582
:1012E000102F0F2DFE2CEE24E092D405F092D505A0
:1012F0000093D6051093D7050E94110890E0A0E056
:10130000B0E08E299F29A02BB12B8093D405909318
:10131000D505A093D605B093D7050E943E080E943C
:10132000A3070E94C5071F910F91FF90EF900895AA
:101330008091DB058823E9F56091CE057091CF059A
:101340008091D0059091D10522E736E040E050E051
:101350000E94E70EBC01882799276093CE05709301
:10136000CF058093D0059093D1056059714070935B
:10137000D3056093D2056091D4057091D505809115
:10138000D6059091D70524E630E040E050E00E9479
:10139000E70EBC01882799276093D4057093D50583
:1013A0008093D6059093D7057093D9056093D8059F
:1013B00008958093DC051092DB0508958091CB059C
:1013C00008958091C70508958091DB050895809167
:1013D000DC0508958091D2059091D3050895809100
:1013E000D8059091D90508958091C3059091C405C1
:1013F0000895209153002E7F209353000F920FB633
:101400000F921F9211242F923F924F925F926F92F0
:101410007F928F929F92AF92BF92CF92DF92EF9284
:10142000FF920F931F932F933F934F935F936F936D
:101430007F938F939F93AF93BF93CF93DF93EF935C
:10144000FF93E3E4F1E020913A01220FE20F20E064
:10145000F21F2DB73EB72083318321E03091330155
:10146000320F3093330120E030913401321F30933A
:10147000340130913501321F3093350130913601FE
:10148000321F3093360130913701321F30933701CC
:1014900080E02FEF20933C0120E020933D01582F66
:1014A00020933A01852FE9E6F1E020913A01220FDD
:1014B000E20F20E0F21F20813181422F432B59F0AF
:1014C000813099F041E0241B40E0340B20833183CC
:1014D000422F432B51F4EDE5F1E020913A01E20F68
:1014E00020E0F21F81E0808308C0EDE5F1E020916B
:1014F0003A01E20F20E0F21F8081813019F0843040
:1015000009F012C0E3E6F1E020E080913A01E80F33
:10151000F21F808120913C01821730F480933C01BE
:1015200020913A0120933D0120913A012395309179
:101530003B01231708F4B4CF20913D0120933A01D9
:10154000E3E4F1E020913A01220FE20F20E0F21FE4
:10155000208131812DBF3EBFFF91EF91DF91CF916F
:10156000BF91AF919F918F917F916F915F914F91BB
:101570003F912F911F910F91FF90EF90DF90CF90AF
:10158000BF90AF909F908F907F906F905F904F90A3
:101590003F902F901F900F900FBE0F901895F894CA
:1015A000A0914F01B09150012DB73EB72D933D93BF
:1015B000ED93FD93A0934F01B093500120E0209351
:1015C0003301209334012093350120933601209379
:1015D0003701209338012093390120933A01209359
:1015E0003B0120933C0120933D0120933E01209339
:1015F0003F012093400120E02093700020E02093E1
:10160000B10020E02093B60020E02093B4002093A6
:10161000B2008093380160933901A0914F01B091DD
:101620005001FE91EE913E912E912DBF3EBFA093B1
:101630004F01B09350010895A0914F01B091500116
:101640002DB73EB72D933D93ED93FD93A0934F019E
:10165000B0935001E3E6F1E020913A01E20F20E07F
:10166000F21F6083EDE5F1E020913A01E20F20E006
:10167000F21F21E0208320913A01239530E8239F37
:10168000E02DF12D3197112425E731E0E20FF31F12
:10169000EDBFFEBF8F939F930F920FB60F921F92D5
:1016A00011242F923F924F925F926F927F928F926E
:1016B0009F92AF92BF92CF92DF92EF92FF920F93E1
:1016C0001F932F933F934F935F936F937F938F93CA
:1016D0009F93AF93BF93CF93DF93EF93FF932DB778
:1016E0003EB740913A01440FE3E4F1E0E40F40E0FB
:1016F000F41F2193308320913A01239520933A01DE
:1017000020913B01239520933B01A0914F01B09183
:101710005001FE91EE913E912E912DBF3EBFA093C0
:101720004F01B0935001089581E02FEF20933C01C9
:1017300020E020933D01582F20933A01852FE9E6C0
:10174000F1E020913A01220FE20F20E0F21F208108
:101750003181422F432B59F0813099F041E0241B15
:1017600040E0340B20833183422F432B51F4EDE5CD
:10177000F1E020913A01E20F20E0F21F81E0808346
:1017800008C0EDE5F1E020913A01E20F20E0F21F00
:101790008081813019F0843009F012C0E3E6F1E075
:1017A00020E080913A01E80FF21F808120913C01F6
:1017B000821730F480933C0120913A0120933D013F
:1017C00020913A01239530913B01231708F4B4CFBF
:1017D00020913D0120933A01E3E4F1E020913A01A8
:1017E000220FE20F20E0F21F208131812DBF3EBF8A
:1017F000FF91EF91DF91CF91BF91AF919F918F9129
:101800007F916F915F914F913F912F911F910F9118
:10181000FF90EF90DF90CF90BF90AF909F908F9010
:101820007F906F905F904F903F902F901F900F9000
:101830000FBE0F90789420E02093700020E2209358
:10184000B60020E836E02093B30020E02093B400F7
:1018500022E02093B0003093B10020E02093B2004A
:101860002091B6002270E1F72091B6002170E1F7D7
:101870002091B6002870E1F72091B6002470E1F7BE
:101880002091B6002071E1F720913700217019F006
:1018900021E02093370020913700227019F022E0D8
:1018A0002093370020913700247019F024E0209312
:1018B000370022E0209370000895112421E531E0E3
:1018C00020934F0130935001A0914F01B0915001EE
:1018D0002DB73EB72D933D93ED93FD93A0934F010C
:1018E000B093500184E06DE70E94CF0A88E199E14E
:1018F000969587956FEF0E941C0BA0914F01B091B8
:101900005001FE91EE913E912E912DBF3EBFA093CE
:101910004F01B0935001089526E020935300209387
:10192000410120917A002F7720937A002091500076
:101930002068209350002091530021602093530091
:1019400088950C94910C0F920FB6F8940F921F92F9
:1019500011242F923F924F925F926F927F928F92BB
:101960009F92AF92BF92CF92DF92EF92FF920F932E
:101970001F932F933F934F935F936F937F938F9317
:101980009F93AF93BF93CF93DF93EF93FF93E3E4E2
:10199000F1E020913A01220FE20F20E0F21F2DB773
:1019A0003EB720833183E9E6F1E020913A01220F2E
:1019B000E20F20E0F21F80839183EDE5F1E02091BA
:1019C0003A01E20F20E0F21F20E0208381E02FEFB8
:1019D00020933C0120E020933D01582F20933A01B1
:1019E000852FE9E6F1E020913A01220FE20F20E095
:1019F000F21F20813181422F432B59F0813099F021
:101A000041E0241B40E0340B20833183422F432BE1
:101A100051F4EDE5F1E020913A01E20F20E0F21FF0
:101A200081E0808308C0EDE5F1E020913A01E20F0A
:101A300020E0F21F8081813019F0843009F012C05B
:101A4000E3E6F1E020E080913A01E80FF21F8081A7
:101A500020913C01821730F480933C0120913A019F
:101A600020933D0120913A01239530913B012317AA
:101A700008F4B4CF20913D0120933A01E3E4F1E072
:101A800020913A01220FE20F20E0F21F20813181E4
:101A90002DBF3EBFFF91EF91DF91CF91BF91AF91ED
:101AA0009F918F917F916F915F914F913F912F9176
:101AB0001F910F91FF90EF90DF90CF90BF90AF906C
:101AC0009F908F907F906F905F904F903F902F905E
:101AD0001F900F900FBE0F9078940895F894E9E648
:101AE000F1E020913A01220FE20F20E0F21F808303
:101AF0009183EDE5F1E020913A01E20F20E0F21F41
:101B000024E02083789408950F920FB6F8940F92F2
:101B10001F9211242F923F924F925F926F927F9269
:101B20008F929F92AF92BF92CF92DF92EF92FF92ED
:101B30000F931F932F933F934F935F936F937F93D5
:101B40008F939F93AF93BF93CF93DF93EF93FF93C5
:101B5000E3E4F1E020913A01220FE20F20E0F21FCE
:101B60002DB73EB720833183EDE5F1E020913A01B6
:101B7000E20F20E0F21F20E0208381E02FEF20938E
:101B80003C0120E020933D01582F20933A01852FFE
:101B9000E9E6F1E020913A01220FE20F20E0F21F86
:101BA00020813181422F432B59F0813099F041E05F
:101BB000241B40E0340B20833183422F432B51F40C
:101BC000EDE5F1E020913A01E20F20E0F21F81E023
:101BD000808308C0EDE5F1E020913A01E20F20E0BA
:101BE000F21F8081813019F0843009F012C0E3E6E1
:101BF000F1E020E080913A01E80FF21F808120910E
:101C00003C01821730F480933C0120913A012093EB
:101C10003D0120913A01239530913B01231708F4AF
:101C2000B4CF20913D0120933A01E3E4F1E020910B
:101C30003A01220FE20F20E0F21F208131812DBFF7
:101C40003EBFFF91EF91DF91CF91BF91AF919F91F7
:101C50008F917F916F915F914F913F912F911F9144
:101C60000F91FF90EF90DF90CF90BF90AF909F903B
:101C70008F907F906F905F904F903F902F901F902C
:101C80000F900FBE0F9078940895FC010995089568
:101C900020915F00F89430E83093610080936100F8
:101CA00020935F000895282F220FE9E6F1E0E20F6C
:101CB00020E0F21F808191810895282FEDE5F1E069
:101CC000E20F20E0F21F8081089580913B0108958A
:101CD000282FE3E6F1E0E20F20E0F21F8081089573
:101CE00080913C01089580913D018A9508958091ED
:101CF0003D0108958091400108952FB7F8946091B7
:101D000033017091340180913501909136012FBFDC
:101D1000089522E02093C000292F2093C500282F8A
:101D20002093C40026E02093C20028E02093C10045
:101D300008952F938093C6002091C00025FFFCCF0B
:101D40002F9108958F93892F0E94990E8F910E9451
:101D5000990E08952F938093C6002091C00026FF0E
:101D6000FCCF2091C00020642093C0002F910895E3
:101D70000E94AA0E8F93892F0E94AA0E8F91089518
:101D800080934A00862F0E94AA0E872F0E94AA0ED7
:101D900080914A000E94AA0E80934A00892F0E94D7
:101DA000AA0E80914A0008950E2F1F2F282FE82F8A
:101DB000F92F80810E94AA0EE02FF12F822F089523
:101DC0000E94D40E815090406150D1F70895629FD7
:101DD000D001739FF001829FE00DF11D649FE00D23
:101DE000F11D929FF00D839FF00D749FF00D659F84
:101DF000F00D9927729FB00DE11DF91F639FB00D83
:101E0000E11DF91FBD01CF0111240895A1E21A2E91
:101E1000AA1BBB1BFD010DC0AA1FBB1FEE1FFF1F8E
:101E2000A217B307E407F50720F0A21BB30BE40BDE
:101E3000F50B661F771F881F991F1A9469F7609525
:101E40007095809590959B01AC01BD01CF010895DF
:041E5000F894FFCF34
:101E540041434B30300050495045310050495045C2
:101E640032005049504533005049504534005049E0
:041E740050453500A0
:00000001FF
