:100000000C9434000C9451000C9451000C94510049
:100010000C9451000C9451000C9451000C94360A2D
:100020000C9451000C9451000C9451000C9451000C
:100030000C9451000C9451000C9451000C945100FC
:100040000C9451000C9451000C9451000C945100EC
:100050000C9451000C9451000C9451000C945100DC
:100060000C9451000C94510011241FBECFEFD8E026
:10007000DEBFCDBF11E0A0E0B1E0EEEFFEE102C0D7
:1000800005900D92A432B107D9F716E0A4E2B1E0D1
:1000900001C01D92A93EB107E1F70E9453000C94E4
:1000A0007D0F0C94000081E00E949D0E0E94B20C16
:1000B00083E291E060E00E94710B88E191E061E0F1
:1000C0000E94710B8EE890E062E00E94710B8BE75A
:1000D00090E063E00E94710B83E790E00E949A0E2B
:1000E0000E94E90BFFCF089582E090E00E94F80C97
:1000F0008CE291E0FBCF0E94830782E090E00E94B7
:10010000F80C0E948C070E9409090E94E2060E94D6
:100110008E070E94D5098CE291E0F1CF0E948B04FA
:1001200082E090E00E94F80CB0E1BB2EC6E8D6E079
:10013000A2E0CA2ED12CCC0EDD1EF8E0EF2EF12C61
:10014000EC0EFD1E8E01025D1F4FB09290060E94C4
:10015000D20E6093B0067093B1068093B20690936E
:10016000B306292F332744275527209391069C0156
:100170004427552720939206272F382F492F55279C
:1001800020939306609394060E941D078093860631
:10019000998390939506809396060E9427078093F3
:1001A0008806F601918390939706809398060E94A3
:1001B0002C0790938B0680938A06292F332727FDDF
:1001C0003A952093990680939A060E94320790935D
:1001D0008D0680938C06292F332727FD3A9520938F
:1001E0009B0680939C060E942F0780938E06F70142
:1001F000918380939D0680E996E06EE00E9405025F
:100200008093B406F801918390939E0680939F0695
:100210000E947F0480E996E060E10E9464050E94EC
:1002200073040E941B068CE291E00E94F80C8DCFB3
:10023000529A5A9882E090E00E94F80C0E94AA0616
:100240008CE390E0F9CF0E94350782E090E00E94B5
:10025000F80CC8EED3E00E941D07815F9A4018F0A9
:1002600080E061E002C081E060E040E00E943C0785
:10027000CE010197F1F780E060E040E00E943C078A
:100280008EE190E00E94F80CE6CF86EB96E090932A
:10029000CA068093C90684E08093B6061092B7061A
:1002A0001092B8061092B90621E02093BA068AE0AF
:1002B00090E09093BC068093BB061092BE0610920D
:1002C000BD061092BF061092C1061092C006109291
:1002D000C3061092C2061092C4062093C50610925F
:1002E000C7061092C6061092C80608952A9A089565
:1002F0002A980895299A08952998089584B18C62BE
:1003000084B92498229A219A2A9A29980895249A9D
:1003100085B1837C85B92A9A2998089580E58CBD9A
:1003200081E08DBD08951CBC1DBC08950E947E0116
:1003300080E58CBD81E08DBD08951CBC1DBC0E9474
:1003400087010895E091C906F091CA06118A108AC2
:10035000128A0895E091C906F091CA06828908952B
:1003600090E0E091C906F091CA068289882309F4D9
:1003700091E0892F089581E08A95F1F7E091C9060F
:10038000F091CA06808991890196918B808B895E54
:10039000934020F0118A108A80E1828B828908952F
:1003A000982FE091C906F091CA0682898823A9F4A2
:1003B0009EBD118A108A128A04C00E94BB01882344
:1003C00019F40DB407FEF9CFE091C906F091CA0601
:1003D0008289882311F48EB5089580E00895362F20
:1003E00020E02827392740E061E270E1C901880F49
:1003F000991F37FF04C09C012627372701C09C01A5
:100400004F5F483099F7C90108950F931F93CF9319
:10041000DF93062FEC0120E030E010E006C0C901B8
:1004200069910E94EF019C011F5F1017C0F3C90181
:10043000DF91CF911F910F910895FF920F931F931A
:10044000CF93DF93982F142F052FF22EE091C9063A
:10045000F091CA068289882329F52A98662389F4AF
:10046000892F80620E94D001812F902F9C01E90189
:1004700010E004C089910E94D0011F5F1F15D0F3C6
:1004800010C0892F0E94D001812F902F9C01E9017B
:1004900010E005C08FEF0E94D00189931F5F1F15E8
:1004A000C8F32A9ADF91CF911F910F91FF90089581
:1004B000E091C906F091CA068289882339F4319601
:1004C00081EE60E0AF0120E00E941D020895AC01C2
:1004D000E091C906F091CA068289882329F480EA4E
:1004E00060E020E20E941D020895E091C906F091AB
:1004F000CA068289882311F080E00895118231961E
:1005000087E161E0AF0121E00E941D02E091C90690
:10051000F091CA06818190E064E0969587956A958E
:10052000E1F7817008951F93E091C906F091CA0622
:100530008289882329F009C0812F8A95F1F701C0AB
:1005400015E80E9475028823B9F31F910895E09180
:10055000C906F091CA068289882339F4319682EE61
:1005600060E0AF0120E00E941D020895AC01E0911F
:10057000C906F091CA068289882329F481E661E0E0
:1005800020E20E941D020895E091C906F091CA067A
:100590008289882311F080E008951182319687E1E5
:1005A00061E0AF0121E00E941D02E091C906F091D7
:1005B000CA068181809581700895E091C906F09105
:1005C000CA068289882311F080E00895319680E080
:1005D00061E0AF0121E00E941D02E091C906F091A7
:1005E000CA06818181FF07C080FF02C081E001C08F
:1005F00082E080830895108280E00895E091C9062A
:10060000F091CA068289882361F41182319660E0F4
:10061000AF0121E00E941D02E091C906F091CA06D7
:1006200010820895E091C906F091CA068289882354
:1006300091F482E781832998319680E060E0AF01F0
:1006400021E00E941D020E945802E091C906F0912B
:10065000CA0682E080830895E091C906F091CA0637
:100660008289882381F483E78183299A319680E007
:1006700060E0AF0121E00E941D02E091C906F09107
:10068000CA0681E080830895FF920F931F93F82E8E
:10069000162F042FE091C906F091CA06828988239B
:1006A00069F531968F2D61E0AF0121E00E941D02B6
:1006B000E091C906F091CA06002351F081E090E074
:1006C00002C0880F991F1A95E2F72181282B0AC0D2
:1006D00081E090E002C0880F991F1A95E2F780959B
:1006E0002181282321834091C9065091CA064F5F7A
:1006F0005F4F8F2D60E021E00E941D021F910F913E
:10070000FF900895E091C906F091CA068289882376
:1007100011F080E00895319685E061E0AF0121E0BD
:100720000E941D02E091C906F091CA0681810895D8
:10073000982FE091C906F091CA068289882361F456
:10074000892F9E3708F08DE78183319685E060E040
:10075000AF0121E00E941D020895E091C906F091C9
:10076000CA068289882311F080E00895319686E0D8
:1007700061E0AF0121E00E941D02E091C906F09105
:10078000CA069181969596959695892F8695827041
:1007900081839170892B8283823011F4118206C08B
:1007A000813019F0882311F482E0818381810895DA
:1007B000982FE091C906F091CA068289882341F5F5
:1007C000992321F486E065E041E005C0913049F4C9
:1007D00086E065E040E00E94440386E063E040E09C
:1007E0000AC0923059F486E065E040E00E9444037C
:1007F00086E063E041E00E944403089586E065E0FE
:1008000040E00E94440386E063E041E00E9444032C
:100810000895E091C906F091CA068289882311F0F3
:1008200080E00895319686E061E0AF0121E00E940A
:100830001D02E091C906F091CA06818186958370F8
:1008400081830895982FE091C906F091CA068289A4
:10085000882371F5992321F486E062E040E00BC023
:10086000913021F486E062E040E010C0923049F41B
:1008700086E062E041E00E94440386E061E040E0FF
:100880000AC0933059F486E062E041E00E944403DC
:1008900086E061E041E00E944403089586E062E062
:1008A00041E00E94440386E061E041E00E9444038D
:1008B0000895E091C906F091CA0683830895E091F6
:1008C000C906F091CA0684830895E091C906F091A3
:1008D000CA06968385830895E091C906F091CA06F9
:1008E000938782870895E091C906F091CA068081B6
:1008F000882321F00E94FE020E949D010895E0914C
:10090000C906F091CA068081882321F40E949601CD
:100910000E942C0308950F931F930E9445010E948B
:100920009601E091C906F091CA061182319680E0E5
:1009300060E0AF0121E00E941D02E091C906F09144
:10094000CA061182319681E060E0AF0121E00E9489
:100950001D02E091C906F091CA0683E081833196B9
:1009600082E060E0AF0121E00E941D02E091C90633
:10097000F091CA0681E08183319683E060E0AF01A7
:1009800021E00E941D02E091C906F091CA06118281
:10099000319684E060E0AF0121E00E941D02E09109
:1009A000C906F091CA0682E08183319685E060E055
:1009B000AF0121E00E941D02E091C906F091CA0634
:1009C00086E08183319660E0AF0121E00E941D0244
:1009D000E091C906F091CA0680E78183319687E0ED
:1009E00060E0AF0121E00E941D02E091C906F09194
:1009F000CA0610E21183319681E160E0AF0121E087
:100A00000E941D02E091C906F091CA061183319639
:100A100082E160E0AF0121E00E941D02E091C90681
:100A2000F091CA06118231968CE160E0AF0121E0BD
:100A30000E941D02E091C906F091CA06118231960A
:100A40008DE160E0AF0121E00E941D0200E011E0B5
:100A500080E160E0A80125E00E941D028AE060E0DC
:100A6000A80125E00E941D028BE060E046E051E015
:100A700025E00E941D028CE060E04CE051E025E0A2
:100A80000E941D028DE060E042E151E025E00E94FD
:100A90001D028EE060E048E151E025E00E941D0269
:100AA0008FE060E04EE151E025E00E941D02E09100
:100AB000C906F091CA0680E290E0968385830E9481
:100AC00073041F910F910895FF920F931F938C0150
:100AD000F62EE091C906F091CA06118A108A128A90
:100AE0000E941203E091C906F091CA068381F801C1
:100AF000838FE091C906F091CA068481F801848F42
:100B0000F58EC8016EE10E940502F801968F878F6D
:100B1000C8010E946702299A0E94930229981F9196
:100B20000F91FF900895DF92EF92FF920F931F9322
:100B3000CF93DF937C01E091C906F091CA06118A38
:100B4000108A128A108617820E942C0375E8D72E0D
:100B500023C00E94C402882399F0C7010E94B602F4
:100B6000F701D68DC0E0078D10E00C2B1D2BC701BF
:100B70006EE10E9405020817190711F481E018C000
:100B80008D2D8A95F1F7E091C906F091CA0687810B
:100B90009085019690878783E091C906F091CA06F7
:100BA00027813085858196812817390790F280E06A
:100BB000DF91CF911F910F91FF90EF90DF900895FB
:100BC000CF93DF93EC01E091C906F091CA068785C7
:100BD000882319F081E08A8F01C01A8ECE010E940D
:100BE0006405CE010E949305811181E0DF91CF91D0
:100BF0000895CF93DF93EC010E9493058823B9F009
:100C00008A8D8130A1F4E091C906F091CA069381E2
:100C10008C8D981761F484EF91E00197F1F78B8D3B
:100C20008483CE0162E00E94640581E001C080E01F
:100C3000DF91CF910895E091C906F091CA068289AB
:100C4000882339F0118A108A128A0E949D010E941D
:100C50008B04089580917A0087FD1CC08FEC8093EF
:100C60007C0086E080937A0080917A00806C80938B
:100C70007A0090E02DE00AC09F5F822F8A95F1F7FD
:100C8000993C21F481E080933101089580917A00AC
:100C900084FFF2CF0895DF92EF92FF920F931F939C
:100CA000182FD62E0E942A0680913101882309F040
:100CB00040C080917C00807F812B80937C0084EFFA
:100CC00091E00197F1F7EE24FF24870120E030E066
:100CD0004DE01EC080917A00806480937A0090E09D
:100CE00008C09F5F842F8A95F1F7993C11F431E099
:100CF00004C080917A0084FFF4CF809178009091B5
:100D00007900A0E0B0E0E80EF91E0A1F1B1F2F5F5C
:100D10002D1500F3309331012D2D30E040E050E0EF
:100D2000C801B7010E945B0FC901DA019C01AD0146
:100D30000AC080933201109231010E942A0620E0FD
:100D400030E040E050E0C9011F910F91FF90EF901B
:100D5000DF900895809124018160809324015A9A44
:100D600086E062E00E944B0686E064E00E944B064B
:100D700090932601809325015A98A0E0B0E0BC0131
:100D8000CD0124EC3FEB43E050E00E943C0F2AE011
:100D900096958795779567952A95D1F72AE030E063
:100DA00040E050E00E945B0F209327013093280120
:100DB0004093290150932A01809124018E7F8093D2
:100DC000240108958091240182608093240187E0AA
:100DD00062E00E944B0687E064E00E944B0690931D
:100DE0002C0180932B01A0E0B0E0BC01CD012CEBE5
:100DF00036EF41E050E00E943C0F3AE0969587952F
:100E0000779567953A95D1F72AE030E040E050E0D9
:100E10000E945B0F20932D0130932E0140932F01F0
:100E200050933001809124018D7F80932401089597
:100E3000809125019091260108958091270190913C
:100E40002801089580912B0190912C0108958091A3
:100E50002D0190912E01089580E090E008950E9468
:100E60002C0A08950E94270A0895559A569A569A70
:100E70005D9A5E9A5F9A0895813011F45D9801C081
:100E80005D9A613011F45E9801C05E9A413011F4B0
:100E90005F9808955F9A08951092D3061092D7062E
:100EA0001092D9061092D8061092DA061092DB063C
:100EB0001092DC061092DD061092DF061092DE061C
:100EC0001092E0061092E1061092E2061092E306FC
:100ED0001092E5061092E4061092E6061092E706DC
:100EE0001092E8061092CB061092CC061092CD0616
:100EF0001092CE061092CF061092D0061092D10614
:100F00001092D20608950E944C075B9A539A459816
:100F10003D9844983C9808955B9808955B9A08958D
:100F2000813021F43D988093D5060895882319F4E3
:100F30003D9A1092D5060895813021F43C98809313
:100F4000D6060895882319F43C9A1092D60608957F
:100F50003C9B04C03C9886E08A95F1F786B190E00E
:100F600024E0969587952A95E1F7817008953D9B39
:100F700002C080E0089587B182958F70809581705E
:100F800008951F938091E7068823C1F481E00E94B1
:100F9000900716E0812F8A95F1F781E00E949C0767
:100FA000812F8A95F1F780E00E949C07812F8A9516
:100FB000F1F780E00E9490071A95F1F71F910895CC
:100FC0001F938091E7068823D9F43D9905C00E94BC
:100FD000900782E08A95F1F73C9906C080E00E9474
:100FE0009C0782E08A95F1F781E00E94900716E065
:100FF000812F8A95F1F781E00E949C071A95F1F7FD
:101000001F9108951F938091E7068823D9F00E94CD
:10101000B7078823B9F40E94900712E0812F8A95C0
:10102000F1F780E00E949C071A95F1F781E00E9499
:10103000900716E0812F8A95F1F781E00E949C07C6
:101040001A95F1F71F910895FF920F931F93082FA0
:101050008091E7068823F1F410E036E0F32E07FFD5
:1010600002C081E001C080E00E949C078F2D8A951C
:10107000F1F781E00E9490078F2D8A95F1F780E0CB
:101080000E9490078F2D8A95F1F71F5F183011F09D
:10109000000FE5CF1F910F91FF900895FF920F93DE
:1010A0001F938091E706882311F010E01FC081E0B4
:1010B0000E949C0786E08A95F1F710E000E046E088
:1010C000F42E110F0E94A807813009F4116081E00D
:1010D0000E9490078F2D8A95F1F780E00E9490077B
:1010E0008F2D8A95F1F70F5F083059F7812F1F91E7
:1010F0000F91FF9008951F938091E7068823F9F4DC
:1011000081E00E949C0712E0812F8A95F1F781E02F
:101110000E9490071A95F1F70E94A807882321F4EE
:1011200081E08093D40602C01092D40612E0812F91
:101130008A95F1F780E00E9490071A95F1F71F91C8
:1011400008951F938091E7068823A1F40E949C07CD
:1011500012E0812F8A95F1F781E00E949007812F9C
:101160008A95F1F7812F8A95F1F780E00E94900728
:101170001A95F1F71F9108950F931F93082F10E010
:101180000E94C107802F0E9424080E947B08809142
:10119000D406882311F081E009C00E94E0071F5F98
:1011A0001F3171F781E08093E70680E01F910F9176
:1011B0000895FF920F931F93182F80E80E94BC0898
:1011C00082E00E9424080E947B08F090D406812FC0
:1011D0000E9424080E947B080091D40680E00E94AF
:1011E00024080E947B081091D4060E94E007809199
:1011F000E706882351F4000F110F110F102B1F2940
:10120000173019F085E08093E7061F910F91FF904A
:101210000895EF92FF920F931F9380E29EE401974F
:10122000F1F71092E70680E00E94D9080E94C107FA
:1012300080E80E9424080E947B08E090D40680E0A9
:101240000E9424080E947B081091D4060E94E007A7
:101250008091E706882339F4110F1E29133019F005
:1012600086E08093E70680E797E10197F1F781E850
:101270000E94BC080E944E0890E0A0E0B0E080937D
:10128000DA069093DB06A093DC06B093DD060E949D
:10129000A108E090DA06F090DB060091DC061091E0
:1012A000DD06102F0F2DFE2CEE24E092DA06F092D0
:1012B000DB060093DC061093DD060E944E0890E0EA
:1012C000A0E0B0E08E299F29A02BB12B8093DA06F5
:1012D0009093DB06A093DC06B093DD060E947B08AA
:1012E0000E94E0070E94C10780E80E9424080E9433
:1012F0007B08E090D40681E00E9424080E947B08CD
:101300001091D4060E94E0078091E706882339F403
:10131000110F1E29133019F087E08093E70680E74C
:1013200097E10197F1F781E80E94BC080E944E08FE
:1013300090E0A0E0B0E08093E0069093E106A093F7
:10134000E206B093E3060E94A108E090E006F09068
:10135000E1060091E2061091E306102F0F2DFE2CFE
:10136000EE24E092E006F092E1060093E20610938C
:10137000E3060E944E0890E0A0E0B0E08E299F298D
:10138000A02BB12B8093E0069093E106A093E20698
:10139000B093E3060E947B080E94E0070E940208C7
:1013A0001F910F91FF90EF9008958091E706882399
:1013B000E9F56091DA067091DB068091DC06909188
:1013C000DD0622E736E040E050E00E943C0FBC0121
:1013D000882799276093DA067093DB068093DC06F2
:1013E0009093DD06605971407093DF066093DE06CE
:1013F0006091E0067091E1068091E2069091E3062B
:1014000024E630E040E050E00E943C0FBC01882719
:1014100099276093E0067093E1068093E20690932B
:10142000E3067093E5066093E40608958093E8066A
:101430001092E70608958091D70608958091D3060B
:1014400008958091E70608958091E80608958091B7
:10145000DE069091DF0608958091E4069091E506FE
:1014600008958091CF069091D00608952091530061
:101470002E7F209353000F920FB60F921F921124CC
:101480002F923F924F925F926F927F928F929F9294
:10149000AF92BF92CF92DF92EF92FF920F931F9382
:1014A0002F933F934F935F936F937F938F939F936C
:1014B000AF93BF93CF93DF93EF93FF93E3E4F1E018
:1014C00020913A01220FE20F20E0F21F2DB73EB724
:1014D0002083318321E030913301320F3093330187
:1014E00020E030913401321F3093340130913501C6
:1014F000321F3093350130913601321F309336015F
:1015000030913701321F3093370180E02FEF209365
:101510003C0120E020933D01582F20933A01852F74
:10152000E1E7F1E020913A01220FE20F20E0F21F03
:1015300020813181422F432B59F0813099F041E0D5
:10154000241B40E0340B20833183422F432B51F482
:10155000E1E6F1E020913A01E20F20E0F21F81E0A4
:10156000808308C0E1E6F1E020913A01E20F20E03B
:10157000F21F8081813019F0843009F012C0E9E651
:10158000F1E020E080913A01E80FF21F8081209184
:101590003C01821730F480933C0120913A01209362
:1015A0003D0120913A01239530913B01231708F426
:1015B000B4CF20913D0120933A0120913A0122239A
:1015C00029F020913F01239520933F0120913E0176
:1015D0002395243640F020E030913F0130934001C4
:1015E00030E030933F0120933E01E3E4F1E02091AD
:1015F0003A01220FE20F20E0F21F208131812DBF3E
:101600003EBFFF91EF91DF91CF91BF91AF919F913D
:101610008F917F916F915F914F913F912F911F918A
:101620000F91FF90EF90DF90CF90BF90AF909F9081
:101630008F907F906F905F904F903F902F901F9072
:101640000F900FBE0F901895F894A0915301B09190
:1016500054012DB73EB72D933D93ED93FD93A09389
:101660005301B093540120E02093330120933401BF
:1016700020933501209336012093370120933801C0
:101680002093390120933A0120933B0120933C01A0
:1016900020933D0120933E0120933F012093400180
:1016A00020E02093700020E02093B10020E0209300
:1016B000B60020E02093B4002093B200809338015C
:1016C00060933901A0915301B0915401FE91EE91C4
:1016D0003E912E912DBF3EBFA0935301B093540174
:1016E0000895A0915301B09154012DB73EB72D93A9
:1016F0003D93ED93FD93A0935301B0935401E9E61C
:10170000F1E020913A01E20F20E0F21F6083E1E670
:10171000F1E020913A01E20F20E0F21F21E0208366
:1017200020913A01239530E8239FE02DF12D319748
:10173000112421E831E0E20FF31FEDBFFEBF8F93CC
:101740009F930F920FB60F921F9211242F923F92E8
:101750004F925F926F927F928F929F92AF92BF92C1
:10176000CF92DF92EF92FF920F931F932F933F93AD
:101770004F935F936F937F938F939F93AF93BF9399
:10178000CF93DF93EF93FF932DB73EB740913A018C
:10179000440FE3E4F1E0E40F40E0F41F21933083D1
:1017A00020913A01239520933A0120913B01239502
:1017B00020933B01A0915301B0915401FE91EE9111
:1017C0003E912E912DBF3EBFA0935301B093540183
:1017D000089581E02FEF20933C0120E020933D010C
:1017E000582F20933A01852FE1E7F1E020913A014B
:1017F000220FE20F20E0F21F20813181422F432B84
:1018000059F0813099F041E0241B40E0340B2083F3
:101810003183422F432B51F4E1E6F1E020913A016C
:10182000E20F20E0F21F81E0808308C0E1E6F1E0F2
:1018300020913A01E20F20E0F21F8081813019F0FF
:10184000843009F012C0E9E6F1E020E080913A012D
:10185000E80FF21F808120913C01821730F48093C1
:101860003C0120913A0120933D0120913A012395BA
:1018700030913B01231708F4B4CF20913D01209310
:101880003A01E3E4F1E020913A01220FE20F20E077
:10189000F21F208131812DBF3EBFFF91EF91DF917B
:1018A000CF91BF91AF919F918F917F916F915F91F8
:1018B0004F913F912F911F910F91FF90EF90DF90EB
:1018C000CF90BF90AF909F908F907F906F905F90E0
:1018D0004F903F902F901F900F900FBE0F907894D5
:1018E00020E02093700020E22093B60020E836E04C
:1018F0002093B30020E02093B40022E02093B000B6
:101900003093B10020E02093B2002091B600227005
:10191000E1F72091B6002170E1F72091B600287020
:10192000E1F72091B6002470E1F72091B600207114
:10193000E1F720913700217019F021E02093370062
:1019400020913700227019F022E020933700209177
:101950003700247019F024E02093370022E0209310
:1019600070000895112425E531E020935301309350
:101970005401A0915301B09154012DB73EB72D935E
:101980003D93ED93FD93A0935301B093540184E0F4
:101990006DE70E94240B82EC99E1969587956FEF95
:1019A0000E94710BA0915301B0915401FE91EE91F0
:1019B0003E912E912DBF3EBFA0935301B093540191
:1019C000089526E0209353002093410120917A004E
:1019D0002F7720937A0020915000206820935000A8
:1019E0002091530021602093530088950C94E60CBD
:1019F0000F920FB6F8940F921F9211242F923F92DC
:101A00004F925F926F927F928F929F92AF92BF920E
:101A1000CF92DF92EF92FF920F931F932F933F93FA
:101A20004F935F936F937F938F939F93AF93BF93E6
:101A3000CF93DF93EF93FF93E3E4F1E020913A013A
:101A4000220FE20F20E0F21F2DB73EB72083318333
:101A5000E1E7F1E020913A01220FE20F20E0F21FCE
:101A600080839183E1E6F1E020913A01E20F20E0EA
:101A7000F21F20E0208381E02FEF20933C0120E043
:101A800020933D01582F20933A01852FE1E7F1E0A3
:101A900020913A01220FE20F20E0F21F20813181D4
:101AA000422F432B59F0813099F041E0241B40E054
:101AB000340B20833183422F432B51F4E1E6F1E0D4
:101AC00020913A01E20F20E0F21F81E0808308C0FC
:101AD000E1E6F1E020913A01E20F20E0F21F80817F
:101AE000813019F0843009F012C0E9E6F1E020E01D
:101AF00080913A01E80FF21F808120913C0182170A
:101B000030F480933C0120913A0120933D012091D3
:101B10003A01239530913B01231708F4B4CF20916B
:101B20003D0120933A01E3E4F1E020913A01220FD4
:101B3000E20F20E0F21F208131812DBF3EBFFF91D7
:101B4000EF91DF91CF91BF91AF919F918F917F9155
:101B50006F915F914F913F912F911F910F91FF9046
:101B6000EF90DF90CF90BF90AF909F908F907F903D
:101B70006F905F904F903F902F901F900F900FBEEF
:101B80000F9078940895F894E1E7F1E020913A01FC
:101B9000220FE20F20E0F21F80839183E1E6F1E063
:101BA00020913A01E20F20E0F21F24E02083789494
:101BB00008950F920FB6F8940F921F9211242F924E
:101BC0003F924F925F926F927F928F929F92AF92CD
:101BD000BF92CF92DF92EF92FF920F931F932F93BA
:101BE0003F934F935F936F937F938F939F93AF93A5
:101BF000BF93CF93DF93EF93FF93E3E4F1E0209162
:101C00003A01220FE20F20E0F21F2DB73EB72083EA
:101C10003183E1E6F1E020913A01E20F20E0F21F8A
:101C200020E0208381E02FEF20933C0120E02093EF
:101C30003D01582F20933A01852FE1E7F1E02091F3
:101C40003A01220FE20F20E0F21F20813181422F62
:101C5000432B59F0813099F041E0241B40E0340BD4
:101C600020833183422F432B51F4E1E6F1E02091B0
:101C70003A01E20F20E0F21F81E0808308C0E1E634
:101C8000F1E020913A01E20F20E0F21F80818130E3
:101C900019F0843009F012C0E9E6F1E020E080910B
:101CA0003A01E80FF21F808120913C01821730F445
:101CB00080933C0120913A0120933D0120913A010B
:101CC000239530913B01231708F4B4CF20913D01B7
:101CD00020933A01E3E4F1E020913A01220FE20F70
:101CE00020E0F21F208131812DBF3EBFFF91EF9197
:101CF000DF91CF91BF91AF919F918F917F916F9124
:101D00005F914F913F912F911F910F91FF90EF9015
:101D1000DF90CF90BF90AF909F908F907F906F900B
:101D20005F904F903F902F901F900F900FBE0F909D
:101D300078940895FC010995089520915F00F89426
:101D400030E8309361008093610020935F00089534
:101D5000282F220FE1E7F1E0E20F20E0F21F80815F
:101D600091810895282FE1E6F1E0E20F20E0F21FD3
:101D70008081089580913B010895282FE9E6F1E0E4
:101D8000E20F20E0F21F8081089580913C010895C8
:101D900080913D018A95089580913D01089580913B
:101DA000400108952FB7F894609133017091340188
:101DB00080913501909136012FBF089522E0209344
:101DC000C000292F2093C500282F2093C40026E0AF
:101DD0002093C20028E02093C10008952F938093A0
:101DE000C6002091C00025FFFCCF2F9108958F934E
:101DF000892F0E94EE0E8F910E94EE0E08952F9370
:101E00008093C6002091C00026FFFCCF2091C00027
:101E100020642093C0002F9108950E94FF0E8F939D
:101E2000892F0E94FF0E8F91089580934A00862F7C
:101E30000E94FF0E872F0E94FF0E80914A000E9491
:101E4000FF0E80934A00892F0E94FF0E80914A0066
:101E500008950E2F1F2F282FE82FF92F80810E9421
:101E6000FF0EE02FF12F822F08950E94290F81503D
:101E700090406150D1F70895629FD001739FF001A7
:101E8000829FE00DF11D649FE00DF11D929FF00D0A
:101E9000839FF00D749FF00D659FF00D9927729F41
:101EA000B00DE11DF91F639FB00DE11DF91FBD01CC
:101EB000CF0111240895A1E21A2EAA1BBB1BFD011C
:101EC0000DC0AA1FBB1FEE1FFF1FA217B307E40719
:101ED000F50720F0A21BB30BE40BF50B661F771F71
:101EE000881F991F1A9469F7609570958095909551
:0E1EF0009B01AC01BD01CF010895F894FFCF16
:101EFE0041434B3030005049504531005049504518
:101F0E003200504950453300504950453400504935
:041F1E0050453500F5
:00000001FF
