:100000000C9434000C9451000C9451000C94510049
:100010000C9451000C9451000C9451000C942F0A34
:100020000C9451000C9451000C9451000C9451000C
:100030000C9451000C9451000C9451000C945100FC
:100040000C9451000C9451000C9451000C945100EC
:100050000C9451000C9451000C9451000C945100DC
:100060000C9451000C94510011241FBECFEFD8E026
:10007000DEBFCDBF11E0A0E0B1E0E0EFFEE102C0E5
:1000800005900D92A432B107D9F716E0A4E2B1E0D1
:1000900001C01D92A03FB107E1F70E9453000C94EC
:1000A000760F0C94000081E00E94960E0E94AB0C2B
:1000B0008CE191E060E00E946A0B81E191E061E0F7
:1000C0000E946A0B87E890E062E00E946A0B84E776
:1000D00090E063E00E946A0B83E790E00E94930E39
:1000E0000E94E20BFFCF08950E947C0782E090E01F
:1000F0000E94F10C0E9485070E9402090E94DB0603
:100100000E9487070E94CE098CE291E0F1CF0E9405
:10011000840482E090E00E94F10CB0E1BB2ECDE8B7
:10012000D6E0A2E0CA2ED12CCC0EDD1EF8E0EF2ED8
:10013000F12CEC0EFD1E8E01025D1F4FB092970652
:100140000E94CB0E6093B7067093B8068093B906F1
:100150009093BA06292F33274427552720939806D2
:100160009C014427552720939906272F382F492F84
:10017000552720939A0660939B060E94160780934A
:100180008D06998390939C0680939D060E9420077C
:1001900080938F06F601918390939E0680939F062D
:1001A0000E9425079093920680939106292F33276A
:1001B00027FD3A952093A0068093A1060E942B0765
:1001C0009093940680939306292F332727FD3A9521
:1001D0002093A2068093A3060E9428078093950689
:1001E000F70191838093A40687E996E06EE00E9470
:1001F000FE018093BB06F80191839093A50680933E
:10020000A6060E94780487E996E060E10E945D05F9
:100210000E946C040E9414068CE291E00E94F10C92
:100220008DCF529A5A9882E090E00E94F10C0E9481
:10023000A3068CE390E0F9CF0E942E0782E090E0C5
:100240000E94F10CC8EED3E00E941607815F9A402D
:1002500018F080E061E002C081E060E040E00E94D0
:100260003507CE010197F1F780E060E040E00E94A1
:1002700035078EE190E00E94F10CE6CF8DEB96E021
:100280009093D1068093D00684E08093BD061092AF
:10029000BE061092BF061092C00621E02093C10650
:1002A0008AE090E09093C3068093C2061092C50640
:1002B0001092C4061092C6061092C8061092C70685
:1002C0001092CA061092C9061092CB062093CC0653
:1002D0001092CE061092CD061092CF0608952A9A5B
:1002E00008952A980895299A08952998089584B11F
:1002F0008C6284B92498229A219A2A9A299808957E
:10030000249A85B1837C85B92A9A2998089580E535
:100310008CBD81E08DBD08951CBC1DBC08950E945C
:10032000770180E58CBD81E08DBD08951CBC1DBCAE
:100330000E9480010895E091D006F091D106118AC3
:10034000108A128A0895E091D006F091D106828930
:10035000089590E0E091D006F091D106828988233B
:1003600009F491E0892F089581E08A95F1F7E091F1
:10037000D006F091D106808991890196918B808B6E
:10038000895E934020F0118A108A80E1828B8289F5
:100390000895982FE091D006F091D10682898823A4
:1003A000A9F49EBD118A108A128A04C00E94B40169
:1003B000882319F40DB407FEF9CFE091D006F0912F
:1003C000D1068289882311F48EB5089580E00895BE
:1003D000362F20E02827392740E061E270E1C9018B
:1003E000880F991F37FF04C09C012627372701C0BB
:1003F0009C014F5F483099F7C90108950F931F93EF
:10040000CF93DF93062FEC0120E030E010E006C030
:10041000C90169910E94E8019C011F5F1017C0F398
:10042000C901DF91CF911F910F910895FF920F9312
:100430001F93CF93DF93982F142F052FF22EE09167
:10044000D006F091D1068289882329F52A9866235F
:1004500089F4892F80620E94C901812F902F9C010D
:10046000E90110E004C089910E94C9011F5F1F15B6
:10047000D0F310C0892F0E94C901812F902F9C01B9
:10048000E90110E005C08FEF0E94C90189931F5F49
:100490001F15C8F32A9ADF91CF911F910F91FF90FA
:1004A0000895E091D006F091D1068289882339F42D
:1004B000319681EE60E0AF0120E00E9416020895BF
:1004C000AC01E091D006F091D1068289882329F40D
:1004D00080EA60E020E20E9416020895E091D006D2
:1004E000F091D1068289882311F080E0089511826D
:1004F000319687E161E0AF0121E00E941602E091B0
:10050000D006F091D106818190E064E096958795C0
:100510006A95E1F7817008951F93E091D006F091FC
:10052000D1068289882329F009C0812F8A95F1F7A5
:1005300001C015E80E946E028823B9F31F91089547
:10054000E091D006F091D1068289882339F4319662
:1005500082EE60E0AF0120E00E9416020895AC0137
:10056000E091D006F091D1068289882329F481E6B2
:1005700061E020E20E9416020895E091D006F09119
:10058000D1068289882311F080E008951182319686
:1005900087E161E0AF0121E00E941602E091D00600
:1005A000F091D1068181809581700895E091D00607
:1005B000F091D1068289882311F080E00895319668
:1005C00080E061E0AF0121E00E941602E091D006D8
:1005D000F091D106818181FF07C080FF02C081E0D8
:1005E00001C082E080830895108280E00895E09148
:1005F000D006F091D1068289882361F41182319668
:1006000060E0AF0121E00E941602E091D006F09177
:10061000D10610820895E091D006F091D10682892A
:10062000882391F482E781832998319680E060E005
:10063000AF0121E00E9416020E945102E091D00613
:10064000F091D10682E080830895E091D006F09188
:10065000D1068289882381F483E78183299A3196A0
:1006600080E060E0AF0121E00E941602E091D00638
:10067000F091D10681E080830895FF920F931F933C
:10068000F82E162F042FE091D006F091D106828922
:10069000882369F531968F2D61E0AF0121E00E943A
:1006A0001602E091D006F091D106002351F081E0CE
:1006B00090E002C0880F991F1A95E2F72181282B3C
:1006C0000AC081E090E002C0880F991F1A95E2F7F6
:1006D00080952181282321834091D0065091D10615
:1006E0004F5F5F4F8F2D60E021E00E9416021F9147
:1006F0000F91FF900895E091D006F091D106828984
:10070000882311F080E00895319685E061E0AF0123
:1007100021E00E941602E091D006F091D10681817D
:100720000895982FE091D006F091D1068289882310
:1007300061F4892F9E3708F08DE78183319685E03B
:1007400060E0AF0121E00E9416020895E091D0061A
:10075000F091D1068289882311F080E008953196C6
:1007600086E061E0AF0121E00E941602E091D00630
:10077000F091D1069181969596959695892F8695BB
:10078000827081839170892B8283823011F411826F
:1007900006C0813019F0882311F482E081838181C1
:1007A0000895982FE091D006F091D1068289882390
:1007B00041F5992321F486E065E041E005C09130E0
:1007C00049F486E065E040E00E943D0386E063E096
:1007D00040E00AC0923059F486E065E040E00E94B3
:1007E0003D0386E063E041E00E943D03089586E01A
:1007F00065E040E00E943D0386E063E041E00E9446
:100800003D030895E091D006F091D10682898823B6
:1008100011F080E00895319686E061E0AF0121E0BB
:100820000E941602E091D006F091D1068181869552
:10083000837081830895982FE091D006F091D106BE
:100840008289882371F5992321F486E062E040E0F3
:100850000BC0913021F486E062E040E010C092309D
:1008600049F486E062E041E00E943D0386E061E0F9
:1008700040E00AC0933059F486E062E041E00E9413
:100880003D0386E061E041E00E943D03089586E07B
:1008900062E041E00E943D0386E061E041E00E94A9
:1008A0003D030895E091D006F091D1068383089529
:1008B000E091D006F091D10684830895E091D006AE
:1008C000F091D106968385830895E091D006F0914A
:1008D000D106938782870895E091D006F091D106E2
:1008E0008081882321F00E94F7020E9496010895DA
:1008F000E091D006F091D1068081882321F40E94F6
:100900008F010E94250308950F931F930E943E01BB
:100910000E948F01E091D006F091D10611823196AC
:1009200080E060E0AF0121E00E941602E091D00675
:10093000F091D1061182319681E060E0AF0121E0B3
:100940000E941602E091D006F091D10683E08183E7
:10095000319682E060E0AF0121E00E941602E09152
:10096000D006F091D10681E08183319683E060E08A
:10097000AF0121E00E941602E091D006F091D1066D
:100980001182319684E060E0AF0121E00E941602FE
:10099000E091D006F091D10682E08183319685E026
:1009A00060E0AF0121E00E941602E091D006F091D4
:1009B000D10686E08183319660E0AF0121E00E949C
:1009C0001602E091D006F091D10680E7818331963E
:1009D00087E060E0AF0121E00E941602E091D006BE
:1009E000F091D10610E21183319681E160E0AF0110
:1009F00021E00E941602E091D006F091D106118309
:100A0000319682E160E0AF0121E00E941602E091A0
:100A1000D006F091D106118231968CE160E0AF01F1
:100A200021E00E941602E091D006F091D1061182D9
:100A300031968DE160E0AF0121E00E94160200E0F6
:100A400011E080E160E0A80125E00E9416028AE042
:100A500060E0A80125E00E9416028BE060E046E01D
:100A600051E025E00E9416028CE060E04CE051E08D
:100A700025E00E9416028DE060E042E151E025E0B1
:100A80000E9416028EE060E048E151E025E00E94FD
:100A900016028FE060E04EE151E025E00E94160270
:100AA000E091D006F091D10680E290E096838583B4
:100AB0000E946C041F910F910895FF920F931F9352
:100AC0008C01F62EE091D006F091D106118A108AA1
:100AD000128A0E940B03E091D006F091D106838127
:100AE000F801838FE091D006F091D1068481F8015E
:100AF000848FF58EC8016EE10E94FE01F801968F89
:100B0000878FC8010E946002299A0E948C0229984E
:100B10001F910F91FF900895DF92EF92FF920F9334
:100B20001F93CF93DF937C01E091D006F091D10623
:100B3000118A108A128A108617820E94250375E88E
:100B4000D72E23C00E94BD02882399F0C7010E94BE
:100B5000AF02F701D68DC0E0078D10E00C2B1D2BE6
:100B6000C7016EE10E94FE010817190711F481E028
:100B700018C08D2D8A95F1F7E091D006F091D1063D
:100B800087819085019690878783E091D006F091C8
:100B9000D10627813085858196812817390790F203
:100BA00080E0DF91CF911F910F91FF90EF90DF9048
:100BB0000895CF93DF93EC01E091D006F091D10638
:100BC0008785882319F081E08A8F01C01A8ECE01B3
:100BD0000E945D05CE010E948C05811181E0DF91AC
:100BE000CF910895CF93DF93EC010E948C05882369
:100BF000B9F08A8D8130A1F4E091D006F091D10650
:100C000093818C8D981761F484EF91E00197F1F74F
:100C10008B8D8483CE0162E00E945D0581E001C07E
:100C200080E0DF91CF910895E091D006F091D10658
:100C30008289882339F0118A108A128A0E949601CB
:100C40000E948404089580917A0087FD1CC08FEC77
:100C500080937C0086E080937A0080917A00806C9B
:100C600080937A0090E02DE00AC09F5F822F8A95E2
:100C7000F1F7993C21F481E080933101089580914E
:100C80007A0084FFF2CF0895DF92EF92FF920F93E4
:100C90001F93182FD62E0E9423068091310188239E
:100CA00009F040C080917C00807F812B80937C0084
:100CB00084EF91E00197F1F7EE24FF24870120E013
:100CC00030E04DE01EC080917A00806480937A000D
:100CD00090E008C09F5F842F8A95F1F7993C11F44A
:100CE00031E004C080917A0084FFF4CF80917800D5
:100CF00090917900A0E0B0E0E80EF91E0A1F1B1FDA
:100D00002F5F2D1500F3309331012D2D30E040E0A1
:100D100050E0C801B7010E94540FC901DA019C01DB
:100D2000AD010AC080933201109231010E94230666
:100D300020E030E040E050E0C9011F910F91FF90AA
:100D4000EF90DF90089580912401816080932401C9
:100D50005A9A86E062E00E94440686E064E00E94BF
:100D6000440690932601809325015A98A0E0B0E0B4
:100D7000BC01CD0124EC3FEB43E050E00E94350F75
:100D80002AE096958795779567952A95D1F72AE079
:100D900030E040E050E00E94540F20932701309350
:100DA00028014093290150932A01809124018E7FCC
:100DB000809324010895809124018260809324010E
:100DC00087E062E00E94440687E064E00E944406F7
:100DD00090932C0180932B01A0E0B0E0BC01CD01E9
:100DE0002CEB36EF41E050E00E94350F3AE096954B
:100DF0008795779567953A95D1F72AE030E040E0FE
:100E000050E00E94540F20932D0130932E01409307
:100E10002F0150933001809124018D7F8093240114
:100E200008958091250190912601089580912701D0
:100E300090912801089580912B0190912C010895A3
:100E400080912D0190912E01089580E090E0089509
:100E50000E94250A08950E94200A0895559A569ADC
:100E6000569A5D9A5E9A5F9A0895813011F45D9862
:100E700001C05D9A613011F45E9801C05E9A413004
:100E800011F45F9808955F9A08951092DA0610920F
:100E9000DE061092E0061092DF061092E106109234
:100EA000E2061092E3061092E4061092E606109213
:100EB000E5061092E7061092E8061092E9061092F5
:100EC000EA061092EC061092EB061092ED061092D4
:100ED000EE061092EF061092D2061092D3061092F0
:100EE000D4061092D5061092D6061092D70610920C
:100EF000D8061092D90608950E9445075B9A539A26
:100F000045983D9844983C9808955B9808955B9A5D
:100F10000895813021F43D988093DC06089588235C
:100F200019F43D9A1092DC060895813021F43C9822
:100F30008093DD060895882319F43C9A1092DD060B
:100F400008953C9B04C03C9886E08A95F1F786B1F1
:100F500090E024E0969587952A95E1F781700895B1
:100F60003D9B02C080E0089587B182958F70809587
:100F7000817008951F938091EE068823C1F481E06B
:100F80000E94890716E0812F8A95F1F781E00E947F
:100F90009507812F8A95F1F780E00E949507812FB0
:100FA0008A95F1F780E00E9489071A95F1F71F9161
:100FB00008951F938091EE068823D9F43D9905C0CA
:100FC0000E94890782E08A95F1F73C9906C080E08B
:100FD0000E94950782E08A95F1F781E00E948907D7
:100FE00016E0812F8A95F1F781E00E9495071A9506
:100FF000F1F71F9108951F938091EE068823D9F091
:101000000E94B0078823B9F40E94890712E0812F5B
:101010008A95F1F780E00E9495071A95F1F781E033
:101020000E94890716E0812F8A95F1F781E00E94DE
:1010300095071A95F1F71F910895FF920F931F934B
:10104000082F8091EE068823F1F410E036E0F32EAD
:1010500007FF02C081E001C080E00E9495078F2D4C
:101060008A95F1F781E00E9489078F2D8A95F1F723
:1010700080E00E9489078F2D8A95F1F71F5F183055
:1010800011F0000FE5CF1F910F91FF900895FF928F
:101090000F931F938091EE06882311F010E01FC07C
:1010A00081E00E94950786E08A95F1F710E000E064
:1010B00046E0F42E110F0E94A107813009F411605F
:1010C00081E00E9489078F2D8A95F1F780E00E94C8
:1010D00089078F2D8A95F1F70F5F083059F7812F17
:1010E0001F910F91FF9008951F938091EE06882322
:1010F000F9F481E00E94950712E0812F8A95F1F7BB
:1011000081E00E9489071A95F1F70E94A1078823C0
:1011100021F481E08093DB0602C01092DB0612E02E
:10112000812F8A95F1F780E00E9489071A95F1F7DF
:101130001F9108951F938091EE068823A1F40E94C9
:10114000950712E0812F8A95F1F781E00E948907C7
:10115000812F8A95F1F7812F8A95F1F780E00E941F
:1011600089071A95F1F71F9108950F931F93082F80
:1011700010E00E94BA07802F0E941D080E94740888
:101180008091DB06882311F081E009C00E94D90715
:101190001F5F1F3171F781E08093EE0680E01F91A1
:1011A0000F910895FF920F931F93182F80E80E94CC
:1011B000B50882E00E941D080E947408F090DB06CA
:1011C000812F0E941D080E9474080091DB0680E0B8
:1011D0000E941D080E9474081091DB060E94D90726
:1011E0008091EE06882351F4000F110F110F102B80
:1011F0001F29173019F085E08093EE061F910F919B
:10120000FF900895EF92FF920F931F9380E29EE468
:101210000197F1F71092EE0680E00E94D2080E943A
:10122000BA0780E80E941D080E947408E090DB065F
:1012300080E00E941D080E9474081091DB060E9445
:10124000D9078091EE06882339F4110F1E29133037
:1012500019F086E08093EE0680E797E10197F1F7B9
:1012600081E80E94B5080E94470890E0A0E0B0E045
:101270008093E1069093E206A093E306B093E40620
:101280000E949A08E090E106F090E2060091E306E1
:101290001091E406102F0F2DFE2CEE24E092E106B3
:1012A000F092E2060093E3061093E4060E944708DA
:1012B00090E0A0E0B0E08E299F29A02BB12B809375
:1012C000E1069093E206A093E306B093E4060E9441
:1012D00074080E94D9070E94BA0780E80E941D087E
:1012E0000E947408E090DB0681E00E941D080E94C5
:1012F00074081091DB060E94D9078091EE068823BE
:1013000039F4110F1E29133019F087E08093EE068F
:1013100080E797E10197F1F781E80E94B5080E9404
:10132000470890E0A0E0B0E08093E7069093E806DD
:10133000A093E906B093EA060E949A08E090E706B7
:10134000F090E8060091E9061091EA06102F0F2DA3
:10135000FE2CEE24E092E706F092E8060093E90600
:101360001093EA060E94470890E0A0E0B0E08E29C2
:101370009F29A02BB12B8093E7069093E806A093BA
:10138000E906B093EA060E9474080E94D9070E94F9
:10139000FB071F910F91FF90EF9008958091EE064B
:1013A0008823E9F56091E1067091E2068091E306F9
:1013B0009091E40622E736E040E050E00E94350FCD
:1013C000BC01882799276093E1067093E206809319
:1013D000E3069093E406605971407093E6066093CB
:1013E000E5066091E7067091E8068091E906909124
:1013F000EA0624E630E040E050E00E94350FBC01F0
:10140000882799276093E7067093E8068093E9069A
:101410009093EA067093EC066093EB060895809330
:10142000EF061092EE0608958091DE0608958091F1
:10143000DA0608958091EE0608958091EF060895EA
:101440008091E5069091E60608958091EB069091D3
:10145000EC0608958091D6069091D70608952091C4
:1014600053002E7F209353000F920FB60F921F92BE
:1014700011242F923F924F925F926F927F928F92A0
:101480009F92AF92BF92CF92DF92EF92FF920F9313
:101490001F932F933F934F935F936F937F938F93FC
:1014A0009F93AF93BF93CF93DF93EF93FF93E3E4C7
:1014B000F1E020913A01220FE20F20E0F21F2DB758
:1014C0003EB72083318321E030913301320F3093D6
:1014D000330120E030913401321F309334013091D8
:1014E0003501321F3093350130913601321F309370
:1014F000360130913701321F3093370180E02FEFF2
:1015000020933C0120E020933D01582F20933A0185
:10151000852FE9E7F1E020913A01220FE20F20E068
:10152000F21F20813181422F432B59F0813099F0F5
:1015300041E0241B40E0340B20833183422F432BB6
:1015400051F4E5E6F1E020913A01E20F20E0F21FCC
:1015500081E0808308C0E5E6F1E020913A01E20FE6
:1015600020E0F21F8081813019F0843009F012C030
:10157000EFE6F1E020E080913A01E80FF21F808170
:1015800020913C01821730F480933C0120913A0174
:1015900020933D0120913A01239530913B0123177F
:1015A00008F4B4CF20913D0120933A0120913A01F3
:1015B000222329F020913F01239520933F01209180
:1015C0003E012395243640F020E030913F013093D6
:1015D000400130E030933F0120933E01E3E4F1E02D
:1015E00020913A01220FE20F20E0F21F2081318189
:1015F0002DBF3EBFFF91EF91DF91CF91BF91AF9192
:101600009F918F917F916F915F914F913F912F911A
:101610001F910F91FF90EF90DF90CF90BF90AF9010
:101620009F908F907F906F905F904F903F902F9002
:101630001F900F900FBE0F901895F894A09157012E
:10164000B09158012DB73EB72D933D93ED93FD9387
:10165000A0935701B093580120E0209333012093C9
:1016600034012093350120933601209337012093D4
:1016700038012093390120933A0120933B012093B4
:101680003C0120933D0120933E0120933F01209394
:10169000400120E02093700020E02093B10020E082
:1016A0002093B60020E02093B4002093B2008093F2
:1016B000380160933901A0915701B0915801FE9112
:1016C000EE913E912E912DBF3EBFA0935701B09356
:1016D00058010895A0915701B09158012DB73EB718
:1016E0002D933D93ED93FD93A0935701B093580133
:1016F000EFE6F1E020913A01E20F20E0F21F608373
:10170000E5E6F1E020913A01E20F20E0F21F21E04E
:10171000208320913A01239530E8239FE02DF12D7D
:10172000319711242DE831E0E20FF31FEDBFFEBF2A
:101730008F939F930F920FB60F921F9211242F92A7
:101740003F924F925F926F927F928F929F92AF9251
:10175000BF92CF92DF92EF92FF920F931F932F933E
:101760003F934F935F936F937F938F939F93AF9329
:10177000BF93CF93DF93EF93FF932DB73EB7409185
:101780003A01440FE3E4F1E0E40F40E0F41F219359
:10179000308320913A01239520933A0120913B0117
:1017A000239520933B01A0915701B0915801FE91E0
:1017B000EE913E912E912DBF3EBFA0935701B09365
:1017C0005801089581E02FEF20933C0120E0209301
:1017D0003D01582F20933A01852FE9E7F1E0209150
:1017E0003A01220FE20F20E0F21F20813181422FC7
:1017F000432B59F0813099F041E0241B40E0340B39
:1018000020833183422F432B51F4E5E6F1E0209110
:101810003A01E20F20E0F21F81E0808308C0E5E694
:10182000F1E020913A01E20F20E0F21F8081813047
:1018300019F0843009F012C0EFE6F1E020E0809169
:101840003A01E80FF21F808120913C01821730F4A9
:1018500080933C0120913A0120933D0120913A016F
:10186000239530913B01231708F4B4CF20913D011B
:1018700020933A01E3E4F1E020913A01220FE20FD4
:1018800020E0F21F208131812DBF3EBFFF91EF91FB
:10189000DF91CF91BF91AF919F918F917F916F9188
:1018A0005F914F913F912F911F910F91FF90EF907A
:1018B000DF90CF90BF90AF909F908F907F906F9070
:1018C0005F904F903F902F901F900F900FBE0F9002
:1018D000789420E02093700020E22093B60020E866
:1018E00036E02093B30020E02093B40022E0209360
:1018F000B0003093B10020E02093B2002091B600F8
:101900002270E1F72091B6002170E1F72091B60036
:101910002870E1F72091B6002470E1F72091B6001D
:101920002071E1F720913700217019F021E0209318
:10193000370020913700227019F022E02093370001
:1019400020913700247019F024E02093370022E022
:10195000209370000895112429E531E02093570168
:1019600030935801A0915701B09158012DB73EB75F
:101970002D933D93ED93FD93A0935701B0935801A0
:1019800084E06DE70E941D0B84EB99E196958795A5
:101990006FEF0E946A0BA0915701B0915801FE9120
:1019A000EE913E912E912DBF3EBFA0935701B09373
:1019B0005801089526E0209353002093410120917F
:1019C0007A002F7720937A0020915000206820938E
:1019D00050002091530021602093530088950C946F
:1019E000DF0C0F920FB6F8940F921F9211242F92D2
:1019F0003F924F925F926F927F928F929F92AF929F
:101A0000BF92CF92DF92EF92FF920F931F932F938B
:101A10003F934F935F936F937F938F939F93AF9376
:101A2000BF93CF93DF93EF93FF93E3E4F1E0209133
:101A30003A01220FE20F20E0F21F2DB73EB72083BC
:101A40003183E9E7F1E020913A01220FE20F20E033
:101A5000F21F80839183E5E6F1E020913A01E20FE5
:101A600020E0F21F20E0208381E02FEF20933C0153
:101A700020E020933D01582F20933A01852FE9E77C
:101A8000F1E020913A01220FE20F20E0F21F2081C5
:101A90003181422F432B59F0813099F041E0241BD2
:101AA00040E0340B20833183422F432B51F4E5E691
:101AB000F1E020913A01E20F20E0F21F81E0808303
:101AC00008C0E5E6F1E020913A01E20F20E0F21FC4
:101AD0008081813019F0843009F012C0EFE6F1E026
:101AE00020E080913A01E80FF21F808120913C01B3
:101AF000821730F480933C0120913A0120933D01FC
:101B000020913A01239530913B01231708F4B4CF7B
:101B100020913D0120933A01E3E4F1E020913A0164
:101B2000220FE20F20E0F21F208131812DBF3EBF46
:101B3000FF91EF91DF91CF91BF91AF919F918F91E5
:101B40007F916F915F914F913F912F911F910F91D5
:101B5000FF90EF90DF90CF90BF90AF909F908F90CD
:101B60007F906F905F904F903F902F901F900F90BD
:101B70000FBE0F9078940895F894E9E7F1E0209172
:101B80003A01220FE20F20E0F21F80839183E5E605
:101B9000F1E020913A01E20F20E0F21F24E02083DF
:101BA000789408950F920FB6F8940F921F92112413
:101BB0002F923F924F925F926F927F928F929F925D
:101BC000AF92BF92CF92DF92EF92FF920F931F934B
:101BD0002F933F934F935F936F937F938F939F9335
:101BE000AF93BF93CF93DF93EF93FF93E3E4F1E0E1
:101BF00020913A01220FE20F20E0F21F2DB73EB7ED
:101C000020833183E5E6F1E020913A01E20F20E004
:101C1000F21F20E0208381E02FEF20933C0120E0A1
:101C200020933D01582F20933A01852FE9E7F1E0F9
:101C300020913A01220FE20F20E0F21F2081318132
:101C4000422F432B59F0813099F041E0241B40E0B2
:101C5000340B20833183422F432B51F4E5E6F1E02E
:101C600020913A01E20F20E0F21F81E0808308C05A
:101C7000E5E6F1E020913A01E20F20E0F21F8081D9
:101C8000813019F0843009F012C0EFE6F1E020E075
:101C900080913A01E80FF21F808120913C01821768
:101CA00030F480933C0120913A0120933D01209132
:101CB0003A01239530913B01231708F4B4CF2091CA
:101CC0003D0120933A01E3E4F1E020913A01220F33
:101CD000E20F20E0F21F208131812DBF3EBFFF9136
:101CE000EF91DF91CF91BF91AF919F918F917F91B4
:101CF0006F915F914F913F912F911F910F91FF90A5
:101D0000EF90DF90CF90BF90AF909F908F907F909B
:101D10006F905F904F903F902F901F900F900FBE4D
:101D20000F9078940895FC010995089520915F0023
:101D3000F89430E8309361008093610020935F0055
:101D40000895282F220FE9E7F1E0E20F20E0F21FCB
:101D5000808191810895282FE5E6F1E0E20F20E0EF
:101D6000F21F8081089580913B010895282FEFE6AE
:101D7000F1E0E20F20E0F21F8081089580913C01A4
:101D8000089580913D018A95089580913D010895BF
:101D90008091400108952FB7F894609133017091BC
:101DA000340180913501909136012FBF089522E0D2
:101DB0002093C000292F2093C500282F2093C40012
:101DC00026E02093C20028E02093C10008952F93BD
:101DD0008093C6002091C00025FFFCCF2F9108956D
:101DE0008F93892F0E94E70E8F910E94E70E08952E
:101DF0002F938093C6002091C00026FFFCCF209136
:101E0000C00020642093C0002F9108950E94F80E16
:101E10008F93892F0E94F80E8F91089580934A0026
:101E2000862F0E94F80E872F0E94F80E80914A009C
:101E30000E94F80E80934A00892F0E94F80E80912C
:101E40004A0008950E2F1F2F282FE82FF92F808189
:101E50000E94F80EE02FF12F822F08950E94220F8A
:101E6000815090406150D1F70895629FD001739FD7
:101E7000F001829FE00DF11D649FE00DF11D929F26
:101E8000F00D839FF00D749FF00D659FF00D992765
:101E9000729FB00DE11DF91F639FB00DE11DF91F89
:101EA000BD01CF0111240895A1E21A2EAA1BBB1B6C
:101EB000FD010DC0AA1FBB1FEE1FFF1FA217B30716
:101EC000E407F50720F0A21BB30BE40BF50B661F2C
:101ED000771F881F991F1A9469F7609570958095F0
:101EE00090959B01AC01BD01CF010895F894FFCFFF
:101EF00041434B3030005049504531005049504526
:101F00003200504950453300504950453400504943
:041F10005045350003
:00000001FF
