:100000000C9434000C9451000C9451000C94510049
:100010000C9451000C9451000C9451000C947B08EA
:100020000C9451000C946C090C9451000C945100E8
:100030000C9451000C9451000C9451000C945100FC
:100040000C9451000C9451000C9451000C945100EC
:100050000C9451000C9451000C9451000C945100DC
:100060000C9451000C94510011241FBECFEFD8E026
:10007000DEBFCDBF11E0A0E0B1E0EEE7FCE102C0E1
:1000800005900D92A432B107D9F716E0A4E2B1E0D1
:1000900001C01D92A63AB107E1F70E9453000C94EB
:1000A0003D0E0C9400000E94E70B89EB90E060E0AD
:1000B0000E94A50A80EB90E061E00E94A50A8AE711
:1000C00090E062E00E94A50A81E790E063E00E9470
:1000D000A50A80E790E00E94CF0D0E941D0BFFCF84
:1000E00008950E944A060E943D088EE190E00E9419
:1000F0002D0CF9CF0F931F93DF93CF93CDB7DEB7BE
:10010000A0970FB6F894DEBF0FBECDBF0E941A04B1
:100110008E010F5F1F4F0E94100699838A830E94F1
:100120001506292F332727FD3A952B838C830E94B0
:100130001806292F332727FD3A952D838E830E9499
:100140001B069F8388870E940E04C80168E00E94F6
:10015000F4040E9402048FE090E00E942D0CDBCF9B
:10016000529A5A980E94FB058AE090E00E942D0C5A
:10017000F9CFCF93DF930E941E06C8ECD0E081E058
:1001800060E040E00E942506CE010197F1F780E093
:1001900060E040E00E94250685E090E00E942D0C82
:1001A000EECF87E896E090939B0680939A0684E0D2
:1001B00080938706109288061092890610928A060C
:1001C00021E020938B068AE090E090938D06809347
:1001D0008C0610928F0610928E0610929006109246
:1001E0009206109291061092940610929306109225
:1001F00095062093960610929806109297061092F4
:10020000990608952A9A08952A980895299A089592
:100210002998089584B18C6284B92498229A219AED
:100220002A9A29980895249A85B1837C85B92A9AB7
:100230002998089580E58CBD81E08DBD08951CBC92
:100240001DBC08950E940A0180E58CBD81E08DBD32
:1002500008951CBC1DBC0E9413010895E0919A06EC
:10026000F0919B06118A108A128A0895E0919A06ED
:10027000F0919B068289089590E0E0919A06F091B2
:100280009B068289882309F491E0892F089582E0F2
:100290008A95F1F7E0919A06F0919B068089918901
:1002A0000196918B808B895E934020F0118A108A91
:1002B00080E1828B82890895982FE0919A06F091CF
:1002C0009B0682898823A9F49EBD118A108A128A0E
:1002D00004C00E944701882319F40DB407FEF9CF2A
:1002E000E0919A06F0919B068289882311F48EB5DD
:1002F000089580E00895362F20E02827392740E030
:1003000061E270E1C901880F991F37FF04C09C01A9
:100310002627372701C09C014F5F483099F7C90154
:1003200008950F931F93CF93DF93062FEC0120E0E6
:1003300030E010E006C0C90169910E947B019C0178
:100340001F5F1017C0F3C901DF91CF911F910F916B
:100350000895FF920F931F93CF93DF93982F142F3D
:10036000052FF22EE0919A06F0919B068289882350
:1003700029F52A98662389F4892F80620E945C01FE
:10038000812F902F9C01E90110E004C089910E9407
:100390005C011F5F1F15D0F310C0892F0E945C0104
:1003A000812F902F9C01E90110E005C08FEF0E9482
:1003B0005C0189931F5F1F15C8F32A9ADF91CF91C3
:1003C0001F910F91FF900895E0919A06F0919B067E
:1003D0008289882339F4319681EE60E0AF0120E014
:1003E0000E94A9010895AC01E0919A06F0919B0644
:1003F0008289882329F480EA60E020E20E94A90132
:100400000895E0919A06F0919B068289882311F065
:1004100080E008951182319687E161E0AF0121E02B
:100420000E94A901E0919A06F0919B06818190E0DB
:1004300064E0969587956A95E1F781700895CF936A
:10044000DF93E0919A06F0919B068289882329F038
:100450000AC0CE010197F1F702C0C8ECD0E00E94BB
:1004600001028823B1F3DF91CF910895E0919A06BC
:10047000F0919B068289882339F4319682EE60E000
:10048000AF0120E00E94A9010895AC01E0919A0615
:10049000F0919B068289882329F481E661E020E2BD
:1004A0000E94A9010895E0919A06F0919B06828925
:1004B000882311F080E008951182319687E161E090
:1004C000AF0121E00E94A901E0919A06F0919B06FC
:1004D0008181809581700895E0919A06F0919B0644
:1004E0008289882311F080E00895319680E061E0F0
:1004F000AF0121E00E94A901E0919A06F0919B06CC
:10050000818181FF07C080FF02C081E001C082E0DD
:1005100080830895108280E00895E0919A06F0911A
:100520009B068289882361F41182319660E0AF01D5
:1005300021E00E94A901E0919A06F0919B061082A9
:100540000895E0919A06F0919B068289882391F4A0
:1005500082E781832998319680E060E0AF0121E055
:100560000E94A9010E94E401E0919A06F0919B0685
:1005700082E080830895E0919A06F0919B0682893B
:10058000882381F483E78183299A319680E060E0B3
:10059000AF0121E00E94A901E0919A06F0919B062B
:1005A00081E080830895FF920F931F93F82E162FFA
:1005B000042FE0919A06F0919B068289882369F5C1
:1005C00031968F2D61E0AF0121E00E94A901E091F9
:1005D0009A06F0919B06002351F081E090E002C062
:1005E000880F991F1A95E2F72181282B0AC081E014
:1005F00090E002C0880F991F1A95E2F7809521813B
:100600002823218340919A0650919B064F5F5F4FAC
:100610008F2D60E021E00E94A9011F910F91FF90B2
:100620000895E0919A06F0919B068289882311F043
:1006300080E00895319685E061E0AF0121E00E94FD
:10064000A901E0919A06F0919B0681810895982F67
:10065000E0919A06F0919B068289882361F4892FA4
:100660009E3708F08DE78183319685E060E0AF0129
:1006700021E00E94A9010895E0919A06F0919B065D
:100680008289882311F080E00895319686E061E048
:10069000AF0121E00E94A901E0919A06F0919B062A
:1006A0009181969596959695892F869582708183EE
:1006B0009170892B8283823011F4118206C08130BF
:1006C00019F0882311F482E0818381810895982FA5
:1006D000E0919A06F0919B068289882341F599233F
:1006E00021F486E065E041E005C0913049F486E000
:1006F00065E040E00E94D30286E063E040E00AC08B
:10070000923059F486E065E040E00E94D30286E032
:1007100063E041E00E94D302089586E065E040E096
:100720000E94D30286E063E041E00E94D302089574
:10073000E0919A06F0919B068289882311F080E06F
:100740000895319686E061E0AF0121E00E94A901A1
:10075000E0919A06F0919B06818186958370818352
:100760000895982FE0919A06F0919B06828988233C
:1007700071F5992321F486E062E040E00BC09130EE
:1007800021F486E062E040E010C0923049F486E057
:1007900062E041E00E94D30286E061E040E00AC0EE
:1007A000933059F486E062E041E00E94D30286E093
:1007B00061E041E00E94D302089586E062E041E0FA
:1007C0000E94D30286E061E041E00E94D3020895D6
:1007D000E0919A06F0919B0683830895E0919A0632
:1007E000F0919B0684830895E0919A06F0919B0610
:1007F000968385830895E0919A06F0919B069387EE
:1008000082870895E0919A06F0919B068081882363
:1008100021F00E948D020E9429010895E0919A061C
:10082000F0919B068081882321F40E9422010E947E
:10083000BB0208950F931F930E94D1000E942201D2
:10084000E0919A06F0919B061182319680E060E07B
:10085000AF0121E00E94A901E0919A06F0919B0668
:100860001182319681E060E0AF0121E00E94A90190
:10087000E0919A06F0919B0683E08183319682E0B5
:1008800060E0AF0121E00E94A901E0919A06F09199
:100890009B0681E08183319683E060E0AF0121E037
:1008A0000E94A901E0919A06F0919B06118231966F
:1008B00084E060E0AF0121E00E94A901E0919A0686
:1008C000F0919B0682E08183319685E060E0AF0184
:1008D00021E00E94A901E0919A06F0919B0686E230
:1008E0008183319686E060E0AF0121E00E94A9019A
:1008F000E0919A06F0919B0680E78183319687E02C
:1009000060E0AF0121E00E94A901E0919A06F09118
:100910009B0610E21183319681E160E0AF0121E096
:100920000E94A901E0919A06F0919B0611833196ED
:1009300082E160E0AF0121E00E94A901E0919A0606
:10094000F0919B06118231968CE160E0AF0121E0CD
:100950000E94A901E0919A06F0919B0611823196BE
:100960008DE160E0AF0121E00E94A90100E011E00B
:1009700080E160E0A80125E00E94A9018AE060E032
:10098000A80125E00E94A9018BE060E046E051E06B
:1009900025E00E94A9018CE060E04CE051E025E0F8
:1009A0000E94A9018DE060E042E151E025E00E9453
:1009B000A9018EE060E048E151E025E00E94A90134
:1009C0008FE060E04EE151E025E00E94A901E09156
:1009D0009A06F0919B0680E290E0968385830E94C0
:1009E00002041F910F910895FF920F931F938C01A2
:1009F000F62EE0919A06F0919B06118A108A128ACF
:100A00000E94A102E0919A06F0919B068381F80171
:100A1000838FE0919A06F0919B068481F801848F80
:100A2000F58EC8016EE10E949101F801968F878FC3
:100A3000C8010E94F301299A0E941F0229981F9160
:100A40000F91FF900895CF92DF92EF92FF920F9354
:100A50001F93CF93DF937C01E0919A06F0919B0660
:100A6000118A108A128A108617820E94BB0278ECC3
:100A7000C72ED12C23C00E945302882399F0C701AE
:100A80000E944502F701D68DC0E0078D10E00C2BC7
:100A90001D2BC7016EE10E9491010817190711F47F
:100AA00081E018C0C6010197F1F7E0919A06F09134
:100AB0009B0687819085019690878783E0919A06AF
:100AC000F0919B062781308585819681281739070B
:100AD00090F280E0DF91CF911F910F91FF90EF9006
:100AE000DF90CF900895CF93DF93EC01E0919A06C9
:100AF000F0919B068785882319F081E08A8F01C0D9
:100B00001A8ECE010E94F404CE010E9423058111A9
:100B100081E0DF91CF910895CF93DF93EC010E94A4
:100B200023058823B9F08A8D8130A1F4E0919A06DB
:100B3000F0919B0693818C8D981761F488EE93E079
:100B40000197F1F78B8D8483CE0162E00E94F4045B
:100B500081E001C080E0DF91CF91089580917A001B
:100B600087FD0FC08FEC80937C0086E080937A0035
:100B700080917A00806C80937A0080917A0084FF63
:100B8000FCCF0895DF92EF92FF920F931F93182FDF
:100B9000D62E0E94AE0580917C00807F812B8093B1
:100BA0007C00EE24FF24870120E014C080917A00AD
:100BB000806480937A0080917A0084FFFCCF8091DA
:100BC000780090917900A0E0B0E0E80EF91E0A1FCD
:100BD0001B1F2F5F2D1550F32D2D30E040E050E00E
:100BE000C801B7010E941B0EC9011F910F91FF9010
:100BF000EF90DF900895809124018160809324011B
:100C00005A9A86E064E00E94C20590932601809380
:100C100025015A98809124018E7F809324010895A4
:100C20008091250190912601089580E090E008953B
:100C300080E090E008950E94760808955D9A5E9A9B
:100C40005F9A559A569A569A0895813011F45D9894
:100C500001C05D9A613011F45E9801C05E9A413026
:100C600011F45F9808955F9A089510929C0610926F
:100C70009D0610929F0610929E061092A106109259
:100C8000A0061092A3061092A2061092A40610923B
:100C9000A50608950E9435065B9A539A45983D989B
:100CA00044983C98089582E18093B800ECEBF0E022
:100CB0008081846080838081816080830895109228
:100CC000B8001092BC00089510929F0610929E06E4
:100CD0001092A40608958AE18A95F1F780919E0604
:100CE00090919F06019690939F0680939E0685366D
:100CF000910510F480E0089510929F0610929E06D0
:100D000081E008958091A4068823D9F484EA809331
:100D1000BC0010929F0610929E061092A40608C076
:100D20000E946B06882321F080EF8093A40604C004
:100D30008091BC0087FFF4CF8091B900887F8093B9
:100D40009C0608958091A406882319F484E9809371
:100D5000BC0008958091A406882311F080E00895D6
:100D600084EC8093BC0010929F0610929E06109215
:100D7000A40608C00E946B06882321F082EF8093AE
:100D8000A40604C08091BC0087FFF4CF8091B90015
:100D9000887F80939C068091BB000895982F809156
:100DA000A4068823E9F49093BB0084EC8093BC00F4
:100DB00010929F0610929E061092A40608C00E94F0
:100DC0006B06882321F081EF8093A40604C08091F4
:100DD000BC0087FFF4CF8091B900887F80939C0688
:100DE00008958091A406882311F080E0089584E896
:100DF0008093BC0010929F0610929E061092A4064B
:100E000008C00E946B06882321F083EF8093A4061C
:100E100004C08091BC0087FFF4CF8091B900887F27
:100E200080939C068091BB0008950F931F9310E060
:100E300004E90E948206812F880F0E94CE068091CD
:100E4000A406882351F40093BC0080919C0688314D
:100E500021F410939D06812F04C01F5F1F3749F7AF
:100E600080E01F910F9108950F931F93082F0E9408
:100E7000820680919D06880F0E94CE0680919C0676
:100E80008831D9F5802F0E94CE0680919C06883249
:100E900091F58091A406882319F484E98093BC001D
:100EA0000E94820680919D06880F81600E94CE0676
:100EB00080919C068034E9F40E94AA06282F30E035
:100EC00080919C06803589F4122F00270E94F1063C
:100ED000282F30E0202B312B80919C06883519F487
:100EE0001092A5060FC085E001C084E08093A5069E
:100EF00009C083E003C082E001C081E08093A506C1
:100F000020E030E08091A406882319F484E98093DE
:100F1000BC008091A506882311F020E030E0C901D3
:100F20001F910F910895FF920F931F93182FF62E84
:100F3000072F0E94820680919D06880F0E94CE0690
:100F400080919C068831F1F4812F0E94CE06809119
:100F50009C068832A9F4802F0E94CE0680919C06C0
:100F6000883261F48F2D0E94CE0680919C068832D3
:100F700019F41092A50609C084E105C083E103C0FD
:100F800082E101C081E18093A5068091A4068823B7
:100F900019F484E98093BC001F910F91FF9008958C
:100FA0000E94820680919D06880F0E94CE06809145
:100FB0009C06883161F481E00E94CE0680919C06F7
:100FC000883219F41092A50605C082E201C081E2C0
:100FD0008093A5068091A406882319F484E9809360
:100FE000BC0008951F9310929F0610929E061092C7
:100FF000A40680E49CE90197F1F70E9482068091A3
:101000009D06880F81600E94CE060E94AA06182FB6
:101010000E94F106282F8091A406882329F020E061
:1010200030E040E050E026C084E98093BC00612FAE
:1010300070E080E090E0982F872F762F662730E0D1
:1010400040E050E0622B732B842B952B24E630E09C
:1010500040E050E00E94FC0D2FEF3FEF40E050E0F9
:101060000E941B0EC901DA019C01AD013093A30659
:101070002093A206C9011F910895EF92FF920F934A
:101080001F935B9848EBE42EF12C82E1F7018083FB
:101090000CEB10E0F80180818460808380818160A6
:1010A000808380EA9FE00197F1F70E94150782E0B4
:1010B00060E070E00E9493070E94D0070E94F20750
:1010C000F7011082F80110825B9A1F910F91FF9037
:1010D000EF90089580919C06089580919D06089553
:1010E0008091A50608958091A40608958091A20696
:1010F0009091A3060895209153002E7F20935300D2
:101100000F920FB60F921F9211242F923F924F927F
:101110005F926F927F928F929F92AF92BF92CF9287
:10112000DF92EF92FF920F931F932F933F934F9372
:101130005F936F937F938F939F93AF93BF93CF935F
:10114000DF93EF93FF93EDE3F1E020913401220F61
:10115000E20F20E0F21F2DB73EB7208331832091AC
:1011600033012093460020912D01239520932D01DA
:1011700030E020912E01231F20932E0120912F017A
:10118000231F20932F0120913001231F2093300132
:1011900020913101231F2093310180E02FEF209314
:1011A000360120E020933701582F20933401852FFA
:1011B000E3E7F1E020913401220FE20F20E0F21F7B
:1011C00020813181422F432B59F0813099F041E049
:1011D000241B40E0340B20833183422F432B51F4F6
:1011E000EFE5F1E020913401E20F20E0F21F81E011
:1011F000808308C0EFE5F1E020913401E20F20E0A8
:10120000F21F8081813019F0843009F012C0E9E6C4
:10121000F1E020E080913401E80FF21F80812091FD
:101220003601821730F480933601209134012093E7
:10123000370120913401239530913501231708F4AB
:10124000B4CF20913701209334012091340122231F
:1012500029F02091390123952093390120913801FB
:101260002395243640F020E03091390130933A0143
:1012700030E03093390120933801EDE3F1E0209123
:101280003401220FE20F20E0F21F208131812DBFB7
:101290003EBFFF91EF91DF91CF91BF91AF919F91B1
:1012A0008F917F916F915F914F913F912F911F91FE
:1012B0000F91FF90EF90DF90CF90BF90AF909F90F5
:1012C0008F907F906F905F904F903F902F901F90E6
:1012D0000F900FBE0F901895209153002E7F2093F2
:1012E00053000F920FB60F921F9211242F923F922C
:1012F0004F925F926F927F928F929F92AF92BF9226
:10130000CF92DF92EF92FF920F931F932F933F9311
:101310004F935F936F937F938F939F93AF93BF93FD
:10132000CF93DF93EF93FF93EDE3F1E0209134014E
:10133000220FE20F20E0F21F2DB73EB7208331834A
:10134000209133012093460020912D012395209375
:101350002D0130E020912E01231F20932E0120919A
:101360002F01231F20932F0120913001231F209351
:10137000300120913101231F2093310180E02FEFB4
:101380002093360120E020933701582F2093340119
:10139000852FE3E7F1E020913401220FE20F20E0F6
:1013A000F21F20813181422F432B59F0813099F077
:1013B00041E0241B40E0340B20833183422F432B38
:1013C00051F4EFE5F1E020913401E20F20E0F21F4B
:1013D00081E0808308C0EFE5F1E020913401E20F65
:1013E00020E0F21F8081813019F0843009F012C0B2
:1013F000E9E6F1E020E080913401E80FF21F8081FE
:1014000020913601821730F4809336012091340107
:101410002093370120913401239530913501231712
:1014200008F4B4CF20913701209334012091340186
:10143000222329F02091390123952093390120910D
:1014400038012395243640F020E030913901309363
:101450003A0130E03093390120933801EDE3F1E0B7
:1014600020913401220FE20F20E0F21F2081318110
:101470002DBF3EBFFF91EF91DF91CF91BF91AF9113
:101480009F918F917F916F915F914F913F912F919C
:101490001F910F91FF90EF90DF90CF90BF90AF9092
:1014A0009F908F907F906F905F904F903F902F9084
:1014B0001F900F900FBE0F901895F894A0915101B6
:1014C000B09152012DB73EB72D933D93ED93FD930F
:1014D000A0935101B093520120E020932D0120935D
:1014E0002E0120932F01209330012093310120936E
:1014F000320120933301209334012093350120934E
:10150000360120933701209338012093390120932D
:101510003A0120E02093700020E02093B10020E009
:101520002093B6008093320160933301A091510162
:10153000B0915201FE91EE913E912E912DBF3EBF92
:10154000A0935101B09352010895A0915101B0911F
:1015500052012DB73EB72D933D93ED93FD93A0938C
:101560005101B0935201E9E6F1E020913401E20F1C
:1015700020E0F21F6083EFE5F1E020913401E20FFB
:1015800020E0F21F21E0208320913401239530E8F0
:10159000239FE02DF12D3197112427E831E0E20F50
:1015A000F31FEDBFFEBF8F939F930F920FB60F9265
:1015B0001F9211242F923F924F925F926F927F92CF
:1015C0008F929F92AF92BF92CF92DF92EF92FF9253
:1015D0000F931F932F933F934F935F936F937F933B
:1015E0008F939F93AF93BF93CF93DF93EF93FF932B
:1015F0002DB73EB740913401440FEDE3F1E0E40F25
:1016000040E0F41F219330832091340123952093EF
:10161000340120913501239520933501A09151018A
:10162000B0915201FE91EE913E912E912DBF3EBFA1
:10163000A0935101B0935201089581E02FEF2093C0
:10164000360120E020933701582F20933401852F55
:10165000E3E7F1E020913401220FE20F20E0F21FD6
:1016600020813181422F432B59F0813099F041E0A4
:10167000241B40E0340B20833183422F432B51F451
:10168000EFE5F1E020913401E20F20E0F21F81E06C
:10169000808308C0EFE5F1E020913401E20F20E003
:1016A000F21F8081813019F0843009F012C0E9E620
:1016B000F1E020E080913401E80FF21F8081209159
:1016C0003601821730F48093360120913401209343
:1016D000370120913401239530913501231708F407
:1016E000B4CF2091370120933401EDE3F1E0209154
:1016F0003401220FE20F20E0F21F208131812DBF43
:101700003EBFFF91EF91DF91CF91BF91AF919F913C
:101710008F917F916F915F914F913F912F911F9189
:101720000F91FF90EF90DF90CF90BF90AF909F9080
:101730008F907F906F905F904F903F902F901F9071
:101740000F900FBE0F90789420E02093700020E25D
:101750002093B60020E82093B30020E02093B4004B
:1017600022E02093B00026E02093B10020E02093F7
:10177000B2002091B6002270E1F72091B6002170EE
:10178000E1F72091B6002870E1F72091B6002470AF
:10179000E1F72091B6002071E1F720913700217028
:1017A00019F021E02093370020913700227019F0C2
:1017B00022E02093370020913700247019F024E0B4
:1017C0002093370022E0209370007894089511242C
:1017D00023E531E02093510130935201A091510152
:1017E000B09152012DB73EB72D933D93ED93FD93EC
:1017F000A0935101B093520183E062E80E945D0A18
:101800008CE298E1969587956FEF0E94A50AA091CA
:101810005101B0915201FE91EE913E912E912DBF5A
:101820003EBFA0935101B0935201089526E020934A
:10183000530020933B0120917A002F7720937A0068
:101840002091500020682093500020915300216087
:101850002093530088950C941B0C0F920FB6F894AC
:101860000F921F9211242F923F924F925F926F928C
:101870007F928F929F92AF92BF92CF92DF92EF9220
:10188000FF920F931F932F933F934F935F936F9309
:101890007F938F939F93AF93BF93CF93DF93EF93F8
:1018A000FF93EDE3F1E020913401220FE20F20E0FD
:1018B000F21F2DB73EB720833183E3E7F1E020919B
:1018C0003401220FE20F20E0F21F80839183EFE5C5
:1018D000F1E020913401E20F20E0F21F20E02083AC
:1018E00081E02FEF2093360120E020933701582F1D
:1018F00020933401852FE3E7F1E020913401220F9A
:10190000E20F20E0F21F20813181422F432B59F05A
:10191000813099F041E0241B40E0340B2083318377
:10192000422F432B51F4EFE5F1E020913401E20F17
:1019300020E0F21F81E0808308C0EFE5F1E0209114
:101940003401E20F20E0F21F8081813019F08430F1
:1019500009F012C0E9E6F1E020E080913401E80FDF
:10196000F21F808120913601821730F48093360176
:101970002091340120933701209134012395309137
:101980003501231708F4B4CF209137012093340197
:10199000EDE3F1E020913401220FE20F20E0F21F8D
:1019A000208131812DBF3EBFFF91EF91DF91CF911B
:1019B000BF91AF919F918F917F916F915F914F9167
:1019C0003F912F911F910F91FF90EF90DF90CF905B
:1019D000BF90AF909F908F907F906F905F904F904F
:1019E0003F902F901F900F900FBE0F907894089506
:1019F000F894E3E7F1E020913401220FE20F20E0B8
:101A0000F21F80839183EFE5F1E020913401E20F32
:101A100020E0F21F24E02083789408950F920FB6FF
:101A2000F8940F921F9211242F923F924F925F923F
:101A30006F927F928F929F92AF92BF92CF92DF92DE
:101A4000EF92FF920F931F932F933F934F935F93C8
:101A50006F937F938F939F93AF93BF93CF93DF93B6
:101A6000EF93FF93EDE3F1E020913401220FE20FB9
:101A700020E0F21F2DB73EB720833183EFE5F1E080
:101A800020913401E20F20E0F21F20E0208381E06A
:101A90002FEF2093360120E020933701582F209319
:101AA0003401852FE3E7F1E020913401220FE20FAA
:101AB00020E0F21F20813181422F432B59F08130E9
:101AC00099F041E0241B40E0340B20833183422F06
:101AD000432B51F4EFE5F1E020913401E20F20E0D7
:101AE000F21F81E0808308C0EFE5F1E0209134012E
:101AF000E20F20E0F21F8081813019F0843009F07C
:101B000012C0E9E6F1E020E080913401E80FF21F15
:101B1000808120913601821730F480933601209124
:101B20003401209337012091340123953091350100
:101B3000231708F4B4CF2091370120933401EDE34B
:101B4000F1E020913401220FE20F20E0F21F20810A
:101B500031812DBF3EBFFF91EF91DF91CF91BF91BA
:101B6000AF919F918F917F916F915F914F913F9135
:101B70002F911F910F91FF90EF90DF90CF90BF902A
:101B8000AF909F908F907F906F905F904F903F901D
:101B90002F901F900F900FBE0F9078940895FC0126
:101BA00009950895282F220FE3E7F1E0E20F20E0E6
:101BB000F21F808191810895282FEFE5F1E0E20F77
:101BC00020E0F21F80810895809135010895282F2B
:101BD000E9E6F1E0E20F20E0F21F808108958091B4
:101BE00036010895809137018A95089580913701D3
:101BF000089580913A010895629FD001739FF0018A
:101C0000829FE00DF11D649FE00DF11D929FF00D8C
:101C1000839FF00D749FF00D659FF00D9927729FC3
:101C2000B00DE11DF91F639FB00DE11DF91FBD014E
:101C3000CF0111240895A1E21A2EAA1BBB1BFD019E
:101C40000DC0AA1FBB1FEE1FFF1FA217B307E4079B
:101C5000F50720F0A21BB30BE40BF50B661F771FF3
:101C6000881F991F1A9469F76095709580959095D3
:0E1C70009B01AC01BD01CF010895F894FFCF98
:101C7E0041434B303000504950453100504950459A
:101C8E0032005049504533005049504534005049B8
:041C9E005045350078
:00000001FF
