:100000000C9434000C9451000C9451000C94510049
:100010000C9451000C9451000C9451000C94030A60
:100020000C9451000C9451000C9451000C9451000C
:100030000C9451000C9451000C9451000C945100FC
:100040000C9451000C9451000C9451000C945100EC
:100050000C9451000C9451000C9451000C945100DC
:100060000C9451000C94510011241FBECFEFD8E026
:10007000DEBFCDBF11E0A0E0B1E0E8E6FEE102C0E6
:1000800005900D92A432B107D9F715E0A4E2B1E0D2
:1000900001C01D92AD3DB107E1F70E9453000C94E1
:1000A000320F0C94000081E00E94520E0E94670CF7
:1000B00083E291E060E00E94260B88E191E061E03C
:1000C0000E94260B8EE890E062E00E94260B8BE7F0
:1000D00090E063E00E94260B0E949E0BFFCF0895E4
:1000E0000E94FD0982E090E00E94AD0C0E94FF0991
:1000F00083E090E0F9CF0E944A0782E090E00E94FE
:10010000AD0C0E9453070E94D0080E94A9060E94CD
:1001100055070E949C098CE291E0F1CF0E948D046A
:1001200082E090E00E94AD0CB0E1BB2ECAE7D5E0C2
:10013000A2E0CA2ED12CCC0EDD1EF8E0EF2EF12C61
:10014000EC0EFD1E8E01025D1F4FB09284050E94D1
:10015000870E6093A4057093A5058093A6059093E0
:10016000A705292F332744275527209385059C0170
:100170004427552720938605272F382F492F5527A9
:1001800020938705609388050E94E40680937A0592
:1001900099839093890580938A050E94EE06809347
:1001A0007C05F601918390938B0580938C050E94CA
:1001B000F30690937F0580937E05292F332727FD33
:1001C0003A9520938D0580938E050E94F9069093B1
:1001D000810580938005292F332727FD3A952093A9
:1001E0008F05809390050E94F60680938205F701A3
:1001F00091838093910584E895E06EE00E9405026A
:100200008093A805F80191839093920580939305BC
:100210000E94810484E895E060E10E9466050E94E6
:1002200075040E94E2058CE291E00E94AD0C8DCF36
:10023000529A5A9882E090E00E94AD0C0E9471069A
:100240008CE390E0F9CF0E94FC0682E090E00E94EF
:10025000AD0CC8EED3E00E94E406815F9A4018F02E
:1002600080E061E002C081E060E040E00E940307BE
:10027000CE010197F1F780E060E040E00E940307C3
:100280008EE190E00E94AD0CE6CF8AEA95E0909373
:10029000BE058093BD0584E08093AA051092AB054E
:1002A0001092AC051092AD0521E02093AE058AE0D6
:1002B00090E09093B0058093AF051092B205109234
:1002C000B1051092B3051092B5051092B4051092C5
:1002D000B7051092B6051092B8052093B905109293
:1002E000BB051092BA051092BC0508952A9A08958C
:1002F0002A980895299A08952998089584B18C62BE
:1003000084B92498229A219A2A9A29980895249A9D
:1003100085B1837C85B92A9A2998089580E58CBD9A
:1003200081E08DBD08951CBC1DBC08950E947E0116
:1003300080E58CBD81E08DBD08951CBC1DBC0E9474
:1003400087010895E091BD05F091BE05118A108ADC
:10035000128A0895E091BD05F091BE058289089545
:1003600090E0E091BD05F091BE058289882309F4F3
:1003700091E0892F089581E08A95F1F7E091BD051C
:10038000F091BE05808991890196918B808B895E61
:10039000934020F0118A108A80E1828B828908952F
:1003A000982FE091BD05F091BE0582898823A9F4BC
:1003B0009EBD118A108A128A04C00E94BB01882344
:1003C00019F40DB407FEF9CFE091BD05F091BE051B
:1003D0008289882311F48EB5089580E00895362F20
:1003E00020E02827392740E061E270E1C901880F49
:1003F000991F37FF04C09C012627372701C09C01A5
:100400004F5F483099F7C90108950F931F93CF9319
:10041000DF93062FEC0120E030E010E006C0C901B8
:1004200069910E94EF019C011F5F1017C0F3C90181
:10043000DF91CF911F910F910895FF920F931F931A
:10044000CF93DF93982F142F052FF22EE091BD0547
:10045000F091BE058289882329F52A98662389F4BC
:10046000892F80620E94D001812F902F9C01E90189
:1004700010E004C089910E94D0011F5F1F15D0F3C6
:1004800010C0892F0E94D001812F902F9C01E9017B
:1004900010E005C08FEF0E94D00189931F5F1F15E8
:1004A000C8F32A9ADF91CF911F910F91FF90089581
:1004B000E091BD05F091BE058289882339F431961B
:1004C00081EE60E0AF0120E00E941D020895AC01C2
:1004D000E091BD05F091BE058289882329F480EA68
:1004E00060E020E20E941D020895E091BD05F091B8
:1004F000BE058289882311F080E00895118231962B
:1005000087E161E0AF0121E00E941D02E091BD059D
:10051000F091BE05818190E064E0969587956A959B
:10052000E1F7817008951F93E091BD05F091BE053C
:100530008289882329F009C0812F8A95F1F701C0AB
:1005400015E80E9475028823B9F31F910895E09180
:10055000BD05F091BE058289882339F4319682EE7B
:1005600060E0AF0120E00E941D020895AC01E0911F
:10057000BD05F091BE058289882329F481E661E0FA
:1005800020E20E941D020895E091BD05F091BE0594
:100590008289882311F080E008951182319687E1E5
:1005A00061E0AF0121E00E941D02E091BD05F091E4
:1005B000BE058181809581700895E091BD05F0911F
:1005C000BE058289882311F080E00895319680E08D
:1005D00061E0AF0121E00E941D02E091BD05F091B4
:1005E000BE05818181FF07C080FF02C081E001C09C
:1005F00082E080830895108280E00895E091BD0537
:10060000F091BE058289882371F480E78183319659
:1006100080E060E0AF0121E00E941D02E091BD0595
:10062000F091BE0510820895E091BD05F091BE05E0
:100630008289882391F482E781832998319680E02A
:1006400060E0AF0121E00E941D020E945802E0918B
:10065000BD05F091BE0582E080830895E091BD055F
:10066000F091BE058289882381F483E78183299AEA
:10067000319680E060E0AF0121E00E941D02E09130
:10068000BD05F091BE0581E080830895FF920F9330
:100690001F93F82E162F042FE091BD05F091BE0593
:1006A0008289882369F531968F2D61E0AF0121E0C1
:1006B0000E941D02E091BD05F091BE05002351F09E
:1006C00081E090E002C0880F991F1A95E2F721811E
:1006D000282B0AC081E090E002C0880F991F1A956C
:1006E000E2F780952181282321834091BD05509117
:1006F000BE054F5F5F4F8F2D60E021E00E941D021D
:100700001F910F91FF900895E091BD05F091BE05F6
:100710008289882311F080E00895319685E061E0B8
:10072000AF0121E00E941D02E091BD05F091BE05E0
:1007300081810895982FE091BD05F091BE058289D1
:10074000882361F4892F9E3708F08DE781833196E5
:1007500085E060E0AF0121E00E941D020895E09174
:10076000BD05F091BE058289882311F080E00895CF
:10077000319686E061E0AF0121E00E941D02E09128
:10078000BD05F091BE059181969596959695892F18
:100790008695827081839170892B8283823011F4D7
:1007A000118206C0813019F0882311F482E0818320
:1007B00081810895982FE091BD05F091BE05828951
:1007C000882341F5992321F486E065E041E005C0E6
:1007D000913049F486E065E040E00E94460386E0FF
:1007E00063E040E00AC0923059F486E065E040E002
:1007F0000E94460386E063E041E00E9446030895BC
:1008000086E065E040E00E94460386E063E041E068
:100810000E9446030895E091BD05F091BE058289CE
:10082000882311F080E00895319686E061E0AF0101
:1008300021E00E941D02E091BD05F091BE0581817D
:100840008695837081830895982FE091BD05F0917E
:10085000BE058289882371F5992321F486E062E040
:1008600040E00BC0913021F486E062E040E010C02F
:10087000923049F486E062E041E00E94460386E05F
:1008800061E040E00AC0933059F486E062E041E064
:100890000E94460386E061E041E00E94460308951D
:1008A00086E062E041E00E94460386E061E041E0CC
:1008B0000E9446030895E091BD05F091BE05838333
:1008C0000895E091BD05F091BE0584830895E091FF
:1008D000BD05F091BE05968385830895E091BD0521
:1008E000F091BE05938782870895E091BD05F09150
:1008F000BE058081882321F00E94FE020E949D0196
:100900000895E091BD05F091BE058081882321F412
:100910000E9496010E942E0308950F931F930E9438
:1009200045010E949601E091BD05F091BE0510E7DA
:100930001183319680E060E0AF0121E00E941D024A
:10094000E091BD05F091BE051182319681E060E035
:10095000AF0121E00E941D02E091BD05F091BE05AE
:1009600083E08183319682E060E0AF0121E00E9464
:100970001D02E091BD05F091BE0581E081833196B5
:1009800083E060E0AF0121E00E941D02E091BD051F
:10099000F091BE051182319684E060E0AF0121E064
:1009A0000E941D02E091BD05F091BE0582E08183A9
:1009B000319685E060E0AF0121E00E941D02E091E8
:1009C000BD05F091BE0586E08183319660E0AF0100
:1009D00021E00E941D02E091BD05F091BE0511834A
:1009E000319687E060E0AF0121E00E941D02E091B6
:1009F000BD05F091BE0510E21183319681E160E002
:100A0000AF0121E00E941D02E091BD05F091BE05FD
:100A10001183319682E160E0AF0121E00E941D0266
:100A2000E091BD05F091BE05118231968CE160E048
:100A3000AF0121E00E941D02E091BD05F091BE05CD
:100A4000118231968DE160E0AF0121E00E941D022C
:100A500000E011E080E160E0A80125E00E941D02B5
:100A60008AE060E0A80125E00E941D028BE060E0C2
:100A700046E051E025E00E941D028CE060E04CE081
:100A800051E025E00E941D028DE060E042E151E06E
:100A900025E00E941D028EE060E048E151E025E083
:100AA0000E941D028FE060E04EE151E025E00E94CF
:100AB0001D02E091BD05F091BE0580E290E09683B5
:100AC00085830E9475041F910F910895FF920F93E3
:100AD0001F938C01F62EE091BD05F091BE05118AA1
:100AE000108A128A0E941403E091BD05F091BE05A0
:100AF0008381F801838FE091BD05F091BE0584816B
:100B0000F801848FF58EC8016EE10E940502F8019C
:100B1000968F878FC8010E946702299A0E949302CC
:100B200029981F910F91FF900895DF92EF92FF9205
:100B30000F931F93CF93DF937C01E091BD05F0915C
:100B4000BE05118A108A128A108617820E942E030F
:100B500075E8D72E23C00E94C402882399F0C701EC
:100B60000E94B602F701D68DC0E0078D10E00C2B75
:100B70001D2BC7016EE10E9405020817190711F429
:100B800081E018C08D2D8A95F1F7E091BD05F091B7
:100B9000BE0587819085019690878783E091BD058A
:100BA000F091BE0527813085858196812817390708
:100BB00090F280E0DF91CF911F910F91FF90EF9025
:100BC000DF900895E091BD05F091BE0582898823EC
:100BD00039F0118A108A128A0E949D010E948D04A8
:100BE000089580917A0087FD1CC08FEC80937C0073
:100BF00086E080937A0080917A00806C80937A00FE
:100C000090E02DE00AC09F5F822F8A95F1F7993C12
:100C100021F481E080933101089580917A0084FF6E
:100C2000F2CF0895DF92EF92FF920F931F93182F48
:100C3000D62E0E94F10580913101882309F040C031
:100C400080917C00807F812B80937C0084EF91E0F9
:100C50000197F1F7EE24FF24870120E030E04DE01A
:100C60001EC080917A00806480937A0090E008C072
:100C70009F5F842F8A95F1F7993C11F431E004C00D
:100C800080917A0084FFF4CF809178009091790070
:100C9000A0E0B0E0E80EF91E0A1F1B1F2F5F2D1504
:100CA00000F3309331012D2D30E040E050E0C801D9
:100CB000B7010E94100FC901DA019C01AD010AC001
:100CC00080933201109231010E94F10520E030E062
:100CD00040E050E0C9011F910F91FF90EF90DF902D
:100CE0000895809124018160809324015A9A86E0BE
:100CF00062E00E94120686E064E00E941206909371
:100D00002601809325015A98A0E0B0E0BC01CD01F6
:100D100024EC3FEB43E050E00E94F10E2AE0969570
:100D20008795779567952A95D1F72AE030E040E0DE
:100D300050E00E94100F2093270130932801409328
:100D4000290150932A01809124018E7F80932401F0
:100D500008958091240182608093240187E062E0FD
:100D60000E94120687E064E00E94120690932C0114
:100D700080932B01A0E0B0E0BC01CD012CEB36EF5D
:100D800041E050E00E94F10E3AE096958795779504
:100D900067953A95D1F72AE030E040E050E00E94B4
:100DA000100F20932D0130932E0140932F0150936B
:100DB0003001809124018D7F8093240108958091DA
:100DC0002501909126010895809127019091280195
:100DD000089580912B0190912C01089580912D010F
:100DE00090912E01089580E090E008950E94F3090B
:100DF00008950E94EE090895559A569A569A5D9A5A
:100E00005E9A5F9A0895813011F45D9801C05D9AF1
:100E1000613011F45E9801C05E9A413011F45F9820
:100E200008955F9A08951092C7051092CB0510920D
:100E3000CD051092CC051092CE051092CF051092E0
:100E4000D0051092D1051092D3051092D2051092C0
:100E5000D4051092D5051092D6051092D7051092A0
:100E6000D9051092D8051092DA051092DB05109280
:100E7000DC051092BF051092C0051092C1051092BA
:100E8000C2051092C3051092C4051092C5051092B8
:100E9000C60508950E9413075B9A539A45983D989A
:100EA00044983C9808955B9808955B9A0895813022
:100EB00021F43D988093C9050895882319F43D9A3B
:100EC0001092C9050895813021F43C988093CA0599
:100ED0000895882319F43C9A1092CA0508953C9B02
:100EE00004C03C9886E08A95F1F786B190E024E052
:100EF000969587952A95E1F7817008953D9B02C0EC
:100F000080E0089587B182958F70809581700895F3
:100F10001F938091DB058823C1F481E00E9457076D
:100F200016E0812F8A95F1F781E00E946307812FF7
:100F30008A95F1F780E00E946307812F8A95F1F787
:100F400080E00E9457071A95F1F71F9108951F93AB
:100F50008091DB058823D9F43D9905C00E9457078D
:100F600082E08A95F1F73C9906C080E00E94630711
:100F700082E08A95F1F781E00E94570716E0812F01
:100F80008A95F1F781E00E9463071A95F1F71F91A6
:100F900008951F938091DB058823D9F00E947E0776
:100FA0008823B9F40E94570712E0812F8A95F1F740
:100FB00080E00E9463071A95F1F781E00E945707CD
:100FC00016E0812F8A95F1F781E00E9463071A9558
:100FD000F1F71F910895FF920F931F93082F8091AF
:100FE000DB058823F1F410E036E0F32E07FF02C0A2
:100FF00081E001C080E00E9463078F2D8A95F1F7A0
:1010000081E00E9457078F2D8A95F1F780E00E94BA
:1010100057078F2D8A95F1F71F5F183011F0000FD9
:10102000E5CF1F910F91FF900895FF920F931F93AB
:101030008091DB05882311F010E01FC081E00E9441
:10104000630786E08A95F1F710E000E046E0F42EB1
:10105000110F0E946F07813009F4116081E00E9436
:1010600057078F2D8A95F1F780E00E9457078F2D43
:101070008A95F1F70F5F083059F7812F1F910F9173
:10108000FF9008951F938091DB058823F9F481E098
:101090000E94630712E0812F8A95F1F781E00E9498
:1010A00057071A95F1F70E946F07882321F481E012
:1010B0008093C80502C01092C80512E0812F8A955E
:1010C000F1F780E00E9457071A95F1F71F910895F4
:1010D0001F938091DB058823A1F40E94630712E02F
:1010E000812F8A95F1F781E00E945707812F8A9519
:1010F000F1F7812F8A95F1F780E00E9457071A9542
:10110000F1F71F9108950F931F93082F10E00E948D
:101110008807802F0E94EB070E9442088091C80533
:10112000882311F081E009C00E94A7071F5F1F31CB
:1011300071F781E08093DB0580E01F910F910895A6
:10114000FF920F931F93182F80E80E94830882E07C
:101150000E94EB070E944208F090C805812F0E9470
:10116000EB070E9442080091C80580E00E94EB074F
:101170000E9442081091C8050E94A7078091DB05D4
:10118000882351F4000F110F110F102B1F29173056
:1011900019F085E08093DB051F910F91FF90089572
:1011A000EF92FF920F931F9380E29EE40197F1F775
:1011B0001092DB0580E00E94A0080E94880780E86A
:1011C0000E94EB070E944208E090C80580E00E9460
:1011D000EB070E9442081091C8050E94A707809162
:1011E000DB05882339F4110F1E29133019F086E02E
:1011F0008093DB0580E797E10197F1F781E80E9492
:1012000083080E94150890E0A0E0B0E08093CE052E
:101210009093CF05A093D005B093D1050E946808A4
:10122000E090CE05F090CF050091D0051091D1054A
:10123000102F0F2DFE2CEE24E092CE05F092CF055C
:101240000093D0051093D1050E94150890E0A0E00E
:10125000B0E08E299F29A02BB12B8093CE059093CF
:10126000CF05A093D005B093D1050E9442080E94FB
:10127000A7070E94880780E80E94EB070E944208A7
:10128000E090C80581E00E94EB070E94420810919F
:10129000C8050E94A7078091DB05882339F4110F48
:1012A0001E29133019F087E08093DB0580E797E172
:1012B0000197F1F781E80E9483080E94150890E0E9
:1012C000A0E0B0E08093D4059093D505A093D60517
:1012D000B093D7050E946808E090D405F090D5053A
:1012E0000091D6051091D705102F0F2DFE2CEE245E
:1012F000E092D405F092D5050093D6051093D7055A
:101300000E94150890E0A0E0B0E08E299F29A02B54
:10131000B12B8093D4059093D505A093D605B093B7
:10132000D7050E9442080E94A7070E94C9071F9183
:101330000F91FF90EF9008958091DB058823E9F5E8
:101340006091CE057091CF058091D0059091D10527
:1013500022E736E040E050E00E94F10EBC01882711
:1013600099276093CE057093CF058093D005909315
:10137000D105605971407093D3056093D205609197
:10138000D4057091D5058091D6059091D70524E6B6
:1013900030E040E050E00E94F10EBC018827992720
:1013A0006093D4057093D5058093D6059093D705A7
:1013B0007093D9056093D80508958093DC05109249
:1013C000DB0508958091CB0508958091C7050895A8
:1013D0008091DB0508958091DC0508958091D20508
:1013E0009091D30508958091D8059091D9050895DD
:1013F0008091C3059091C40508952098089583B104
:10140000809581700895209153002E7F2093530082
:101410000F920FB60F921F9211242F923F924F926C
:101420005F926F927F928F929F92AF92BF92CF9274
:10143000DF92EF92FF920F931F932F933F934F935F
:101440005F936F937F938F939F93AF93BF93CF934C
:10145000DF93EF93FF93E3E4F1E020913A01220F51
:10146000E20F20E0F21F2DB73EB72083318321E049
:1014700030913301320F3093330120E03091340149
:10148000321F3093340130913501321F30933501D2
:1014900030913601321F3093360130913701321FBF
:1014A0003093370180E02FEF20933C0120E0209320
:1014B0003D01582F20933A01852FE9E6F1E0209174
:1014C0003A01220FE20F20E0F21F20813181422FEA
:1014D000432B59F0813099F041E0241B40E0340B5C
:1014E00020833183422F432B51F4EDE5F1E020912D
:1014F0003A01E20F20E0F21F81E0808308C0EDE5B1
:10150000F1E020913A01E20F20E0F21F808181306A
:1015100019F0843009F012C0E3E6F1E020E0809198
:101520003A01E80FF21F808120913C01821730F4CC
:1015300080933C0120913A0120933D0120913A0192
:10154000239530913B01231708F4B4CF20913D013E
:1015500020933A01E3E4F1E020913A01220FE20FF7
:1015600020E0F21F208131812DBF3EBFFF91EF911E
:10157000DF91CF91BF91AF919F918F917F916F91AB
:101580005F914F913F912F911F910F91FF90EF909D
:10159000DF90CF90BF90AF909F908F907F906F9093
:1015A0005F904F903F902F901F900F900FBE0F9025
:1015B0001895F894A0914F01B09150012DB73EB706
:1015C0002D933D93ED93FD93A0934F01B093500164
:1015D00020E02093330120933401209335012093A0
:1015E000360120933701209338012093390120934D
:1015F0003A0120933B0120933C0120933D0120932D
:101600003E0120933F012093400120E02093700091
:1016100020E02093B10020E02093B60020E020934A
:10162000B4002093B2008093380160933901A091F7
:101630004F01B0915001FE91EE913E912E912DBF40
:101640003EBFA0934F01B09350010895A0914F0168
:10165000B09150012DB73EB72D933D93ED93FD937F
:10166000A0934F01B0935001E3E6F1E020913A01DD
:10167000E20F20E0F21F6083EDE5F1E020913A01F6
:10168000E20F20E0F21F21E0208320913A01239510
:1016900030E8239FE02DF12D3197112425E731E02B
:1016A000E20FF31FEDBFFEBF8F939F930F920FB614
:1016B0000F921F9211242F923F924F925F926F923E
:1016C0007F928F929F92AF92BF92CF92DF92EF92D2
:1016D000FF920F931F932F933F934F935F936F93BB
:1016E0007F938F939F93AF93BF93CF93DF93EF93AA
:1016F000FF932DB73EB740913A01440FE3E4F1E088
:10170000E40F40E0F41F2193308320913A012395A8
:1017100020933A0120913B01239520933B01A09116
:101720004F01B0915001FE91EE913E912E912DBF4F
:101730003EBFA0934F01B0935001089581E02FEF79
:1017400020933C0120E020933D01582F20933A0143
:10175000852FE9E6F1E020913A01220FE20F20E027
:10176000F21F20813181422F432B59F0813099F0B3
:1017700041E0241B40E0340B20833183422F432B74
:1017800051F4EDE5F1E020913A01E20F20E0F21F83
:1017900081E0808308C0EDE5F1E020913A01E20F9D
:1017A00020E0F21F8081813019F0843009F012C0EE
:1017B000E3E6F1E020E080913A01E80FF21F80813A
:1017C00020913C01821730F480933C0120913A0132
:1017D00020933D0120913A01239530913B0123173D
:1017E00008F4B4CF20913D0120933A01E3E4F1E005
:1017F00020913A01220FE20F20E0F21F2081318177
:101800002DBF3EBFFF91EF91DF91CF91BF91AF917F
:101810009F918F917F916F915F914F913F912F9108
:101820001F910F91FF90EF90DF90CF90BF90AF90FE
:101830009F908F907F906F905F904F903F902F90F0
:101840001F900F900FBE0F90789420E020937000AF
:1018500020E22093B60020E836E02093B30020E099
:101860002093B40022E02093B0003093B10020E038
:101870002093B2002091B6002270E1F72091B600CB
:101880002170E1F72091B6002870E1F72091B600B1
:101890002470E1F72091B6002071E1F72091370024
:1018A000217019F021E02093370020913700227039
:1018B00019F022E02093370020913700247019F0AE
:1018C00024E02093370022E0209370000895112433
:1018D00021E531E020934F0130935001A0914F0159
:1018E000B09150012DB73EB72D933D93ED93FD93ED
:1018F000A0934F01B093500184E06DE70E94D90A94
:101900008CE299E1969587956FEF0E94260BA09146
:101910004F01B0915001FE91EE913E912E912DBF5D
:101920003EBFA0934F01B0935001089526E020934D
:1019300053002093410120917A002F7720937A0061
:101940002091500020682093500020915300216086
:101950002093530088950C949B0C0F920FB6F8942B
:101960000F921F9211242F923F924F925F926F928B
:101970007F928F929F92AF92BF92CF92DF92EF921F
:10198000FF920F931F932F933F934F935F936F9308
:101990007F938F939F93AF93BF93CF93DF93EF93F7
:1019A000FF93E3E4F1E020913A01220FE20F20E0FF
:1019B000F21F2DB73EB720833183E9E6F1E0209195
:1019C0003A01220FE20F20E0F21F80839183EDE5C0
:1019D000F1E020913A01E20F20E0F21F20E02083A5
:1019E00081E02FEF20933C0120E020933D01582F10
:1019F00020933A01852FE9E6F1E020913A01220F88
:101A0000E20F20E0F21F20813181422F432B59F059
:101A1000813099F041E0241B40E0340B2083318376
:101A2000422F432B51F4EDE5F1E020913A01E20F12
:101A300020E0F21F81E0808308C0EDE5F1E0209115
:101A40003A01E20F20E0F21F8081813019F08430EA
:101A500009F012C0E3E6F1E020E080913A01E80FDE
:101A6000F21F808120913C01821730F480933C0169
:101A700020913A0120933D0120913A012395309124
:101A80003B01231708F4B4CF20913D0120933A0184
:101A9000E3E4F1E020913A01220FE20F20E0F21F8F
:101AA000208131812DBF3EBFFF91EF91DF91CF911A
:101AB000BF91AF919F918F917F916F915F914F9166
:101AC0003F912F911F910F91FF90EF90DF90CF905A
:101AD000BF90AF909F908F907F906F905F904F904E
:101AE0003F902F901F900F900FBE0F907894089505
:101AF000F894E9E6F1E020913A01220FE20F20E0AC
:101B0000F21F80839183EDE5F1E020913A01E20F2D
:101B100020E0F21F24E02083789408950F920FB6FE
:101B2000F8940F921F9211242F923F924F925F923E
:101B30006F927F928F929F92AF92BF92CF92DF92DD
:101B4000EF92FF920F931F932F933F934F935F93C7
:101B50006F937F938F939F93AF93BF93CF93DF93B5
:101B6000EF93FF93E3E4F1E020913A01220FE20FBB
:101B700020E0F21F2DB73EB720833183EDE5F1E081
:101B800020913A01E20F20E0F21F20E0208381E063
:101B90002FEF20933C0120E020933D01582F20930C
:101BA0003A01852FE9E6F1E020913A01220FE20F98
:101BB00020E0F21F20813181422F432B59F08130E8
:101BC00099F041E0241B40E0340B20833183422F05
:101BD000432B51F4EDE5F1E020913A01E20F20E0D2
:101BE000F21F81E0808308C0EDE5F1E020913A0129
:101BF000E20F20E0F21F8081813019F0843009F07B
:101C000012C0E3E6F1E020E080913A01E80FF21F14
:101C1000808120913C01821730F480933C01209117
:101C20003A0120933D0120913A01239530913B01E7
:101C3000231708F4B4CF20913D0120933A01E3E447
:101C4000F1E020913A01220FE20F20E0F21F208103
:101C500031812DBF3EBFFF91EF91DF91CF91BF91B9
:101C6000AF919F918F917F916F915F914F913F9134
:101C70002F911F910F91FF90EF90DF90CF90BF9029
:101C8000AF909F908F907F906F905F904F903F901C
:101C90002F901F900F900FBE0F9078940895FC0125
:101CA0000995089520915F00F89430E83093610021
:101CB0008093610020935F000895282F220FE9E6AA
:101CC000F1E0E20F20E0F21F808191810895282F3A
:101CD000EDE5F1E0E20F20E0F21F808108958091B0
:101CE0003B010895282FE3E6F1E0E20F20E0F21F28
:101CF0008081089580913C01089580913D018A95ED
:101D0000089580913D0108958091400108952FB775
:101D1000F894609133017091340180913501909174
:101D200036012FBF089522E02093C000292F209371
:101D3000C500282F2093C40026E02093C20028E08D
:101D40002093C10008952F938093C6002091C00076
:101D500025FFFCCF2F9108958F93892F0E94A30E0A
:101D60008F910E94A30E08952F938093C600209117
:101D7000C00026FFFCCF2091C00020642093C0004B
:101D80002F9108950E94B40E8F93892F0E94B40E54
:101D90008F91089580934A00862F0E94B40E872F5A
:101DA0000E94B40E80914A000E94B40E80934A00B3
:101DB000892F0E94B40E80914A0008950E2F1F2F84
:101DC000282FE82FF92F80810E94B40EE02FF12FE9
:101DD000822F08950E94DE0E815090406150D1F70D
:101DE0000895629FD001739FF001829FE00DF11D65
:101DF000649FE00DF11D929FF00D839FF00D749F85
:101E0000F00D659FF00D9927729FB00DE11DF91F30
:101E1000639FB00DE11DF91FBD01CF01112408958D
:101E2000A1E21A2EAA1BBB1BFD010DC0AA1FBB1FDE
:101E3000EE1FFF1FA217B307E407F50720F0A21B50
:101E4000B30BE40BF50B661F771F881F991F1A94BD
:101E500069F760957095809590959B01AC01BD01E7
:081E6000CF010895F894FFCFB3
:101E680041434B30300050495045310050495045AE
:101E780032005049504533005049504534005049CC
:041E8800504535008C
:00000001FF
