:100000000C9434000C9451000C9451000C94510049
:100010000C9451000C9451000C9451000C94500914
:100020000C9451000C94410A0C9451000C94510012
:100030000C9451000C9451000C9451000C945100FC
:100040000C9451000C9451000C9451000C945100EC
:100050000C9451000C9451000C9451000C945100DC
:100060000C9451000C94510011241FBECFEFD8E026
:10007000DEBFCDBF11E0A0E0B1E0E0E1FFE102C0F2
:1000800005900D92A432B107D9F716E0A4E2B1E0D1
:1000900001C01D92A83BB107E1F70E9453000C94E8
:1000A000860F0C94000081E00E94A70E0E94BC0CF9
:1000B0008AEE90E060E00E947A0B8FED90E061E0C4
:1000C0000E947A0B8FE790E062E00E947A0B84E74F
:1000D00090E063E00E947A0B83E790E00E94A40E18
:1000E0000E94F20BFFCF08950E94F10682E090E09B
:1000F0000E94020D0E9473088CE291E0F9CF5F929A
:100100006F927F928F929F92AF92BF92CF92DF9227
:10011000EF92FF920F931F93DF93CF93CDB7DEB78C
:10012000A0970FB6F894DEBF0FBECDBF0E94520459
:1001300082E090E00E94020D60E1562E3E0108949C
:10014000611C711C0E94DC0E7B018C010E94A506C3
:100150004C010E94AA066C010E94B0065C010E943C
:10016000AD065982212F3327442755272A8398012A
:10017000442755272B835527412F302F2F2D2C8394
:10018000ED829E828F822D2D332727FD3A95288779
:10019000C9862B2D332727FD3A952A87AB868C8776
:1001A0000E944604C3016CE00E942C050E943A04A0
:1001B0000E94E3058CE291E00E94020DC3CF529AA7
:1001C0005A9882E090E00E94020D0E9472068CE331
:1001D00090E0F9CF1F930E94B30682E090E00E9466
:1001E000020D15E80E94A506815F9A4018F080E094
:1001F00061E002C081E060E040E00E94BA06812F29
:100200008A95F1F780E060E040E00E94BA068EE156
:1002100090E00E94020DE6CF8DE896E09093A10653
:100220008093A00684E080938D0610928E06109233
:100230008F061092900621E0209391068AE090E0CC
:1002400090939306809392061092950610929406CE
:1002500010929606109298061092970610929A069F
:100260001092990610929B0620939C0610929E066F
:1002700010929D0610929F0608952A9A08952A9832
:100280000895299A08952998089584B18C6284B9B3
:100290002498229A219A2A9A29980895249A85B115
:1002A000837C85B92A9A2998089580E58CBD81E0E0
:1002B0008DBD08951CBC1DBC08950E94450180E5BC
:1002C0008CBD81E08DBD08951CBC1DBC0E944E01FB
:1002D0000895E091A006F091A106118A108A128A71
:1002E0000895E091A006F091A1068289089590E01A
:1002F000E091A006F091A1068289882309F491E09B
:10030000892F089581E08A95F1F7E091A006F09198
:10031000A106808991890196918B808B895E93409B
:1003200020F0118A108A80E1828B82890895982FAB
:10033000E091A006F091A10682898823A9F49EBDD0
:10034000118A108A128A04C00E948201882319F43B
:100350000DB407FEF9CFE091A006F091A1068289C5
:10036000882311F48EB5089580E00895362F20E09B
:100370002827392740E061E270E1C901880F991F01
:1003800037FF04C09C012627372701C09C014F5F1F
:10039000483099F7C90108950F931F93CF93DF93C6
:1003A000062FEC0120E030E010E006C0C9016991A1
:1003B0000E94B6019C011F5F1017C0F3C901DF91B5
:1003C000CF911F910F910895FF920F931F93CF9399
:1003D000DF93982F142F052FF22EE091A006F091B5
:1003E000A1068289882329F52A98662389F4892F12
:1003F00080620E949701812F902F9C01E90110E0FB
:1004000004C089910E9497011F5F1F15D0F310C08F
:10041000892F0E949701812F902F9C01E90110E004
:1004200005C08FEF0E94970189931F5F1F15C8F3C6
:100430002A9ADF91CF911F910F91FF900895E0913B
:10044000A006F091A1068289882339F4319681EEC5
:1004500060E0AF0120E00E94E4010895AC01E0916A
:10046000A006F091A1068289882329F480EA60E041
:1004700020E20E94E4010895E091A006F091A10617
:100480008289882311F080E008951182319687E1F6
:1004900061E0AF0121E00E94E401E091A006F0914B
:1004A000A106818190E064E0969587956A95E1F7D1
:1004B000817008951F93E091A006F091A1068289B2
:1004C000882329F009C0812F8A95F1F701C015E82A
:1004D0000E943C028823B9F31F910895E091A00681
:1004E000F091A1068289882339F4319682EE60E08A
:1004F000AF0120E00E94E4010895AC01E091A00664
:10050000F091A1068289882329F481E661E020E246
:100510000E94E4010895E091A006F091A10682896D
:10052000882311F080E008951182319687E161E01F
:10053000AF0121E00E94E401E091A006F091A10644
:100540008181809581700895E091A006F091A106C7
:100550008289882311F080E00895319680E061E07F
:10056000AF0121E00E94E401E091A006F091A10614
:10057000818181FF07C080FF02C081E001C082E06D
:1005800080830895108280E00895E091A006F091A4
:10059000A1068289882361F41182319660E0AF015F
:1005A00021E00E94E401E091A006F091A1061082F2
:1005B0000895E091A006F091A1068289882391F424
:1005C00082E781832998319680E060E0AF0121E0E5
:1005D0000E94E4010E941F02E091A006F091A10692
:1005E00082E080830895E091A006F091A1068289BF
:1005F000882381F483E78183299A319680E060E043
:10060000AF0121E00E94E401E091A006F091A10673
:1006100081E080830895FF920F931F93F82E162F89
:10062000042FE091A006F091A1068289882369F544
:1006300031968F2D61E0AF0121E00E94E401E0914D
:10064000A006F091A106002351F081E090E002C0E5
:10065000880F991F1A95E2F72181282B0AC081E0A3
:1006600090E002C0880F991F1A95E2F780952181CA
:10067000282321834091A0065091A1064F5F5F4F30
:100680008F2D60E021E00E94E4011F910F91FF9007
:100690000895E091A006F091A1068289882311F0C7
:1006A00080E00895319685E061E0AF0121E00E948D
:1006B000E401E091A006F091A10681810895982FB0
:1006C000E091A006F091A1068289882361F4892F28
:1006D0009E3708F08DE78183319685E060E0AF01B9
:1006E00021E00E94E4010895E091A006F091A106A6
:1006F0008289882311F080E00895319686E061E0D8
:10070000AF0121E00E94E401E091A006F091A10672
:100710009181969596959695892F8695827081837D
:100720009170892B8283823011F4118206C081304E
:1007300019F0882311F482E0818381810895982F34
:10074000E091A006F091A1068289882341F59923C2
:1007500021F486E065E041E005C0913049F486E08F
:1007600065E040E00E940B0386E063E040E00AC0E1
:10077000923059F486E065E040E00E940B0386E089
:1007800063E041E00E940B03089586E065E040E0ED
:100790000E940B0386E063E041E00E940B03089592
:1007A000E091A006F091A1068289882311F080E0F3
:1007B0000895319686E061E0AF0121E00E94E401F6
:1007C000E091A006F091A1068181869583708183D6
:1007D0000895982FE091A006F091A10682898823C0
:1007E00071F5992321F486E062E040E00BC091307E
:1007F00021F486E062E040E010C0923049F486E0E7
:1008000062E041E00E940B0386E061E040E00AC044
:10081000933059F486E062E041E00E940B0386E0E9
:1008200061E041E00E940B03089586E062E041E050
:100830000E940B0386E061E041E00E940B030895F3
:10084000E091A006F091A10683830895E091A006AF
:10085000F091A10684830895E091A006F091A1068D
:10086000968385830895E091A006F091A106938771
:1008700082870895E091A006F091A10680818823E7
:1008800021F00E94C5020E9464010895E091A00633
:10089000F091A1068081882321F40E945D010E94CD
:1008A000F30208950F931F930E940C010E945D01B3
:1008B000E091A006F091A1061182319680E060E0FF
:1008C000AF0121E00E94E401E091A006F091A106B1
:1008D0001182319681E060E0AF0121E00E94E401E5
:1008E000E091A006F091A10683E08183319682E039
:1008F00060E0AF0121E00E94E401E091A006F091E8
:10090000A10681E08183319683E060E0AF0121E0C0
:100910000E94E401E091A006F091A10611823196B7
:1009200084E060E0AF0121E00E94E401E091A006D4
:10093000F091A10682E08183319685E060E0AF010D
:1009400021E00E94E401E091A006F091A10686E278
:100950008183319686E060E0AF0121E00E94E401EE
:10096000E091A006F091A10680E78183319687E0AF
:1009700060E0AF0121E00E94E401E091A006F09167
:10098000A10610E21183319681E160E0AF0121E020
:100990000E94E401E091A006F091A1061183319636
:1009A00082E160E0AF0121E00E94E401E091A00655
:1009B000F091A106118231968CE160E0AF0121E057
:1009C0000E94E401E091A006F091A1061182319607
:1009D0008DE160E0AF0121E00E94E40100E011E060
:1009E00080E160E0A80125E00E94E4018AE060E087
:1009F000A80125E00E94E4018BE060E046E051E0C0
:100A000025E00E94E4018CE060E04CE051E025E04C
:100A10000E94E4018DE060E042E151E025E00E94A7
:100A2000E4018EE060E048E151E025E00E94E4014D
:100A30008FE060E04EE151E025E00E94E401E091AA
:100A4000A006F091A10680E290E0968385830E9443
:100A50003A041F910F910895FF920F931F938C01F9
:100A6000F62EE091A006F091A106118A108A128A52
:100A70000E94D902E091A006F091A1068381F801BD
:100A8000838FE091A006F091A1068481F801848F04
:100A9000F58EC8016EE10E94CC01F801968F878F18
:100AA000C8010E942E02299A0E945A0229981F9179
:100AB0000F91FF900895DF92EF92FF920F931F9393
:100AC000CF93DF937C01E091A006F091A106118AFB
:100AD000108A128A108617820E94F30275E8D72EB8
:100AE00023C00E948B02882399F0C7010E947D02D7
:100AF000F701D68DC0E0078D10E00C2B1D2BC70130
:100B00006EE10E94CC010817190711F481E018C0AA
:100B10008D2D8A95F1F7E091A006F091A1068781CD
:100B20009085019690878783E091A006F091A106B9
:100B300027813085858196812817390790F280E0DA
:100B4000DF91CF911F910F91FF90EF90DF9008956B
:100B5000CF93DF93EC01E091A006F091A106878589
:100B6000882319F081E08A8F01C01A8ECE010E947D
:100B70002C05CE010E945B05811181E0DF91CF91B0
:100B80000895CF93DF93EC010E945B058823B9F0B1
:100B90008A8D8130A1F4E091A006F091A1069381A5
:100BA0008C8D981761F484EF91E00197F1F78B8DAC
:100BB0008483CE0162E00E942C0581E001C080E0C8
:100BC000DF91CF910895E091A006F091A10682896E
:100BD000882339F0118A108A128A0E9464010E94C7
:100BE0005204089580917A0087FD1CC08FEC809399
:100BF0007C0086E080937A0080917A00806C8093FC
:100C00007A0090E02DE00AC09F5F822F8A95F1F76D
:100C1000993C21F481E080933101089580917A001C
:100C200084FFF2CF0895DF92EF92FF920F931F930C
:100C3000182FD62E0E94F20580913101882309F0E9
:100C400040C080917C00807F812B80937C0084EF6A
:100C500091E00197F1F7EE24FF24870120E030E0D6
:100C60004DE01EC080917A00806480937A0090E00D
:100C700008C09F5F842F8A95F1F7993C11F431E009
:100C800004C080917A0084FFF4CF80917800909125
:100C90007900A0E0B0E0E80EF91E0A1F1B1F2F5FCD
:100CA0002D1500F3309331012D2D30E040E050E060
:100CB000C801B7010E94640FC901DA019C01AD01AE
:100CC0000AC080933201109231010E94F20520E0A7
:100CD00030E040E050E0C9011F910F91FF90EF908C
:100CE000DF900895809124018160809324015A9AB5
:100CF00086E064E00E94130690932601809325010C
:100D00005A98A0E0B0E0BC01CD012CE33AE540E008
:100D100050E00E94450F2AE0969587957795679554
:100D20002A95D1F7609327017093280180932901B8
:100D300090932A01809124018E7F8093240108954D
:100D4000809125019091260108958091270190912D
:100D50002801089580E090E008950E9446090895D2
:100D60000E9441090895559A569A569A5D9A5E9A3C
:100D70005F9A0895813011F45D9801C05D9A6130E9
:100D800011F45E9801C05E9A413011F45F980895A5
:100D90005F9A08951092AA061092AE061092B006BD
:100DA0001092AF061092B2061092B1061092B406DD
:100DB0001092B3061092B5061092B6061092B706BE
:100DC0001092A2061092A3061092A4061092A506F5
:100DD0001092A6061092A7061092A8061092A906D5
:100DE00008950E94CA065B9A539A45983D98449884
:100DF0003C980895813021F43D988093AC06089585
:100E0000882319F43D9A1092AC060895813021F49C
:100E10003C988093AD060895882319F43C9A10926B
:100E2000AD0608953C9B04C03C9886E08A95F1F796
:100E300086B190E024E0969587952A95E1F7817038
:100E400008953D9B02C080E0089587B182958F7020
:100E50008095817008951F938091B6068823C1F410
:100E600081E00E94FA0616E0812F8A95F1F781E071
:100E70000E940607812F8A95F1F780E00E940607FD
:100E8000812F8A95F1F780E00E94FA061A95F1F712
:100E90001F9108951F938091B6068823D9F43D9938
:100EA00005C00E94FA0682E08A95F1F73C9906C0D7
:100EB00080E00E94060782E08A95F1F781E00E94B7
:100EC000FA0616E0812F8A95F1F781E00E94060765
:100ED0001A95F1F71F9108951F938091B606882304
:100EE000D9F00E9421078823B9F40E94FA0612E083
:100EF000812F8A95F1F780E00E9406071A95F1F795
:100F000081E00E94FA0616E0812F8A95F1F781E0D0
:100F10000E9406071A95F1F71F910895FF920F930B
:100F20001F93082F8091B6068823F1F410E036E075
:100F3000F32E07FF02C081E001C080E00E94060797
:100F40008F2D8A95F1F781E00E94FA068F2D8A9500
:100F5000F1F780E00E94FA068F2D8A95F1F71F5F66
:100F6000183011F0000FE5CF1F910F91FF900895F9
:100F7000FF920F931F938091B606882311F010E023
:100F80001FC081E00E94060786E08A95F1F710E015
:100F900000E046E0F42E110F0E941207813009F4A0
:100FA000116081E00E94FA068F2D8A95F1F780E0AA
:100FB0000E94FA068F2D8A95F1F70F5F083059F7D6
:100FC000812F1F910F91FF9008951F938091B60676
:100FD0008823F9F481E00E94060712E0812F8A95A8
:100FE000F1F781E00E94FA061A95F1F70E941207C4
:100FF000882321F481E08093AB0602C01092AB06F7
:1010000012E0812F8A95F1F780E00E94FA061A9586
:10101000F1F71F9108951F938091B6068823A1F4DC
:101020000E94060712E0812F8A95F1F781E00E9465
:10103000FA06812F8A95F1F7812F8A95F1F780E0E2
:101040000E94FA061A95F1F71F9108950F931F93C6
:10105000082F10E00E942B07802F0E948E070E940D
:10106000E5078091AB06882311F081E009C00E945A
:101070004A071F5F1F3171F781E08093B60680E059
:101080001F910F910895FF920F931F93182F80E8DF
:101090000E94260882E00E948E070E94E507F090D9
:1010A000AB06812F0E948E070E94E5070091AB06D8
:1010B00080E00E948E070E94E5071091AB060E9417
:1010C0004A078091B606882351F4000F110F110FC3
:1010D000102B1F29173019F085E08093B6061F9159
:1010E0000F91FF900895EF92FF920F931F935B98DB
:1010F00080E29EE40197F1F71092B60680E00E942C
:1011000043080E942B0780E80E948E070E94E50793
:101110000091AB0680E00E948E070E94E5071091C7
:10112000AB060E944A078091B606882339F4110F56
:10113000102B133019F086E08093B60680E797E114
:101140000197F1F781E80E9426080E94B807E82E6F
:101150000E940B080E94B807F82E0E94E5070E9423
:101160004A070E942B0780E80E948E070E94E5072D
:101170000091AB0681E00E948E070E94E507109166
:10118000AB060E944A078091B606882339F4110FF6
:10119000102B133019F087E08093B60680E797E1B3
:1011A0000197F1F781E80E9426080E94B807082FEE
:1011B0000E940B080E94B807182F0E94E5070E94A2
:1011C0004A070E946C075B9A8091B606882309F053
:1011D00043C06E2D70E080E090E0982F872F762F2F
:1011E00066272F2D30E040E050E0622B732B842BDC
:1011F000952B22E736E040E050E00E94450F2FEFAC
:101200003FEF40E050E00E94640F2059314030939E
:10121000B2062093B106602F70E080E090E0982F36
:10122000872F762F6627212F30E040E050E0622B99
:10123000732B842B952B24E630E040E050E00E9495
:10124000450F2FEF3FEF40E050E00E94640F3093D6
:10125000B4062093B30604C08093B7061092B60676
:101260001F910F91FF90EF9008958091AE06089521
:101270008091AA0608958091B60608958091B706D8
:1012800008958091B1069091B20608958091B306B9
:101290009091B40608958091A6069091A7060895AE
:1012A000209153002E7F209353000F920FB60F9280
:1012B0001F9211242F923F924F925F926F927F92D2
:1012C0008F929F92AF92BF92CF92DF92EF92FF9256
:1012D0000F931F932F933F934F935F936F937F933E
:1012E0008F939F93AF93BF93CF93DF93EF93FF932E
:1012F000E3E4F1E020913A01220FE20F20E0F21F37
:101300002DB73EB7208331832091390120934600C9
:101310002091330123952093330130E02091340153
:10132000231F2093340120913501231F2093350181
:1013300020913601231F2093360120913701231F6E
:101340002093370180E02FEF20933C0120E0209391
:101350003D01582F20933A01852FE9E7F1E02091D4
:101360003A01220FE20F20E0F21F20813181422F4B
:10137000432B59F0813099F041E0241B40E0340BBD
:1013800020833183422F432B51F4E5E6F1E0209195
:101390003A01E20F20E0F21F81E0808308C0E5E619
:1013A000F1E020913A01E20F20E0F21F80818130CC
:1013B00019F0843009F012C0EFE6F1E020E08091EE
:1013C0003A01E80FF21F808120913C01821730F42E
:1013D00080933C0120913A0120933D0120913A01F4
:1013E000239530913B01231708F4B4CF20913D01A0
:1013F00020933A0120913A01222329F020913F01C4
:10140000239520933F0120913E012395243640F0FF
:1014100020E030913F013093400130E030933F01B4
:1014200020933E01E3E4F1E020913A01220FE20F24
:1014300020E0F21F208131812DBF3EBFFF91EF914F
:10144000DF91CF91BF91AF919F918F917F916F91DC
:101450005F914F913F912F911F910F91FF90EF90CE
:10146000DF90CF90BF90AF909F908F907F906F90C4
:101470005F904F903F902F901F900F900FBE0F9056
:101480001895209153002E7F209353000F920FB692
:101490000F921F9211242F923F924F925F926F9260
:1014A0007F928F929F92AF92BF92CF92DF92EF92F4
:1014B000FF920F931F932F933F934F935F936F93DD
:1014C0007F938F939F93AF93BF93CF93DF93EF93CC
:1014D000FF93E3E4F1E020913A01220FE20F20E0D4
:1014E000F21F2DB73EB7208331832091390120931D
:1014F00046002091330123952093330130E0209161
:101500003401231F2093340120913501231F2093A0
:10151000350120913601231F209336012091370198
:10152000231F2093370180E02FEF20933C0120E020
:1015300020933D01582F20933A01852FE9E7F1E0F0
:1015400020913A01220FE20F20E0F21F2081318129
:10155000422F432B59F0813099F041E0241B40E0A9
:10156000340B20833183422F432B51F4E5E6F1E025
:1015700020913A01E20F20E0F21F81E0808308C051
:10158000E5E6F1E020913A01E20F20E0F21F8081D0
:10159000813019F0843009F012C0EFE6F1E020E06C
:1015A00080913A01E80FF21F808120913C0182175F
:1015B00030F480933C0120913A0120933D01209129
:1015C0003A01239530913B01231708F4B4CF2091C1
:1015D0003D0120933A0120913A01222329F02091E4
:1015E0003F01239520933F0120913E01239524360E
:1015F00040F020E030913F013093400130E03093E3
:101600003F0120933E01E3E4F1E020913A01220FF3
:10161000E20F20E0F21F208131812DBF3EBFFF91FC
:10162000EF91DF91CF91BF91AF919F918F917F917A
:101630006F915F914F913F912F911F910F91FF906B
:10164000EF90DF90CF90BF90AF909F908F907F9062
:101650006F905F904F903F902F901F900F900FBE14
:101660000F901895F894A0915701B09158012DB79B
:101670003EB72D933D93ED93FD93A0935701B09307
:10168000580120E020933301209334012093350149
:10169000209336012093370120933801209339019C
:1016A00020933A0120933B0120933C0120933D017C
:1016B00020933E0120933F012093400120E020939E
:1016C000700020E02093B10020E02093B6008093CA
:1016D000380160933901A0915701B0915801FE91F2
:1016E000EE913E912E912DBF3EBFA0935701B09336
:1016F00058010895A0915701B09158012DB73EB7F8
:101700002D933D93ED93FD93A0935701B093580112
:10171000EFE6F1E020913A01E20F20E0F21F608352
:10172000E5E6F1E020913A01E20F20E0F21F21E02E
:10173000208320913A01239530E8239FE02DF12D5D
:10174000319711242DE831E0E20FF31FEDBFFEBF0A
:101750008F939F930F920FB60F921F9211242F9287
:101760003F924F925F926F927F928F929F92AF9231
:10177000BF92CF92DF92EF92FF920F931F932F931E
:101780003F934F935F936F937F938F939F93AF9309
:10179000BF93CF93DF93EF93FF932DB73EB7409165
:1017A0003A01440FE3E4F1E0E40F40E0F41F219339
:1017B000308320913A01239520933A0120913B01F7
:1017C000239520933B01A0915701B0915801FE91C0
:1017D000EE913E912E912DBF3EBFA0935701B09345
:1017E0005801089581E02FEF20933C0120E02093E1
:1017F0003D01582F20933A01852FE9E7F1E0209130
:101800003A01220FE20F20E0F21F20813181422FA6
:10181000432B59F0813099F041E0241B40E0340B18
:1018200020833183422F432B51F4E5E6F1E02091F0
:101830003A01E20F20E0F21F81E0808308C0E5E674
:10184000F1E020913A01E20F20E0F21F8081813027
:1018500019F0843009F012C0EFE6F1E020E0809149
:101860003A01E80FF21F808120913C01821730F489
:1018700080933C0120913A0120933D0120913A014F
:10188000239530913B01231708F4B4CF20913D01FB
:1018900020933A01E3E4F1E020913A01220FE20FB4
:1018A00020E0F21F208131812DBF3EBFFF91EF91DB
:1018B000DF91CF91BF91AF919F918F917F916F9168
:1018C0005F914F913F912F911F910F91FF90EF905A
:1018D000DF90CF90BF90AF909F908F907F906F9050
:1018E0005F904F903F902F901F900F900FBE0F90E2
:1018F000789420E02093700020E22093B60020E846
:101900002093B30020E02093B40022E02093B000A5
:1019100026E02093B10020E02093B2002091B60091
:101920002270E1F72091B6002170E1F72091B60016
:101930002870E1F72091B6002470E1F72091B600FD
:101940002071E1F720913700217019F021E02093F8
:10195000370020913700227019F022E020933700E1
:1019600020913700247019F024E02093370022E002
:101970002093700078940895112429E531E0209394
:10198000570130935801A0915701B09158012DB7DC
:101990003EB72D933D93ED93FD93A0935701B093E4
:1019A000580183E062E80E94320B86ED99E196953A
:1019B00087956FEF0E947A0BA0915701B091580163
:1019C000FE91EE913E912E912DBF3EBFA093570107
:1019D000B0935801089526E02093530020934101CD
:1019E00020917A002F7720937A0020915000206870
:1019F000209350002091530021602093530088953C
:101A00000C94F00C0F920FB6F8940F921F921124C1
:101A10002F923F924F925F926F927F928F929F92FE
:101A2000AF92BF92CF92DF92EF92FF920F931F93EC
:101A30002F933F934F935F936F937F938F939F93D6
:101A4000AF93BF93CF93DF93EF93FF93E3E4F1E082
:101A500020913A01220FE20F20E0F21F2DB73EB78E
:101A600020833183E9E7F1E020913A01220FE20F70
:101A700020E0F21F80839183E5E6F1E020913A01B6
:101A8000E20F20E0F21F20E0208381E02FEF20937F
:101A90003C0120E020933D01582F20933A01852FEF
:101AA000E9E7F1E020913A01220FE20F20E0F21F76
:101AB00020813181422F432B59F0813099F041E050
:101AC000241B40E0340B20833183422F432B51F4FD
:101AD000E5E6F1E020913A01E20F20E0F21F81E01B
:101AE000808308C0E5E6F1E020913A01E20F20E0B2
:101AF000F21F8081813019F0843009F012C0EFE6C6
:101B0000F1E020E080913A01E80FF21F80812091FE
:101B10003C01821730F480933C0120913A012093DC
:101B20003D0120913A01239530913B01231708F4A0
:101B3000B4CF20913D0120933A01E3E4F1E02091FC
:101B40003A01220FE20F20E0F21F208131812DBFE8
:101B50003EBFFF91EF91DF91CF91BF91AF919F91E8
:101B60008F917F916F915F914F913F912F911F9135
:101B70000F91FF90EF90DF90CF90BF90AF909F902C
:101B80008F907F906F905F904F903F902F901F901D
:101B90000F900FBE0F9078940895F894E9E7F1E064
:101BA00020913A01220FE20F20E0F21F80839183FF
:101BB000E5E6F1E020913A01E20F20E0F21F24E097
:101BC0002083789408950F920FB6F8940F921F9285
:101BD00011242F923F924F925F926F927F928F9239
:101BE0009F92AF92BF92CF92DF92EF92FF920F93AC
:101BF0001F932F933F934F935F936F937F938F9395
:101C00009F93AF93BF93CF93DF93EF93FF93E3E45F
:101C1000F1E020913A01220FE20F20E0F21F2DB7F0
:101C20003EB720833183E5E6F1E020913A01E20FEF
:101C300020E0F21F20E0208381E02FEF20933C0181
:101C400020E020933D01582F20933A01852FE9E7AA
:101C5000F1E020913A01220FE20F20E0F21F2081F3
:101C60003181422F432B59F0813099F041E0241B00
:101C700040E0340B20833183422F432B51F4E5E6BF
:101C8000F1E020913A01E20F20E0F21F81E0808331
:101C900008C0E5E6F1E020913A01E20F20E0F21FF2
:101CA0008081813019F0843009F012C0EFE6F1E054
:101CB00020E080913A01E80FF21F808120913C01E1
:101CC000821730F480933C0120913A0120933D012A
:101CD00020913A01239530913B01231708F4B4CFAA
:101CE00020913D0120933A01E3E4F1E020913A0193
:101CF000220FE20F20E0F21F208131812DBF3EBF75
:101D0000FF91EF91DF91CF91BF91AF919F918F9113
:101D10007F916F915F914F913F912F911F910F9103
:101D2000FF90EF90DF90CF90BF90AF909F908F90FB
:101D30007F906F905F904F903F902F901F900F90EB
:101D40000FBE0F9078940895FC0109950895209195
:101D50005F00F89430E83093610080936100209335
:101D60005F000895282F220FE9E7F1E0E20F20E05D
:101D7000F21F808191810895282FE5E6F1E0E20FBE
:101D800020E0F21F8081089580913B010895282F63
:101D9000EFE6F1E0E20F20E0F21F808108958091EC
:101DA0003C01089580913D018A95089580913D01FF
:101DB0000895809140010895F894609133017091E5
:101DC000340180913501909136017894089522E094
:101DD0002093C000292F2093C500282F2093C400F2
:101DE00026E02093C20028E02093C10008952F939D
:101DF0008093C6002091C00025FFFCCF2F9108954D
:101E00008F93892F0E94F70E8F910E94F70E0895ED
:101E10002F938093C6002091C00026FFFCCF209115
:101E2000C00020642093C0002F9108950E94080FE5
:101E30008F93892F0E94080F8F91089580934A00F5
:101E4000862F0E94080F872F0E94080F80914A005A
:101E50000E94080F80934A00892F0E94080F8091EA
:101E60004A0008950E2F1F2F282FE82FF92F808169
:101E70000E94080FE02FF12F822F08950E94320F49
:101E8000815090406150D1F70895629FD001739FB7
:101E9000F001829FE00DF11D649FE00DF11D929F06
:101EA000F00D839FF00D749FF00D659FF00D992745
:101EB000729FB00DE11DF91F639FB00DE11DF91F69
:101EC000BD01CF0111240895A1E21A2EAA1BBB1B4C
:101ED000FD010DC0AA1FBB1FEE1FFF1FA217B307F6
:101EE000E407F50720F0A21BB30BE40BF50B661F0C
:101EF000771F881F991F1A9469F7609570958095D0
:101F000090959B01AC01BD01CF010895F894FFCFDE
:101F100041434B3030005049504531005049504505
:101F20003200504950453300504950453400504923
:041F300050453500E3
:00000001FF
