:100000000C9445000C9457000C9457000C94570026
:100010000C9457000C9457000C9415010C94570045
:100020000C9457000C9457000C9457000C945700F4
:100030000C9457000C9457000C9457000C945700E4
:100040000C9457000C9457000C9457000C945700D4
:100050000C9457000C9457000C9457000C945700C4
:100060000C9457000C9457000000000000000000A2
:1000700000000000DAC01BC01AC019C00000000058
:10008000000000000000000012C011241FBECFEFCE
:10009000D8E0DEBFCDBF16E0A0E0B1E001C01D9208
:1000A000A336B107E1F70E9459000C949E050C9409
:1000B00000000E94660383EB90E065E00E945C0212
:1000C0008EEB90E061E00E945C028EEA90E062E0DC
:1000D0000E945C0289EA90E063E00E945C0284EA8C
:1000E00090E060E00E945C028FE990E066E00E9490
:1000F0005C028AE990E064E00E945C0285E990E09D
:1001000068E00E945C0280E990E067E00E945C0287
:100110008FE890E00E944F050E94D402FFCF08951F
:1001200087E090E00E94AD03FBCF87E090E00E9463
:10013000AD03FBCF87E090E00E94AD03FBCF87E0EB
:1001400090E00E94AD03FBCF87E090E00E94AD03FA
:10015000FBCF87E090E00E94AD03FBCF87E090E00B
:100160000E94AD03FBCF8AB1806E8AB98BB1806EDD
:100170008BB98EE190E00E94AD03FBCF86E064E096
:100180000E94DB008CE390E00E94AD03F7CF8091EA
:100190007A0087FD0FC08FEC80937C0086E080930F
:1001A0007A0080917A00806C80937A0080917A0046
:1001B00084FFFCCF0895DF92EF92FF920F931F937D
:1001C000182FD62E0E94C70080917C00807F812B43
:1001D00080937C00EE24FF24870120E014C08091EE
:1001E0007A00806480937A0080917A0084FFFCCF4B
:1001F0008091780090917900A0E0B0E0E80EF91EBF
:100200000A1F1B1F2F5F2D1550F32D2D30E040E0EE
:1002100050E0C801B7010E947C05C9011F910F91F0
:10022000FF90EF90DF90089508955D9A209153001C
:100230002E7F209353000F920FB60F921F9211241E
:100240002F923F924F925F926F927F928F929F92E6
:10025000AF92BF92CF92DF92EF92FF920F931F93D4
:100260002F933F934F935F936F937F938F939F93BE
:10027000AF93BF93CF93DF93EF93FF93E9E1F1E067
:1002800020911001220FE20F20E0F21F2DB73EB7A0
:100290002083318320910F01209346002091090192
:1002A00023952093090130E020910A01231F209318
:1002B0000A0120910B01231F20930B0120910C01B7
:1002C000231F20930C0120910D01231F20930D016A
:1002D00080E02FEF2093120120E020931301582F8C
:1002E00020931001852FEFE4F1E020911001220FFF
:1002F000E20F20E0F21F20813181422F432B59F081
:10030000813099F041E0241B40E0340B208331839D
:10031000422F432B51F4EBE3F1E020911001E20F67
:1003200020E0F21F81E0808308C0EBE3F1E0209140
:100330001001E20F20E0F21F8081813019F084303B
:1003400009F012C0E5E4F1E020E080911001E80F2F
:10035000F21F808120911201821730F480931201E4
:1003600020911001209313012091100123953091C9
:100370001101231708F4B4CF209113012093100129
:1003800020911001222329F020911501239520931B
:100390001501209114012395243640F020E030917E
:1003A00015013093160130E03093150120931401AC
:1003B000E9E1F1E020911001220FE20F20E0F21FAD
:1003C000208131812DBF3EBFFF91EF91DF91CF9111
:1003D000BF91AF919F918F917F916F915F914F915D
:1003E0003F912F911F910F91FF90EF90DF90CF9051
:1003F000BF90AF909F908F907F906F905F904F9045
:100400003F902F901F900F900FBE0F905D982091FE
:1004100060002064209360001895F8945D98559AC8
:10042000A0912D01B0912E012DB73EB72D933D9394
:10043000ED93FD93A0932D01B0932E0120E0209326
:10044000090120930A0120930B0120930C012093B2
:100450000D0120930E0120930F0120931001209392
:100460001101209312012093130120931401209372
:10047000150120931601A895209154002070209317
:1004800054002091600028612093600020E02093B8
:10049000600080930E0160930F01A0912D01B09137
:1004A0002E01FE91EE913E912E912DBF3EBFA09365
:1004B0002D01B0932E010895A0912D01B0912E0130
:1004C0002DB73EB72D933D93ED93FD93A0932D0152
:1004D000B0932E01E5E4F1E020911001E20F20E05D
:1004E000F21F6083EBE3F1E020911001E20F20E0C6
:1004F000F21F21E0208320911001239530E8239FF3
:10050000E02DF12D3197112423E631E0E20FF31FA6
:10051000EDBFFEBF8F939F930F920FB60F921F9266
:1005200011242F923F924F925F926F927F928F92FF
:100530009F92AF92BF92CF92DF92EF92FF920F9372
:100540001F932F933F934F935F936F937F938F935B
:100550009F93AF93BF93CF93DF93EF93FF932DB709
:100560003EB740911001440FE9E1F1E0E40F40E0B3
:10057000F41F2193308320911001239520931001C3
:1005800020911101239520931101A0912D01B0918B
:100590002E01FE91EE913E912E912DBF3EBFA09374
:1005A0002D01B0932E01089581E02FEF20931201C9
:1005B00020E020931301582F20931001852FEFE4A2
:1005C000F1E020911001220FE20F20E0F21F2081C4
:1005D0003181422F432B59F0813099F041E0241BA7
:1005E00040E0340B20833183422F432B51F4EBE363
:1005F000F1E020911001E20F20E0F21F81E0808302
:1006000008C0EBE3F1E020911001E20F20E0F21FBF
:100610008081813019F0843009F012C0E5E4F1E006
:1006200020E080911001E80FF21F808120911201DB
:10063000821730F48093120120911001209313014E
:1006400020911001239530911101231708F4B4CFA4
:100650002091130120931001E9E1F1E020911001B4
:10066000220FE20F20E0F21F208131812DBF3EBF1B
:10067000FF91EF91DF91CF91BF91AF919F918F91BA
:100680007F916F915F914F913F912F911F910F91AA
:10069000FF90EF90DF90CF90BF90AF909F908F90A2
:1006A0007F906F905F904F903F902F901F900F9092
:1006B0000FBE0F907894A895209160002861209338
:1006C000600026E4209360007894089511242FE2BE
:1006D00031E020932D0130932E01A0912D01B09196
:1006E0002E012DB73EB72D933D93ED93FD93A0932F
:1006F0002D01B0932E0183E062E80E940D028AE290
:1007000097E0969587956FEF0E945C02A0912D016E
:10071000B0912E01FE91EE913E912E912DBF3EBFE4
:10072000A0932D01B0932E01089524E0209353004F
:100730002093170120917A002F7E20937A00209138
:1007400050002068209350000E944F0520915300D4
:100750002160209353008895EDCF0F920FB6F89447
:100760000F921F9211242F923F924F925F926F929D
:100770007F928F929F92AF92BF92CF92DF92EF9231
:10078000FF920F931F932F933F934F935F936F931A
:100790007F938F939F93AF93BF93CF93DF93EF9309
:1007A000FF93E9E1F1E020911001220FE20F20E038
:1007B000F21F2DB73EB720833183EFE4F1E02091A3
:1007C0001001220FE20F20E0F21F80839183EBE300
:1007D000F1E020911001E20F20E0F21F20E02083E1
:1007E00081E02FEF2093120120E020931301582F76
:1007F00020931001852FEFE4F1E020911001220FEA
:10080000E20F20E0F21F20813181422F432B59F06B
:10081000813099F041E0241B40E0340B2083318388
:10082000422F432B51F4EBE3F1E020911001E20F52
:1008300020E0F21F81E0808308C0EBE3F1E020912B
:100840001001E20F20E0F21F8081813019F0843026
:1008500009F012C0E5E4F1E020E080911001E80F1A
:10086000F21F808120911201821730F480931201CF
:1008700020911001209313012091100123953091B4
:100880001101231708F4B4CF209113012093100114
:10089000E9E1F1E020911001220FE20F20E0F21FC8
:1008A000208131812DBF3EBFFF91EF91DF91CF912C
:1008B000BF91AF919F918F917F916F915F914F9178
:1008C0003F912F911F910F91FF90EF90DF90CF906C
:1008D000BF90AF909F908F907F906F905F904F9060
:1008E0003F902F901F900F900FBE0F907894089517
:1008F000F894EFE4F1E020911001220FE20F20E0E4
:10090000F21F80839183EBE3F1E020911001E20F6D
:1009100020E0F21F24E02083789408950F920FB610
:10092000F8940F921F9211242F923F924F925F9250
:100930006F927F928F929F92AF92BF92CF92DF92EF
:10094000EF92FF920F931F932F933F934F935F93D9
:100950006F937F938F939F93AF93BF93CF93DF93C7
:10096000EF93FF93E9E1F1E020911001220FE20FF4
:1009700020E0F21F2DB73EB720833183EBE3F1E097
:1009800020911001E20F20E0F21F20E0208381E09F
:100990002FEF2093120120E020931301582F209372
:1009A0001001852FEFE4F1E020911001220FE20FFA
:1009B00020E0F21F20813181422F432B59F08130FA
:1009C00099F041E0241B40E0340B20833183422F17
:1009D000432B51F4EBE3F1E020911001E20F20E012
:1009E000F21F81E0808308C0EBE3F1E02091100169
:1009F000E20F20E0F21F8081813019F0843009F08D
:100A000012C0E5E4F1E020E080911001E80FF21F50
:100A1000808120911201821730F48093120120917D
:100A200010012093130120911001239530911101A1
:100A3000231708F4B4CF2091130120931001E9E1AA
:100A4000F1E020911001220FE20F20E0F21F20813F
:100A500031812DBF3EBFFF91EF91DF91CF91BF91CB
:100A6000AF919F918F917F916F915F914F913F9146
:100A70002F911F910F91FF90EF90DF90CF90BF903B
:100A8000AF909F908F907F906F905F904F903F902E
:100A90002F901F900F900FBE0F9078940895FC0137
:100AA00009950895282F220FEFE4F1E0E20F20E0EE
:100AB000F21F808191810895282FEBE3F1E0E20F8E
:100AC00020E0F21F80810895809111010895282F60
:100AD000E5E4F1E0E20F20E0F21F808108958091CB
:100AE00012010895809113018A9508958091130150
:100AF0000895809116010895A1E21A2EAA1BBB1B2E
:100B0000FD010DC0AA1FBB1FEE1FFF1FA217B307D9
:100B1000E407F50720F0A21BB30BE40BF50B661FEF
:100B2000771F881F991F1A9469F7609570958095B3
:100B300090959B01AC01BD01CF010895F894FFCFC2
:00000001FF
